:100000000C942A000C943C000C943C000C943C0092
:100010000C943C000C943C000C943C000C943C0070
:100020000C943C000C943C000C94CD000C943C00CF
:100030000C943C000C943C000C943C000C943C0050
:100040000C943C000C943C000C943C000C943C0040
:100050000C943C0011241FBECFE5D8E0DEBFCDBF1D
:1000600010E0A0E6B0E001C01D92A836B107E1F7AC
:100070000E943E000C940F010C94000081B38F602D
:1000800081BB82B3807F82BB83B7886083BF83B725
:10009000856083BF86E18CBF89B7826089BF789411
:1000A0003091610020916200409160008091640075
:1000B000882309F44FC0442329F5332331F482B354
:1000C000836082BB82B3837F17C0313031F482B347
:1000D000856082BB82B3857F0FC0323031F482B33A
:1000E0008C6082BB82B38C7F07C0333031F482B323
:1000F0008A6082BB82B38A7F82BB3F5F343040F12B
:1001000030E026C0413021F5222331F482B38A60E9
:1001100082BB82B38A7F17C0213031F482B38C60F6
:1001200082BB82B38C7F0FC0223031F482B38560F2
:1001300082BB82B3857F07C0233031F482B38360F2
:1001400082BB82B3837F82BB2F5F243008F020E024
:100150001092640080916700882309F4A7CF8091F2
:10016000630069E00E940301992309F440E0809153
:10017000630069E00E940301933009F441E080913B
:10018000630069E00E940301963021F482B3807F0E
:1001900082BB42E01092670089CF1F920F920FB688
:1001A0000F9211242F933F938F939F9321E02093DD
:1001B00064008091650090916600019690936600BE
:1001C000809365008091650090916600845F914006
:1001D00088F020936700809163008F5F80936300B5
:1001E000809163008C3310F01092630010926600CF
:1001F000109265009F918F913F912F910F900FBEAC
:100200000F901F901895991B79E004C0991F9617BD
:1002100008F0961B881F7A95C9F780950895F89481
:02022000FFCF0E
:00000001FF
