:100000000C946C020C9489020C9489020C94890261
:100010000C94150F0C9489020C9489020C9489029B
:100020000C9489020C9489020C9489020C94890224
:100030000C9489020C948E0F0C94B50F0C948902C9
:100040000C9489020C9489020C9489020C94890204
:100050000C948902740C6B044C0A280B510A6B0433
:100060001A0E6B04C407230E6B0CEC084B0E420CEB
:10007000320A6B04320E860AE3079A0C5F0C3A0CC4
:10008000810B440D25752F25752F257520253032C0
:10009000753A253032753A253032750A0054686554
:1000A0002064726976652025752077696C6C206202
:1000B0006520666F726D61747465642E204172658F
:1000C00020796F7520737572653F2028592F6E292E
:1000D0003D000A256C7520627974657320636F702A
:1000E0006965642E0A000A436F7079696E672E2E67
:1000F0002E000A4372656174696E6720222573229F
:10010000004F70656E696E67202225732200256C92
:1001100075206279746573207772697474656E20D6
:100120007769746820256C752062797465732F7304
:1001300065632E0A00256C752062797465732072E0
:10014000656164207769746820256C752062797414
:1001500065732F7365632E0A0066707472203D20EC
:10016000256C75283078256C58290A002C202531FB
:10017000306C754B20627974657320667265650A10
:10018000002534752046696C652873292C2531308B
:100190006C7520627974657320746F74616C0A25C4
:1001A000347520446972287329002563256325630B
:1001B000256325632025752F253032752F25303294
:1001C0007520253032753A253032752025396C7509
:1001D00020202573000D25752066696C65732C2021
:1001E000256C752062797465732E0A257520666FFB
:1001F0006C646572732E0A256C75204B4220746FF7
:1002000074616C206469736B2073706163652E0A7E
:10021000256C75204B4220617661696C61626C656A
:100220002E0A004641542074797065203D204641D5
:100230005425750A42797465732F436C7573746520
:1002400072203D20256C750A4E756D626572206FB7
:10025000662046415473203D2025750A526F6F7405
:100260002044495220656E7472696573203D2025D3
:10027000750A536563746F72732F464154203D2095
:10028000256C750A4E756D626572206F6620636C11
:10029000757374657273203D20256C750A46415450
:1002A00020737461727420286C626129203D2025BE
:1002B0006C750A44495220737461727420286C6210
:1002C000612C636C7573746F7229203D20256C75E9
:1002D0000A4461746120737461727420286C6261D5
:1002E00029203D20256C750A0A2E2E2E0072633DB2
:1002F00025750A0072633D25750A003F3F3F0A00DD
:100300002530345820253032582D00532F4E3A20B6
:1003100025730A004D6F64656C3A2025730A0053FB
:1003200044205374617475733A0A004F43523A0A79
:10033000004349443A0A004353443A0A0043617275
:100340006420747970653A2025750A0045726173DE
:100350006520626C6F636B3A20256C752073656352
:10036000746F72730A00536563746F722073697AD5
:10037000653A2025750A0044726976652073697AAA
:10038000653A20256C7520736563746F72730A007B
:1003900072633D25640A00536563746F723A256C7D
:1003A000750A0072633D25640A002C20436F646562
:1003B00020706167653A2025750A004C464E20443E
:1003C000697361626C6564000A4661744673206DEE
:1003D0006F64756C652074657374206D6F6E6974DD
:1003E0006F7220666F72204156520A00202530320B
:1003F00058002530386C58200072633D2575204622
:10040000525F25530A004F4B004449534B5F4552FE
:100410005200494E545F455252004E4F545F524570
:10042000414459004E4F5F46494C45004E4F5F5086
:1004300041544800494E56414C49445F4E414D4558
:100440000044454E49454400455849535400494EDF
:1004500056414C49445F4F424A4543540057524924
:1004600054455F50524F54454354454400494E56FD
:10047000414C49445F4452495645004E4F545F45F4
:100480004E41424C4544004E4F5F46494C455F53F8
:10049000595354454D004D4B46535F41424F5254C2
:1004A00045440054494D454F5554004C4F434B452E
:1004B00044004E4F545F454E4F5547485F434F529F
:1004C0004500544F4F5F4D414E595F4F50454E5F71
:1004D00046494C455300000011241FBECFE5D8E02B
:1004E000DEBFCDBF10E0A0E6B0E0ECE8FCE602C065
:1004F00005900D92A83DB107D9F715E0A8EDB0E041
:1005000001C01D92AA33B107E1F70E94F0030C94D9
:1005100044360C94000060EA7DE885E59DE308958B
:10052000482F26E034E090E007C0F9012F5F3F4FED
:10053000E491EE23D1F79F5F941721F0F9018491A4
:10054000882399F700D000D000D0EDB7FEB73196E0
:1005500089EF93E0ADB7BEB712969C938E93119737
:1005600042831382358324830E943610EDB7FEB791
:1005700036960FB6F894FEBF0FBEEDBF0895BF923A
:10058000CF92DF92EF92FF920F931F93CF93DF935F
:10059000182F092FB22E00D000D000D082EF93E0A8
:1005A000ADB7BEB712969C938E931197EDB7FEB779
:1005B00043835483658376830E943610212F302F26
:1005C000C901EC017C0110E08DB79EB706960FB60D
:1005D000F8949EBF0FBE8DBF8CEEC82E83E0D82E40
:1005E00017C000D000D0EDB7FEB73196ADB7BEB79B
:1005F0001296DC92CE921197D7018D917D01828364
:1006000013820E9436101F5F0F900F900F900F9073
:100610001B1538F380E20E94E30F10E00BC09881B5
:10062000892F80528F3508F09EE2892F0E94E30FB8
:100630001F5F21961B1598F38AE00E94E30FDF915C
:10064000CF911F910F91FF90EF90DF90CF90BF90CF
:1006500008959F92AF92BF92CF92DF92EF92FF9256
:100660000F931F93DF93CF93CDB7DEB766970FB687
:10067000F894DEBF0FBECDBF8C017E010894E11C53
:10068000F11CC701B8010E947525882309F064C0D8
:10069000D8010D900020E9F71197A01BB10B57016D
:1006A0006801CA0EDB1E9FE2992E7D010894E11CB1
:1006B000F11CE00EF11E44C09E3209F441C080914D
:1006C000A20384FF18C08091B0039091B1030196FA
:1006D0009093B1038093B003F6019082C70163EA5F
:1006E00073E00E943D36C8010E942903F601108282
:1006F000882331F131C08091B2039091B303019608
:100700009093B3038093B2038091B6049091B704A1
:10071000A091B804B091B90420919A0330919B0341
:1007200040919C0350919D03820F931FA41FB51FFE
:100730008093B6049093B704A093B804B093B9041F
:10074000C5016AE973E00E94E127882329F49091AA
:10075000A303992309F0B0CF66960FB6F894DEBFD5
:100760000FBECDBFCF91DF911F910F91FF90EF9002
:10077000DF90CF90BF90AF909F900895EF92FF923F
:100780000F931F93CF93DF937C018B01C0E0D0E0E8
:10079000015010400E94560F8D30A9F0883031F47E
:1007A0002097C1F321970E94710FF4CF803290F30C
:1007B000C017D1077CF7F701EC0FFD1F808321964E
:1007C0000E94E30FE7CFCE0DDF1D18828AE00E9462
:1007D000710FDF91CF911F910F91FF90EF900895CE
:1007E0002F923F924F925F926F927F928F929F9241
:1007F000AF92BF92CF92DF92EF92FF920F931F932F
:10080000DF93CF93CDB7DEB7C657D0400FB6F8947D
:10081000DEBF0FBECDBFA79AAF9A9FEF9BBB80EB09
:1008200088BB80EC87BB95BB92BB0E94420F88E0DF
:1008300085BD87E085BD8CE683BD80E889BF78945F
:1008400081E79FE090935F0180935E0188EC93E0E5
:100850000E94F40F8BEB93E00E94F40F00D000D0C5
:100860008AEA93E0ADB7BEB712969C938E93119728
:1008700084EA93E014969C938E9313970E9436100B
:1008800087B3806B87BBC49A8DB180658DB92224F4
:1008900033242101E7961FAEE797BDE2E696BFAF8E
:1008A000E697E1E1E596EFAFE597F5E1E496FFAF76
:1008B000E4972AE0E3962FAFE3978AED97E0E2967C
:1008C0009FAF8EAFE2970F900F900F900F908AEB33
:1008D000682E84E0782E8DE00E94E30F8EE30E9464
:1008E000E30F7B826A82C30160E870E00E94BE036E
:1008F000AA81BB81FD018191FB83EA83843661F08B
:10090000853618F4823639F7D1C1863609F427C303
:10091000843709F70C94990E11968C913196FB83CC
:10092000EA83893609F47DC0833709F49DC0843693
:1009300091F68E010E5F1F4FC801BE01625F7F4FAF
:100940000E949410882339F2C801BE016E5E7F4F69
:100950000E949410882321F42A8A3B8A4C8A5D8A5B
:100960002A893B894C895D898E8566EB73E001E0BD
:100970000E944933282F882379F000D000D0EDB7AA
:10098000FEB7319683EA93E0ADB7BEB712969C935B
:100990008E931197228360C08A889B88AC88BD881B
:1009A00000D000D000D087E993E0EDB7FEB7928386
:1009B0008183ADB7BEB713968D929D92AD92BC92D6
:1009C00016970E94361006EBC02E03E0D02EEE24C0
:1009D000FF248701EDB7FEB736960FB6F894FEBF39
:1009E0000FBEEDBFC601B801A70120E10E94BF0202
:1009F00020E130E0C20ED31E80E190E0A0E0B0E044
:100A0000E80EF91E0A1F1B1F96EBC91695E0D906C2
:100A100049F7140125010894211C311C411C511C6B
:100A20005ACFCE010296BE01625F7F4F0E949410A2
:100A3000882309F450CF8E850E94823200D000D0E6
:100A4000EDB7FEB7319620E933E0ADB7BEB71296E9
:100A50003C932E931197828313820E9436100F903D
:100A60000F900F900F9037CFCE010296BE01625FBC
:100A70007F4F0E949410882309F42DCF8E8561E06A
:100A8000AE014E5E5F4F0E9411348823E1F400D026
:100A900000D000D087E793E0EDB7FEB79283818363
:100AA0008A899B89AC89BD8983839483A583B68316
:100AB0000E9436102DB73EB72A5F3F4F0FB6F8940D
:100AC0003EBF0FBE2DBF8E8562E0AE014C5F5F4F13
:100AD0000E9411348823B1F400D000D086E693E060
:100AE000ADB7BEB712969C938E9311978C819D8162
:100AF00014969C938E9313970E9436100F900F902C
:100B00000F900F908E8563E0AE014E5E5F4F0E94A6
:100B100011348823E1F400D000D000D08CE493E0BD
:100B2000EDB7FEB7928381838A899B89AC89BD89A1
:100B300083839483A583B6830E9436102DB73EB776
:100B40002A5F3F4F0FB6F8943EBF0FBE2DBF8E8574
:100B50006AE0AE014F5F5F4F0E9411348823B1F409
:100B600000D000D0EDB7FEB731968DE393E0ADB77E
:100B7000BEB712969C938E931197898182831382BC
:100B80000E9436100F900F900F900F908E856BE0A3
:100B900046EB53E00E941134882369F487E393E025
:100BA0000E94F40F86EB93E040E050E060E070E0DC
:100BB00020E10E94BF028E856CE046EB53E00E946C
:100BC0001134882369F481E393E00E94F40F86EBEB
:100BD00093E040E050E060E070E020E10E94BF025E
:100BE0008E856DE046EB53E00E941134882369F452
:100BF0008BE293E00E94F40F86EB93E040E050E03C
:100C000060E070E024E00E94BF028E856EE046EB5B
:100C100053E00E9411348823C9F48FE193E00E94CD
:100C2000F40F1F821E820DC0AC0160E070E08A5498
:100C30009C4F20E10E94BF028E819F8140969F833E
:100C40008E838E819F818034910570F38E8565E15E
:100C50004AEB54E00E941134882391F41092E2048C
:100C600000D000D084E193E0EDB7FEB7928381839A
:100C7000748263820E9436100F900F900F900F9035
:100C80008E8566E14AEB54E00E941134882309F016
:100C900022CE1092CE0400D000D08BE093E0ADB70E
:100CA000BEB712969C938E931197EFC711968C91B5
:100CB0003196FB83EA83863609F43EC1873630F4E9
:100CC000843659F0853609F006CE3FC0823709F4E4
:100CD000C5C0873709F0FFCDF8C0CE010296BE012E
:100CE000625F7F4F0E949410882309F4F4CD8E85B3
:100CF0009F85A889B98916EBC12E13E0D12EC80EA5
:100D0000D91E7C018D0180E290E09B878A8718C004
:100D1000C601B801A70120E10E94BF028A859B8518
:100D200001979B878A878A819B8140969B838A83D0
:100D300080E190E0A0E0B0E0E80EF91E0A1F1B1F62
:100D40008A859B85892B21F7C6CD8E010E5F1F4FAB
:100D5000C801BE01625F7F4F0E949410882309F48E
:100D6000BACDB2E1EB2EF12CEC0EFD1EC801B7019D
:100D70000E9494108823C9F0680187018E859F85A1
:100D8000A889B989FC01EA54FC4F2A89208301967D
:100D9000A11DB11D8E879F87A88BB98BC601B80195
:100DA0000E949410882351F796CD680187012E8503
:100DB0003F854889598900D000D000D0EDB7FEB7F3
:100DC0003196A0E0AA2EA3E0BA2EADB7BEB7129618
:100DD000BC92AE92119733832283C9018A549C4FEF
:100DE000DC018C91848315820E943610EDB7FEB72A
:100DF00036960FB6F894FEBF0FBEEDBF8AEB94E0B7
:100E000060E870E00E94BE037B826A828091BA042F
:100E10008E3209F460CD803228F48E859F85A889B2
:100E2000B9890FC0C601B8010E949410882389F0C7
:100E30008E859F85A889B989FC01EA54FC4F2A89CF
:100E400020830196A11DB11D8E879F87A88BB98B2A
:100E5000AECF8BEF92E00E94F40FA9CF8E010E5F10
:100E60001F4FC801BE01625F7F4F0E94941088230C
:100E700009F431CDC801BE016E5E7F4F0E9494100F
:100E8000882309F428CDC801BE016A5E7F4F0E9405
:100E90009410882341F481E090E0A0E0B0E08E8BD4
:100EA0009F8BA88FB98F2A893B894C895D898E8554
:100EB00066EB73E00E890E94493300D000D0EDB795
:100EC000FEB7319624EF32E0C0CD8E010E5F1F4F8A
:100ED000C801BE01625F7F4F0E949410882309F40D
:100EE000FACCC801BE016E5E7F4F0E949410882329
:100EF00009F4F1CCC801BE016A5E7F4F0E949410D4
:100F0000882341F481E090E0A0E0B0E08E8B9F8BDD
:100F1000A88FB98F2A893B894C895D898E8566EBBC
:100F200073E00E890E94A13300D000D0EDB7FEB768
:100F300031962DEE32E089CDCE010296BE01625F80
:100F40007F4F0E949410882309F4C5CC6E8586EBF0
:100F500093E070E040E051E00E942B36BCCC11964B
:100F60008C913196FB83EA8390E0FC01E156F040DE
:100F7000E831F10508F0AFCCE65DFF4FEE0FFF1F43
:100F80000590F491E02D0994CE010296BE01625FB6
:100F90007F4F0E949410882309F49DCC8E859F85F5
:100FA000A889B98922E332E0829FB001839F700D46
:100FB000929F700D112468597E4F0E94B111B5C6E1
:100FC0003196FB83EA83EA81FB8180818032C1F321
:100FD000CF01BE016E5E7F4FAE01445F5F4F0E9446
:100FE000CE2E882309F0A1C64C855D85EDB7FEB7EE
:100FF000B0970FB6F894FEBF0FBEEDBF2DB73EB74A
:101000002F5F3F4F73E2A72E72E0B72EB282A1820C
:10101000DA01EC91F0E0E370F070EC59FF4F808161
:10102000F9018283138212968C9190E0A0E0B0E0E7
:1010300069E0880F991FAA1FBB1F6A95D1F78483A7
:101040009583A683B783DA0113968C9113978087D3
:10105000118618968D919C911997938782875E9639
:101060008D919D910D90BC91A02D84879587A68729
:10107000B787FA01828D938DA48DB58D0297A10952
:10108000B109F901808B918BA28BB38BFA0182A1FC
:1010900093A1A4A1B5A1F901848B958BA68BB78BE5
:1010A000FA0186A197A1A0A5B1A5F901808F918F22
:1010B000A28FB38FFA0182A593A5A4A5B5A5F901C6
:1010C000848F958FA68FB78F0E9436101092B10330
:1010D0001092B0031092B3031092B2031092B604B0
:1010E0001092B7041092B8041092B9042DB73EB70D
:1010F000205E3F4F0FB6F8943EBF0FBE2DBF8A81D2
:101100009B810E942903882309F00FC6EC85FD8589
:10111000E280E6948DB79EB742970FB6F8949EBFD3
:101120000FBE8DBFCDB6DEB60894C11CD11C55EDE7
:10113000A52E51E0B52EADB7BEB71296BC92AE92B9
:1011400011978091B2039091B303D60113969C93AB
:101150008E9312972091B6043091B7044091B80451
:101160005091B90414962D933D934D935C9317972A
:101170008091B0039091B10319969C938E93189728
:10118000FF2400E010E0228D338D448D558D2250D8
:10119000304040405040C801B7010E94CF35F601B1
:1011A00062877387848795872A893B894C895D8903
:1011B000C801B7010E94CF35D6011E966D937D936D
:1011C0008D939C9351970E943610EDB7FEB772969F
:1011D00043C13196FB83EA83EA81FB8180818032BF
:1011E000C1F38E01065E1F4FC801BF010E94752525
:1011F000882309F09AC5198618861F821E821E86CA
:101200001F86188A198A6801C6016AE973E00E947C
:10121000E127882309F0BBC08091A303882309F448
:10122000B6C08091A20384FF06C088859985019687
:101230009987888719C08E819F8101969F838E83AD
:101240008E859F85A889B98920919A0330919B0347
:1012500040919C0350919D03820F931FA41FB51FC3
:101260008E879F87A88BB98B8091A20384FD04C0D1
:101270004DE2E42EF12C03C034E4E32EF12C80FD8A
:1012800003C00DE210E002C002E510E081FD04C0E1
:101290002DE2822E912C03C098E4892E912C82FDA0
:1012A00003C06DE270E002C063E570E085FD03C03D
:1012B0008DE290E002C081E490E020919E033091A5
:1012C0009F034091A0035091A103ADB7BEB75C97B7
:1012D0000FB6F894BEBF0FBEADBFEDB7FEB73196E7
:1012E0000F2EFAEAAF2EF1E0BF2EF02D1296BC922F
:1012F000AE921197F382E2821583048397828682ED
:101300007187608793878287C901892F992786957E
:101310008454984F95878487C90165E09695879591
:101320006A95E1F78F709070978786872F7130707C
:10133000318B208B852F869586958695828B138A97
:1013400005E0569547950A95E1F74F735070558B18
:10135000448B80919A0390919B03A0919C03B09140
:101360009D03868B978BA08FB18F23EA33E0338F59
:10137000228F0E9436108DB79EB74C960FB6F89408
:101380009EBF0FBE8DBF8AE00E94E30F3DCFADB779
:10139000BEB71A970FB6F894BEBF0FBEADBFEDB77C
:1013A000FEB7319611E8A12E11E0B12E1296BC9233
:1013B000AE9211978E819F81938382838E859F85C4
:1013C000A889B98984839583A683B78388859985FD
:1013D000918780870E9436102DB73EB7265F3F4F1A
:1013E0000FB6F8943EBF0FBE2DBF8A819B81BE0110
:1013F000625F7F4FAE01445F5F4F0E94CE2E882315
:1014000009F069CA00D000D000D0ECE6F1E0ADB739
:10141000BEB71296FC93EE931197EC85FD85628121
:1014200070E080E090E02E853F85488959890E94D0
:10143000CF3522E030E040E050E00E941036ADB7FA
:10144000BEB713962D933D934D935C9316970E94D0
:101450003610EDB7FEB736960FB6F894FEBF0FBE46
:10146000EDBF39CACE010296BE01625F7F4F0E9476
:101470009410882309F42FCA03C03196FB83EA83B2
:10148000EA81FB8180818032C1F3CE01C096BF0129
:101490004E850E94AC2D49C4CE01C0960E94C71A49
:1014A00044C4CE010296BE01625F7F4F0E94941039
:1014B000882309F410CA4E855F8568897989CE0131
:1014C000C0960E94811F182F0E949002112309F0DC
:1014D00002CA8EA99FA9A8ADB9AD2DB73EB72A50B3
:1014E00030400FB6F8943EBF0FBE2DBF4DB75EB76C
:1014F0004F5F5F4F29E531E0EDB7FEB732832183BF
:10150000FA0182839383A483B583A4C1CE0102969A
:10151000BE01625F7F4F0E949410882309F4DBC9EB
:101520001A8A1B8A1C8A1D8A1092B5031092B40372
:10153000E12C71E0F72E8E01005D1F4F3CC08F3F04
:101540009105A105B10561F05CF0FB86EA8680504B
:101550009140A040B0408E879F87A88BB98B06C072
:101560009B878A871E861F86188A198A4A855B850B
:10157000C80166EB73E09E01285F3F4F0E94C82FB1
:10158000882319F00E9490021FC0688579859B010D
:1015900040E050E08A899B89AC89BD89820F931F06
:1015A000A41FB51F8A8B9B8BAC8BBD8B8A859B85BB
:1015B0008617970749F48E859F85A889B989009772
:1015C000A105B10509F0BBCF0091B4031091B5039B
:1015D00019870887CA88DB88EC88FD880115110502
:1015E00029F420E030E040E050E011C0C701B6012E
:1015F00024E630E040E050E00E94CF35980140E022
:1016000050E00E941036C901DA019C01AD018DB78E
:101610009EB70A970FB6F8949EBF0FBE8DBFEDB769
:10162000FEB7319685E391E0ADB7BEB712969C93B5
:101630008E931197C282D382E482F5822683378308
:10164000408751870E943610EDB7FEB73A9604CF17
:10165000CE010296BE01625F7F4F0E9494108823E4
:1016600009F439C9EEA8FFA808AD19AD60E1862ECE
:10167000912C50E3A52EB12CAC0EBD1E4AE0C42E19
:10168000D12CCC0EDD1E34C080319105A105B105F1
:1016900054F09B868A864097A109B1098E879F875F
:1016A000A88BB98B06C09B878A871E861F86188ADF
:1016B000198A4A855B85C50166EB73E096010E9435
:1016C000C82F882309F031C32A853B8521153105B0
:1016D00009F401C986EB93E0B801A7010E94BF029B
:1016E00080E190E0A0E0B0E0E80EF91E0A1F1B1FA9
:1016F0008E859F85A889B9890097A105B10521F636
:10170000EAC88E010E5F1F4FC801BE01625F7F4FA6
:101710000E949410882309F4DEC8C801BE016E5EE1
:101720007F4F0E949410882309F4D5C86A8986EBFC
:1017300093E070E040E051E00E942B361A8A1B8A49
:101740001C8A1D8A1092B5031092B403E12C31E07B
:10175000F32E8E01005D1F4F3CC08F3F9105A10508
:10176000B10561F05CF0FB86EA8680509140A040B4
:10177000B0408E879F87A88BB98B06C09B878A87CE
:101780001E861F86188A198A4A855B85C80166EB02
:1017900073E09E01285F3F4F0E94FB29882319F0C8
:1017A0000E9490021FC0688579859B0140E050E04F
:1017B0008A899B89AC89BD89820F931FA41FB51F9D
:1017C0008A8B9B8BAC8BBD8B8A859B8586179707F5
:1017D00049F48E859F85A889B9890097A105B1052F
:1017E00009F0BBCF0091B4031091B50319870887A6
:1017F000CA88DB88EC88FD880115110529F480E092
:1018000090E0A0E0B0E00FC0C701B60124E630E0F0
:1018100040E050E00E94CF35980140E050E00E9447
:101820001036C901DA01EDB7FEB73A970FB6F89452
:10183000FEBF0FBEEDBF4DB75EB74F5F5F4F2EE0EF
:10184000A22E21E0B22EB282A182FA01C282D382FC
:10185000E482F58286839783A087B1870E94361041
:101860002DB73EB7265F3F4F0FB6F8943EBF0FBE71
:101870002DBF31C8CE01C0960E94F41E56C23196CB
:10188000FB83EA83EA81FB8180818032C1F3CF014F
:1018900060E270E00E943236009709F41CC8FC0137
:1018A000119201C0319680818032E1F38A819B815F
:1018B000BF010E94822639C23196FB83EA83EA8106
:1018C000FB8180818032C1F3CF010E9447292DC264
:1018D0003196FB83EA83EA81FB8180818032C1F308
:1018E000CF010E94312C21C28E010E5F1F4FC80113
:1018F000BE01625F7F4F0E949410882311F40C9404
:101900006B04C801BE016E5E7F4F0E949410882355
:1019100011F40C946B0403C03196FB83EA83EA81D3
:10192000FB8180818032C1F3CF016E854A890E949C
:10193000E024FBC18E010E5F1F4F8EE0A82EB12C5C
:10194000AC0EBD1EC801B5010E949410882311F48D
:101950000C946B04B2E1CB2ED12CCC0EDD1EC80151
:10196000B6010E949410882311F40C946B04A6E134
:10197000EA2EF12CEC0EFD1EC801B7010E94941056
:10198000882311F40C946B048E859F85A889B989EE
:101990008C5B9740A040B040F9E0880F991FAA1FC8
:1019A000BB1FFA95D1F72A893B894C895D892F7035
:1019B000307040705070E5E0220F331F441F551FF8
:1019C000EA95D1F7822B932B2E893F892F713070A6
:1019D000822B932B90939F0380939E03C801B501A4
:1019E0000E949410882311F40C946B04C801B60172
:1019F0000E949410882311F40C946B04C801B70161
:101A00000E949410882311F40C946B048A899B899A
:101A1000AC89BD898F739070A070B07075E0880F2D
:101A2000991FAA1FBB1F7A95D1F72E893F89488D30
:101A3000598D55954795379527952F713070282BDF
:101A4000392B8E859F85A889B9894BE0880F991F0E
:101A5000AA1FBB1F4A95D1F7282B392B3093A1031E
:101A60002093A00303C03196FB83EA83EA81FB81C4
:101A700080818032C1F3CF016AE973E00E948D2436
:101A800054C13196FB83EA83EA81FB8180818032F5
:101A9000C1F3CF0160E270E00E943236009711F48A
:101AA0000C946B04DC011D928D0102C00F5F1F4F6F
:101AB000F80180818032D1F300D000D0E1E0F1E084
:101AC000ADB7BEB71296FC93EE9311978A819B81B6
:101AD00014969C938E9313970E9436100F900F903C
:101AE0000F900F9030E3E32EF12CEC0EFD1E6A8177
:101AF0007B81C70141E00E94AC2D882309F015C10C
:101B000000D000D0E2EFF0E0ADB7BEB71296FC9384
:101B1000EE93119714961C930E9313970E94361010
:101B20000F900F900F900F90CE01805B9F4FB801E8
:101B30004AE00E94AC2D882321F00E949002C70148
:101B400072C000D0E6EEF0E0ADB7BEB71296FC93DF
:101B5000EE9311970E9436101E861F86188A198AE6
:101B60000F900F908701C80166EB73E040E051E0F1
:101B70009E012A5F3F4F0E94C82F682F882349F596
:101B80004E815F814115510539F1CE01805B9F4F38
:101B900066EB73E09E01285F3F4F0E94FB29682F90
:101BA000E885F9859F0140E050E08E859F85A889F2
:101BB000B989820F931FA41FB51F8E879F87A88B9B
:101BC000B98B662331F48E819F81E817F90758F6A7
:101BD00003C0862F0E94900200D000D000D0E2ED1A
:101BE000F0E0ADB7BEB71296FC93EE9311978E85D9
:101BF0009F85A889B989EDB7FEB783839483A583B0
:101C0000B6830E9436102DB73EB72A5F3F4F0FB6FE
:101C1000F8943EBF0FBE2DBFCE01C0960E94C71ADA
:101C2000CE01805B9F4F0E94C71A0C946B043196C3
:101C3000FB83EA83EA81FB8180818032C1F3CF019B
:101C40000E94D52572C0CE010296BE01625F7F4F11
:101C50000E949410882311F40C946B048E850E94CA
:101C6000C61163C08AEB94E060E870E00E943328FC
:101C7000882309F05AC000D000D0E0E6F0E0ADB70C
:101C8000BEB71296FC93EE93119714967C926E92C7
:101C900013970C942D058E010E5F1F4FC801BE01D6
:101CA000625F7F4F0E949410882311F40C946B04A0
:101CB000C801BE016E5E7F4F0E949410882311F40C
:101CC0000C946B04C801BE016A5E7F4F0E949410A1
:101CD000882311F40C946B0400D000D0EDE9F0E0FF
:101CE000ADB7BEB71296FC93EE9311978E859F8584
:101CF00014969C938E9313970E9436100F900F901A
:101D00000F900F908A819B8160E870E00E94BE0373
:101D1000EA81FB818081893511F00C946B044E8936
:101D20005F898E856A890E94CE110E9490020C9470
:101D30006B048E010E5F1F4F2EE0E22EF12CEC0E95
:101D4000FD1EC801B7010E949410882391F1AE8452
:101D5000BF84E296BFAEAEAEE297C801B7010E9463
:101D60009410BE84E396BFAEE397C801B7010E940A
:101D700094102E85E4962FAFE497C801B7010E9416
:101D800094103E85E5963FAFE597C801B7010E94E4
:101D900094108E85E6968FAFE697C801B7010E9432
:101DA0009410882311F40C946B049E85E7969FAFE2
:101DB000E797ADB7BEB71E970FB6F894BEBF0FBE7C
:101DC000ADBFEDB7FEB7319684E890E012969C93D4
:101DD0008E931197E296AEACBFACE297B382A2822B
:101DE000E396BFACE397B4821582E4962FADE497F7
:101DF00026831782E5963FADE59730871186E696F4
:101E00008FADE69782871386E7969FADE797948715
:101E100015860E943610ADB7BEB71E960FB6F89461
:101E2000BEBF0FBEADBF0C946B041F920F920FB6D6
:101E30000F9211242F933F934F935F936F937F9350
:101E40008F939F93AF93BF93EF93FF938091B403CE
:101E50009091B50301969093B5038093B4030E94CB
:101E6000B235FF91EF91BF91AF919F918F917F918B
:101E70006F915F914F913F912F910F900FBE0F90F7
:101E80001F90189510921C0110921B0110921D01B9
:101E90001092D9001092D8001092DA0085E089B92A
:101EA00088E98AB9089580911D01089590911C01D7
:101EB00080911D018823E1F3E92FF0E0E55EFE4FFC
:101EC0002381E92FEF5FF89480911D018150809369
:101ED0001D017894E03408F0E0E0E0931C01822FCB
:101EE0000895282F9091D8008091DA008034E0F78F
:101EF000E92FF0E0E852FF4F2383E92FEF5FF894DA
:101F00008091DA008F5F8093DA0088EB8AB9789449
:101F1000E03408F0E0E0E093D80008951F920F92BB
:101F20000FB60F9211248F939F93EF93FF939CB161
:101F300080911D01803480F48F5F80931D0180911A
:101F40001B01E82FF0E0E55EFE4F93838F5F803446
:101F500008F080E080931B01FF91EF919F918F919A
:101F60000F900FBE0F901F9018951F920F920FB6F3
:101F70000F9211242F938F939F93EF93FF93809150
:101F8000DA008823A1F0282F21502093DA008091D5
:101F9000D900E82FF0E0E852FF4F93819CB98F5FA2
:101FA000803408F080E08093D900222311F488E97E
:101FB0008AB9FF91EF919F918F912F910F900FBE52
:101FC0000F901F9018958A3019F48DE001D08AE0A7
:101FD000FF93EF93E0915E01F0915F01309709F07C
:101FE0000995EF91FF910895FC018591803011F0E2
:101FF000EADFFBCF0895FF27E0E230E247FF0CC0A5
:10200000419597FF09C0EDE2609570958095909598
:10201000611D711D811D911D27FF02C0219530E3B7
:1020200050E2AA27660F771F881F991FAA1FA417BF
:1020300010F0A41B63955A95A9F7AA3008F0A95F80
:10204000A05DAF93F395611571058105910541F789
:10205000ED3211F4EF93F395F21718F43F93F395E3
:10206000FBCF8F91B0DFFA95E1F70895DF93CF931F
:10207000CDB7DEB72596E991F9918591803021F0B1
:10208000853229F0A0DFF9CFCF91DF91089520E0CC
:10209000E89455915532B1F3503311F46894559149
:1020A0005A3348F4505380F3220F022E220F220F8E
:1020B000200D250FF4CF0EF4219589919991533677
:1020C00009F3533729F1533559F1BC018827992772
:1020D000E8945C3621F4899199916894559154362D
:1020E00039F446EF7EF077FF0DC08FEF9FEF0AC007
:1020F00055374AE039F0583540E121F0523642E098
:1021000009F0C2CFFF93EF9376DFEF91FF91B5CF48
:10211000FF93EF93FC0181918030B9F354DFFBCF43
:10212000FF93EF9361DFF1CF0B01DC01ED91FD91A6
:102130002227332744275527E8949AE001C0319697
:1021400060816032E1F3A8F16D3211F46894F7CF49
:102150006A3378F5603368F171F498E03196608104
:10216000613248F1623611F492E003C0683719F425
:1021700090E1319660816132F0F0613608F0605292
:102180006053B8F06A3018F067506A3090F0691701
:1021900080F481E2771B08F4790F7695579547957F
:1021A000379527958A95B9F7260F381F481F581F6E
:1021B000E0CF80E001C081E04EF4662720953095A5
:1021C00040955095261F361F461F561FFE93EE93CF
:1021D000D0012D933D934D935D93112408950F935A
:1021E0001F93CF93DF938C01EB01BA0120E030E025
:1021F0000EC0F801E20FF31FDE01A20FB31F8D9195
:102200009C9191838083425050402E5F3F4F4230DB
:10221000510578F7CB018E7FDE01A80FB91FF801B9
:10222000E80FF91F60FF02C08C918083DF91CF918E
:102230001F910F910895EF92FF920F931F93CF93E9
:10224000DF93EC017A018B018EEF9FEFAFEFBFEFD1
:10225000E80EF91E0A1F1B1F8A8D9B8DAC8DBD8D4C
:102260000297A109B109E816F9060A071B0728F029
:1022700020E030E040E050E012C02A8130E040E051
:1022800050E0C801B7010E94CF359B01AC018AA57F
:102290009BA5ACA5BDA5280F391F4A1F5B1FB9011F
:1022A000CA01DF91CF911F910F91FF90EF90089598
:1022B000CF93DF93FC01AB01EB01299686859785CF
:1022C000A089B1890097A105B10509F446C022890A
:1022D000338980E090E0F901E80FF91FE081E032F6
:1022E00041F0E53009F4E5EEE99301968830910577
:1022F00091F7D90118968C91803211F4FE0111C02A
:10230000FE018EE28193D901BE016C5F7F4F18966A
:102310008C911897803229F081931196E617F70770
:10232000B1F7E9018B85DA0118968C938C8D9D8D20
:10233000AE8DBF8DEA0188839983AA83BB83D901BF
:1023400058968D919C9159979D838C8356968D912B
:102350009C9157979F838E83EF011882DF91CF91D5
:102360000895DB01882311F08BE00895E09160016E
:10237000F0916101309709F01082109709F01C92DA
:10238000B0936101A093600180E00895882311F06B
:102390008BE008951092640180E008952F923F929F
:1023A0004F925F926F927F928F929F92AF92BF9265
:1023B000CF92DF92EF92FF920F931F93DF93CF9311
:1023C000CDB7DEB7A8970FB6F894DEBF0FBECDBF6E
:1023D0006CA38A01882311F08BE056C460906001E1
:1023E000709061016114710411F48CE04DC4D3014B
:1023F0001C9280E00E94823280FF02C083E044C4CD
:1024000082FF02C08AE040C480E061E0AE014B5F21
:102410005F4F0E941134882309F033C46D817E819F
:102420008F819885603871058105910508F429C46C
:10243000BCA1BB2351F42FE3C22ED12CE12CF12CF3
:10244000CD8ADE8AEF8AF88E04C01D8A1E8A1F8A12
:10245000188E9B01AC01CD88DE88EF88F88C2C1992
:102460003D094E095F0928A339A34AA35BA3C8010C
:10247000019780239123892B19F40115110519F572
:1024800068A179A18AA19BA120ED37E040E050E04E
:102490000E94EE3579018A0121EC30E0E0E0F0E0C5
:1024A00001C03196D9018D919D919D01A0E0B0E0D0
:1024B000E816F9060A071B07A0F3EE0FFF1FE55504
:1024C000FF4F008111814801892C99248694811441
:1024D000910419F4F1E08F2E912C6401EE24FF2475
:1024E000CC8EDD8EEE8EFF8E68A179A18AA19BA194
:1024F000A70196010E94EE35C901DA01863F2FE05F
:10250000920720E0A20720E0B20750F0863F3FEF9D
:10251000930730E0A30730E0B30708F0CEC3F6C35B
:102520009C01AD01220F331F441F551F280F391F77
:102530004A1F5B1F2F5F3F4F4F4F5F4F5695479589
:10254000379527952D5F3F4F4F4F5F4F81E0898F24
:102550006FEF262E61E0362E412C512C220E331EB9
:10256000441E551E59E056944794379427945A9523
:10257000D1F741E0C42ED12CE12CF12CCD86DE86A2
:10258000EF86F88A20E230E040E050E029873A8781
:102590004B875C878D859E85AF85B889CD88DE8821
:1025A000EF88F88C8C0D9D1DAE1DBF1D898B9A8BFD
:1025B000AB8BBC8BA984BA84CB84DC84A20CB31C07
:1025C000C41CD51CA80EB91ECA1EDB1E8C8D9D8D89
:1025D000AE8DBF8D8A0D9B1DAC1DBD1D28A139A1DF
:1025E0004AA15BA1281739074A075B0708F44BC3C8
:1025F0002D833E834F83588780E063E0AE014F5FB9
:102600005F4F0E941134882369F489819A81AB81DC
:10261000BC810097A105B10529F081509048A040E8
:10262000B04040F081E090E0A0E0B0E089839A8380
:10263000AB83BC8389819A81AB81BC817C018D0194
:102640000894E108F10801091109EA0CFB1C0C1DB2
:102650001D1DB095A095909581959F4FAF4FBF4F91
:10266000E822F9220A231B23EA18FB080C091D099A
:10267000498D4330C9F48D859E85AF85B8898E0D0F
:102680009F1DA01FB11F8D879E87AF87B88B29899B
:102690003A894B895C892E0D3F1D401F511F298BA4
:1026A0003A8B4B8B5C8B04C02E0C3F1C401E511E82
:1026B000AD80BE80CF80D884C601B5012D853E8512
:1026C0004F855889621B730B840B950B6219730934
:1026D0008409950929853A854B855C85621B730BB6
:1026E000840B950B2C8D3D8D4E8D5F8D0E94EE35AC
:1026F0002DA33EA34FA358A7398D323051F48DA19D
:102700009EA1AFA1B8A5865F9F40A040B04070F4E5
:10271000BAC2F98DF33051F42DA13EA14FA158A5B5
:10272000265F3F4F4040504008F4ADC2E982FA8234
:102730000B831C839CA1992311F010EF85C04D8958
:102740005E896F89788D4A0D5B1D6C1D7D1D32E39E
:10275000E32EF12CE60CF71CF70120E032E001C07B
:10276000119221503040AFEF2F3F3A07C9F7830154
:1027700000511E4F80E891E0A1E0B0E0F8018083B5
:102780009183A283B3834030F4E05F07FBEF6F07D0
:10279000F0E07F07B0F4CB01BA0121EC3EE340E06A
:1027A00050E00E94EE35C901DA01F801278322E0EA
:1027B000B695A795979587952A95D1F78F638683C8
:1027C00005C0D80117963C932E9316978EEFF8010B
:1027D0008583F98DF33081F08D819E81AF81B8853D
:1027E00080509040A140B04010F086E001C084E0ED
:1027F000D80114968C9303C08CE0F80184838FE396
:1028000090E0A0E0B0E0F80180879187A287B387CD
:102810008D819E81AF81B88584879587A687B7878C
:10282000005C1F4F85E59AEAD8018D939C9380E068
:10283000B70120E030E040E050E001E00E94A13329
:10284000882309F01EC218EFE2E3EE2EF12CE60C0D
:10285000F71CF70180E092E001C011920197BFEFF1
:102860008F3F9B07D1F7C70168E670E04BE050E06F
:102870000E94EF1080E092E0F70194878387D301F4
:10288000DF968C92CD84DE84D786C68622E430E043
:10289000620E731E81E0D3018C93EEEBFFEF6E0EA0
:1028A0007F1EF98DF33019F080E092E002C080E0E5
:1028B00090E0D70152969C938E9351978D819E8183
:1028C000AF81B8858030E0E09E07E1E0AE07E0E050
:1028D000BE0720F4F701948B838B05C0F70180A31A
:1028E00091A3A2A3B3A377E4C72ED12C6C0C7D1CBB
:1028F000D3011C93E9EBFFEF6E0E7F1E8FE390E098
:10290000D70159969C938E9358978FEF90E05B96E2
:102910009C938E935A972D893E894F89588D5C964A
:102920002D933D934D935C935F970E948B02698337
:102930007A838B839C83B98DB33009F03FC0E3E485
:10294000F0E0EE0EFF1ED7016D937D938D939C9367
:102950001397EDEBFFEFEE0EFF1ED70194962D922D
:102960003D924D925C92979782E090E0A0E0B0E0BB
:10297000F70184A795A7A6A7B7A781E090E091AB40
:1029800080AB86E090E093AB82AB62E7C62ED12CA1
:102990006C0C7D1C80E8D3018C93E2E0F0E06E0EBD
:1029A0007F1E89E2D3018C93ECE8FFEF6E0E7F1E51
:1029B000C701895B9F4F64E770E021C0D7019796FC
:1029C0006D937D938D939C939A9757963C922E92FC
:1029D0005697E6E5F0E06E0E7F1E80E8D3018C93FB
:1029E000E2E0F0E06E0E7F1E89E2D3018C93E8EA0C
:1029F000FFEF6E0E7F1EC7018B9668E870E043E123
:102A000050E00E94EF10970122503E4F3B8F2A8FDB
:102A100085E59AEAD9018D939C9380E0B7012D89D1
:102A20003E894F89588D01E00E94A133882309F027
:102A300028C1B98DB33059F42D893E894F89588DFD
:102A40002A5F3F4F4F4F5F4FB7010E94A133F701FD
:102A500080E092E001C0119201972FEF8F3F920723
:102A6000D1F7212F30E040E050E0898D8330C9F06C
:102A7000813029F080E09FEFAFEFBFEF04C080E02E
:102A80009FEFAFEFB0E0822B932BA42BB52B898364
:102A90009A83AB83BC83F30182AB93ABA4ABB5AB9E
:102AA0001FC0DA01C9019F6FAF6FBF6F89839A831F
:102AB000AB83BC83F30182AB93ABA4ABB5AB8FEF1D
:102AC0009FEFAFEFBFEFF70184839583A683B783B2
:102AD0008FEF9FEFAFEFBFE080879187A287B3872B
:102AE00080E0B70129893A894B895C8901E00E941D
:102AF000A133882309F0C5C0F70180E092E001C04E
:102B0000119201972FEF8F3F9207D1F7A988BA88CA
:102B1000CB88DC880894A11CB11CC11CD11C81E0AD
:102B200090E0A0E0B0E016C080E0B701A6019501FA
:102B300001E00E94A133882309F0A3C00894A11CDE
:102B4000B11CC11CD11C89819A81AB81BC810196C9
:102B5000A11DB11D89839A83AB83BC8389819A812E
:102B6000AB81BC8182159305A405B505E8F2398DCA
:102B7000333011F089849A84150126010894211CB0
:102B8000311C411C511C80E0B701A601950101E0F8
:102B90000E94A133882309F074C008948108910829
:102BA0008114910419F062015101E6CF498D43303F
:102BB00009F05FC085E59AEAAA8DBB8D8D939C9341
:102BC00082E592E5A1E6B1E4F30182AB93ABA4AB5D
:102BD000B5AB54EEC52E51E0D52EEC0CFD1C82E7B2
:102BE00092E7A1E4B1E6F70181939193A193B193A8
:102BF0002DA13EA14FA158A521503040404050404A
:102C0000DF012D933D934D935D937D018FEF9FEFFA
:102C1000AFEFBFEFF70180839183A283B38344E1D9
:102C2000C42E4EEFD42EEC0CFD1C2D893E894F890D
:102C3000588D2F5F3F4F4F4F5F4F2D8B3E8B4F8BEC
:102C4000588F80E0B70101E00E94A1338D899E89F1
:102C5000AF89B88D0696A11DB11D8D8B9E8BAF8B54
:102C6000B88F80E0B7012D893E894F89588D0E9429
:102C7000A13380E060E040E050E00E9411348823FE
:102C800019F081E001C08EE0A8960FB6F894DEBF7F
:102C90000FBECDBFCF91DF911F910F91FF90EF90AD
:102CA000DF90CF90BF90AF909F908F907F906F906C
:102CB0005F904F903F902F9008951C012D0132E0BE
:102CC000220C331C441C551C3A95D1F727E0C22E28
:102CD00022E0D22EE12CF12C2C0C3D1C4E1C5F1C52
:102CE00099E056944794379427949A95D1F720E227
:102CF00030E040E050E02D873E874F87588B1986A3
:102D00001A861B861C8633E0398F44CC9C01AD01AA
:102D10002E5F3F4F4F4F5F4F220F331F441F551FF2
:102D200082E015CCFC01009789F08081882371F046
:102D3000868197818617970749F481810E944233E3
:102D400080FD02C080E0089583E0089589E0089541
:102D50000F93CF93DF93EC019A01AB01BC016E5C42
:102D60007F4F898101E00E944933882311F023E0DD
:102D700029C0C05DDD4F88819981C053D2408555FF
:102D80009A4A11F022E01EC0C859DF4F888199810C
:102D9000AA81BB81C856D040B07086549144A445E6
:102DA000B04011F420E00EC020E0CC57DF4F888106
:102DB0009981AA81BB81B07086549144A445B040EA
:102DC00009F021E0822FDF91CF910F9108952F928A
:102DD0003F924F925F926F927F928F929F92AF92AB
:102DE000BF92CF92DF92EF92FF920F931F93DF93E8
:102DF000CF93CDB7DEB72A970FB6F894DEBF0FBEDC
:102E0000CDBFDC01142FED91FC9111978081282F0B
:102E100030E0205330402A30310538F481818A3344
:102E200021F43296ED93FC9304C080916401282F25
:102E300030E0232B11F08BE059C2209160013091DA
:102E400061013A872987DB012D933C93232B11F4F1
:102E50008CE04CC2E985FA858081882359F0818114
:102E60000E94423380FD06C0112309F43CC282FD5A
:102E700038C239C2A985BA851C9211961C9280E08D
:102E80000E94823280FF02C083E030C2112311F021
:102E900082FD27C289859A8540E050E060E070E0BD
:102EA0000E94A816813021F022243324210112C06F
:102EB000E985FA85E051FE4F8481882309F415C223
:102EC000208431844284538489859A85B201A1018A
:102ED0000E94A816833011F481E008C2882309F00B
:102EE00004C2E985FA8585AD96AD8050924009F01F
:102EF000FCC129853A85285B3F4FD9018D919C9172
:102F00001197A854B040BA87A9875C01CC24DD246E
:102F1000A114B104C104D10459F4AA5ABF4FAD9011
:102F2000BD90CD90DC901397A655B040BA87A98785
:102F3000E985FA85A68EB78EC0A2D1A2EE5BFF4FBF
:102F40004081E254F040FA87E9874383842F81501F
:102F5000823008F0CAC127AD2283222309F4C5C1FB
:102F600030E0C901019782239323892B09F0BDC169
:102F7000ED5BFF4F80809180E354F040FA87E98752
:102F800091868086C4018F709070892B09F0ADC145
:102F9000EB5BFF4F80819181E554F040FA87E98730
:102FA0007C0100E010E0E114F1040105110551F489
:102FB000EE5AFF4FE080F18002811381E255F0402C
:102FC000FA87E98729853A85205C3F4FD9016D90C2
:102FD0007C901197A054B040BA87A98761147104FE
:102FE00009F483C1242F30E040E050E0C601B50170
:102FF0000E94CF3569837A838B839C83930140E061
:1030000050E02D833E834F835887E4E09694879465
:10301000EA95E1F75401CC24DD24A20EB31EC41EB0
:10302000D51EA60EB71EC81ED91EEA14FB040C0539
:103030001D0508F45AC1EA18FB080C091D09A985E9
:10304000BA8512962C9130E040E050E0C801B701FB
:103050000E94EE35C901DA010097A105B10509F416
:1030600044C1863FEFE09E07E0E0AE07E0E0BE0728
:1030700018F4992493940DC0863FFFEF9F07F0E06A
:10308000AF07F0E0BF0718F043E0942E02C032E033
:10309000932E22E0E22EF12C012D112DE80EF91EC7
:1030A0000A1F1B1FA985BA855A96ED92FD920D93B2
:1030B0001C935D97A20CB31CC41CD51CFD01A2A6D9
:1030C000B3A6C4A6D5A68D819E81AF81B885820D99
:1030D000931DA41DB51D82A393A3A4A3B5A320850E
:1030E0003185F3E09F16F1F4232B09F0FEC029850A
:1030F0003A85225A3F4FF90180819181A281B381A3
:10310000EE55F040FA87E98786A397A3A0A7B1A759
:10311000A8019701F2E0220F331F441F551FFA95B3
:10312000D1F733C0232B09F4E0C029813A814B81C8
:103130005C81820F931FA41FB51FE985FA8586A3C2
:1031400097A3A0A7B1A7D801C701880F991FAA1FED
:10315000BB1FF2E09F1619F49C01AD0116C09C0143
:10316000AD012E0D3F1D401F511F569547953795B8
:10317000279581E090E0A0E0B0E0E822F9220A2360
:103180001B232E0D3F1D401F511F21503E4F4F4FFF
:103190005F4F69E056954795379527956A95D1F722
:1031A000E985FA85868D978DA0A1B1A18217930735
:1031B000A407B50708F499C08FEF9FEFAFEFBFEFFB
:1031C00086879787A08BB18B128613861486158607
:1031D000B3E09B1609F065C01582EE59FF4F2081C0
:1031E0003181E256F040FA87E98740E050E0220D55
:1031F000331D441D551D228B338B448B558BBF01D2
:103200006E5C7F4F818101E00E944933882309F081
:1032100048C0E985FA85E05DFD4F80819181E053EA
:10322000F240FA87E98785559A4A09F03AC0E9855C
:10323000FA8582A993A9A4A9B5A982559245A14668
:10324000B14479F529853A852A5E3D4FF90180819F
:103250009181A281B381E651F240FA87E9878257D2
:103260009247A144B146E9F429853A85225E3D4F53
:10327000F90180819181A281B381EE51F240828770
:103280009387A487B587E65EFD4F80819181A281F7
:10329000B381EA51F240FA87E98786879787A08B46
:1032A000B18BA985BA859C9280916201909163014E
:1032B0000196909363018093620117969C938E937D
:1032C0001697E985FA8516A617A610AA11AA1482E0
:1032D000A985BA8556961D921D921D921C925997EA
:1032E00002C08AE003C080E001C08DE02A960FB6DC
:1032F000F894DEBF0FBECDBFCF91DF911F910F912C
:10330000FF90EF90DF90CF90BF90AF909F908F9005
:103310007F906F905F904F903F902F9008956F92A5
:103320007F928F929F92AF92BF92CF92DF92EF9255
:10333000FF920F931F93CF93DF93EC014A015B0140
:10334000CEA4DFA4E8A8F9A8C416D506E606F706B9
:1033500009F44EC08C818823A1F1F2E36F2E712C09
:103360006C0E7D1E8981B301A701960101E00E94C8
:10337000A1338823D9F51C828E8D9F8DA8A1B9A178
:103380002AA13BA14CA15DA1820F931FA41FB51FD1
:10339000C816D906EA06FB06A0F41B8110C08E8D64
:1033A0009F8DA8A1B9A1C80ED91EEA1EFB1E898156
:1033B000B301A701960101E00E94A1331150123020
:1033C00070F781149104A104B10491F0BE016E5C08
:1033D0007F4F8981A501940101E00E944933882330
:1033E00029F48EA69FA6A8AAB9AA03C081E001C0AD
:1033F00080E0DF91CF911F910F91FF90EF90DF90D0
:10340000CF90BF90AF909F908F907F906F900895D6
:103410000F93CF93DF93EC0140E050E060E070E069
:103420000E948F19882309F05EC08881833009F0DB
:1034300052C08D81882309F44EC01EA61FA618AA6B
:1034400019AABE016E5C7F4FFB0180E092E001C0D3
:10345000119201972FEF8F3F9207D1F7C05DDD4F9B
:1034600085E59AEA99838883C053D24082E592E544
:10347000A1E6B1E48AAB9BABACABBDABCA5EDD4FA2
:1034800082E792E7A1E4B1E688839983AA83BB83AC
:10349000C651D2408E859F85A889B989C65EDD4F09
:1034A00088839983AA83BB83CA51D2408A859B852E
:1034B000AC85BD85C25EDD4F88839983AA83BB83BB
:1034C000CE51D2402A893B894C895D89898101E0AE
:1034D0000E94A1331D82898160E040E050E00E949B
:1034E0001134811181E0DF91CF910F9108950F93F5
:1034F0001F93CF93DF93EC016A817B81888199814F
:103500000E949216982F8823E1F58C8185FF39C09F
:103510004A8D5B8D6C8D7D8D888199810E948F197C
:10352000982F882371F50E8D1F8DF8018385806299
:1035300083878A859B85AC85BD85848F958FA68F73
:10354000B78F8E859F85938F828F8E859F85A88963
:10355000B989CD01AA27BB27958B848B0E948B024A
:10356000F801668B778B808F918F8C818F7D8C8318
:10357000E881F98181E08483888199810E94081A19
:10358000982F892FDF91CF911F910F910895CF939D
:10359000DF93EC010E94771A882311F419821882B4
:1035A000DF91CF9108958F929F92AF92BF92CF9269
:1035B000DF92EF92FF920F931F93CF93DF93EC0173
:1035C0006A017B01480159014230510561057105CD
:1035D00008F4D1C08A8D9B8DAC8DBD8D48175907DD
:1035E0006A077B0708F0C7C08881823009F470C081
:1035F000833009F48CC0813011F022E0B9C08A0117
:1036000016950795040F151FA801452F55274695B8
:1036100060E070E08AA19BA1ACA1BDA1480F591F39
:103620006A1F7B1FCE010E948F19282F882309F063
:103630009FC0D801B17091E0E92EF12CEC20FD2063
:10364000E114F10451F0FE01EA0FFB1F82A98F7013
:10365000982D9295907F982B01C0982DAC0FBD1F8F
:10366000D2969C930F5F1F4F81E08C83A801452F5A
:103670005527469560E070E08AA19BA1ACA1BDA151
:10368000480F591F6A1F7B1FCE010E948F19282FD8
:10369000882309F06DC0A8015170EF2849F014E0AB
:1036A000B694A794979487941A95D1F7682D0BC078
:1036B000FE01E40FF51F62A9607FBB27AB2D9A2D99
:1036C000892D8F70682B4C0F5D1FFA0162AB50C0C3
:1036D000452F562F672F77278AA19BA1ACA1BDA1AB
:1036E000480F591F6A1F7B1FCE010E948F19282F78
:1036F000882309F03DC0CC0CDD1CEE1CFF1CF6013C
:10370000F170F296EC0FFD1F9182808231C0E7E0EC
:103710007695679557954795EA95D1F78AA19BA12C
:10372000ACA1BDA1480F591F6A1F7B1FCE010E948B
:103730008F19282F8823E1F432E0CC0CDD1CEE1C1D
:10374000FF1C3A95D1F7F601F170F296EC0FFD1FD0
:1037500080819181A281B38180709070A070B07FD0
:1037600088299929AA29BB2980839183A283B383BD
:1037700081E08C8301C022E0822FDF91CF911F91E5
:103780000F91FF90EF90DF90CF90BF90AF909F9000
:103790008F900895BF92CF92DF92EF92FF920F9396
:1037A0001F93CF93DF936C017A018B014230510557
:1037B0006105710508F4ACC0F601828D938DA48D6E
:1037C000B58D481759076A077B0708F0A1C08081AB
:1037D000823009F457C0833009F474C0813009F095
:1037E0009CC0EA01D695C795C40FD51FAE01452FE1
:1037F0005527469560E070E0F60182A193A1A4A14F
:10380000B5A1480F591F6A1F7B1FC6010E948F195F
:10381000882309F082C0FE01F170EC0DFD1DB2A8F5
:103820002196AE01452F5527469560E070E0F601E0
:1038300082A193A1A4A1B5A1480F591F6A1F7B1FA4
:10384000C6010E948F19882309F067C06B2D70E0B4
:10385000D170CC0DDD1D9AA980E0682B792BC701B2
:1038600081709070892B39F0B4E076956795BA95A0
:10387000E1F79B0124C09B0140E050E03F704070A5
:1038800050704FC0452F562F672F7727F60182A122
:1038900093A1A4A1B5A1480F591F6A1F7B1FC601A0
:1038A0000E948F198823C9F5EE0CFF1C001F111F01
:1038B000F701F170EC0DFD1D82A993A99C0140E078
:1038C00050E02FC0E7E07695679557954795EA95C4
:1038D000D1F7F60182A193A1A4A1B5A1480F591F68
:1038E0006A1F7B1FC6010E948F198823B1F442E032
:1038F000EE0CFF1C001F111F4A95D1F7F701F17064
:10390000EC0DFD1D22A933A944A955A95F7009C07A
:1039100021E030E040E050E004C02FEF3FEF4FEFF8
:103920005FEFB901CA01DF91CF911F910F91FF9015
:10393000EF90DF90CF90BF900895AF92BF92CF925B
:10394000DF92EF92FF920F931F93CF93DF935C016F
:103950006B01DC0115967C936E93149716964D912E
:103960005D916D917C91199741305105610571050B
:1039700009F4D3C0ED91FC91828D938DA48DB58D0A
:10398000481759076A077B0708F0C7C0411551055A
:103990006105710581F58081833049F446A157A105
:1039A00060A571A5411551056105710521F5F50168
:1039B00012861386148615860190F081E02D80858D
:1039C0009185C816D90608F0A8C0C601A4E096954E
:1039D0008795AA95E1F7A0E0B0E026A137A140A520
:1039E00051A5820F931FA41FB51FF50186879787E6
:1039F000A08BB18B7AC08281082F10E0F4E0000F19
:103A0000111FFA95E1F724C0CE010E94CA1BAB0139
:103A1000BC014F3FFFEF5F07FFEF6F07FFEF7F072F
:103A200011F481E07BC0423051056105710508F455
:103A300074C0D501ED91FC91828D938DA48DB58DCF
:103A4000481759076A077B0708F067C0C01AD10AF0
:103A5000F501C081D181C016D106B0F6D5011A9604
:103A60004D935D936D937C931D97EEEFEE2EEFEFEC
:103A7000FE2EEFEF0E2FEFEF1E2FE40EF51E061FAA
:103A8000171F8A8D9B8DAC8DBD8D0297A109B10941
:103A9000E816F9060A071B0728F020E030E040E0AE
:103AA00050E012C02A8130E040E050E0C801B70188
:103AB0000E94CF359B01AC018AA59BA5ACA5BDA5F5
:103AC000280F391F4A1F5B1FC60164E09695879532
:103AD0006A95E1F7A0E0B0E0280F391F4A1F5B1F8D
:103AE000F50126873787408B518BFFE0CF22DD24FD
:103AF00035E0CC0CDD1C3A95E1F782E390E0C80E8E
:103B0000D91ED5018D919C9111978C0D9D1D5396B9
:103B10009C938E93529780E001C082E0DF91CF9119
:103B20001F910F91FF90EF90DF90CF90BF90AF90DB
:103B300008954F925F926F927F928F929F92AF9271
:103B4000BF92CF92DF92EF92FF920F931F93CF938A
:103B5000DF93EC012A013B01411551056105710517
:103B600099F48A849B84AC84BD8481149104A1045B
:103B7000B10409F18A8D9B8DAC8DBD8D8816990697
:103B8000AA06BB06C0F41CC00E94CA1B9B01AC0164
:103B9000623071058105910508F48AC08A8D9B8D7C
:103BA000AC8DBD8D281739074A075B0708F48EC016
:103BB0005301420105C011E0812E912CA12CB12CA2
:103BC000750164010894C11CD11CE11CF11C8A8D93
:103BD0009B8DAC8DBD8DC816D906EA06FB0660F03C
:103BE00022E082169104A104B10408F46BC0B2E093
:103BF000CB2ED12CE12CF12CCE01B701A6010E94D5
:103C0000CA1B9B01AC016115710581059105A9F0E5
:103C10002F3F8FEF38078FEF48078FEF580709F4D2
:103C200055C0213031054105510509F44FC0C81474
:103C3000D904EA04FB0431F645C0BC2CAD2C9E2C03
:103C40008F2CCE01A601B7010FEF1FEF2FEF3FE042
:103C50000E94D31A882351F5411451046104710460
:103C600049F0CE01B301A201860197010E94D31A47
:103C70008823E1F4BA86AB869C868D868E859F85E7
:103C8000A889B9898F3F2FEF92072FEFA2072FEF57
:103C9000B20749F00197A109B1098E879F87A88BC8
:103CA000B98B81E08D83A701960110C0813029F086
:103CB00021E030E040E050E009C02FEF3FEF4FEF50
:103CC0005FEF04C020E030E040E050E0B901CA01FD
:103CD000DF91CF911F910F91FF90EF90DF90CF90E8
:103CE000BF90AF909F908F907F906F905F904F901C
:103CF00008959F92AF92BF92CF92DF92EF92FF9280
:103D00000F931F93CF93DF93EC017A018B01423025
:103D100051056105710508F458C08A8D9B8DAC8DE5
:103D2000BD8D481759076A077B0708F441C04DC08D
:103D3000CE01B801A7010E94CA1B5B016C0161158D
:103D400071058105910509F442C081E0A816B1040E
:103D5000C104D104D1F12FEFA2162FEFB2062FEF3D
:103D6000C2062FEFD20611F481E032C0CE01B801B5
:103D7000A70100E010E020E030E00E94D31A882381
:103D800039F58E859F85A889B9898F3F2FEF9207D6
:103D90002FEFA2072FEFB20741F00196A11DB11D31
:103DA0008E879F87A88BB98B9D828601750102C083
:103DB000992493948A8D9B8DAC8DBD8DE816F90660
:103DC0000A071B0708F4B4CF02C082E001C080E0FC
:103DD000DF91CF911F910F91FF90EF90DF90CF90E7
:103DE000BF90AF909F900895CF92DF92EF92FF9295
:103DF0000F931F93CF93DF93EC016A817B818881BE
:103E000099810E949216182F882309F06CC06C814A
:103E100067FF02C012E067C061FF6FC02E813F8163
:103E2000488559858A859B85AC85BD8528173907C6
:103E30004A075B0708F057C02A873B874C875D8796
:103E400060626C8388819981211531054105510596
:103E500061F44E855F85688979890E94791E182FE3
:103E60001E861F86188A198A39C04A895B896C891F
:103E70007D890E94CA1B6B017C018FEFC8168FEFF2
:103E8000D8068FEFE8068FEFF80611F411E028C08E
:103E900081E0C816D104E104F10489F1E881F981D7
:103EA000828D938DA48DB58DC816D906EA06FB06C2
:103EB000D0F44A895B896C897D89CF010FEF1FEFB0
:103EC0002FEF3FE00E94D31A182F882349F48881EE
:103ED0009981B701A6010E94791E182F112319F0AC
:103EE0008C8180688C83812FDF91CF911F910F91FE
:103EF000FF90EF90DF90CF90089517E0F4CF12E09D
:103F0000EFCF2F923F924F925F926F927F928F925C
:103F10009F92AF92BF92CF92DF92EF92FF920F9358
:103F20001F93DF93CF9300D000D00F92CDB7DEB7B1
:103F30009D838C837A018B01DC0112966D917C91BB
:103F400013978D919C910E9492168B83882309F080
:103F5000AAC1EC81FD81848187FD90C0AC81BD81C7
:103F60001A966D907D908D909C901D976E147F0495
:103F70008006910610F481FF02C037014801EC81F0
:103F8000FD81E680F78000851185168217821086F4
:103F90001186611471048104910409F451C10190E6
:103FA000F081E02DFA83E9838281A82EBB24CC2402
:103FB000DD2429E0AA0CBB1CCC1CDD1C2A95D1F702
:103FC000E114F10401051105C1F11701280108945C
:103FD0002108310841085108C401B3016150704003
:103FE00080409040A60195010E94EE3579018A013A
:103FF000C201B101A60195010E94EE35E216F30659
:1040000004071507D0F088279927DC018A199B0936
:10401000AC09BD0982219321A421B521EC81FD8148
:1040200086839783A087B187681A790A8A0A9B0AD0
:1040300042895389648975893AC0AC81BD811E96D5
:104040004D915D916D917C9151974115510561059F
:10405000710529F589819A8140E050E060E070E0C7
:104060000E94991DAB01BC014130510561057105EC
:1040700041F4EC81FD81848180688483F2E0FB83DC
:1040800012C14F3F8FEF58078FEF68078FEF780708
:10409000B1F1EC81FD8146875787608B718BAC81D4
:1040A000BD8152964D935D936D937C9355974115C9
:1040B00051056105710509F059C0C2C0EC81FD814F
:1040C00084812081318181FF0DC0C9010E94991D29
:1040D000AB01BC01411551056105710541F4350184
:1040E00046014AC0C9010E94CA1BAB01BC014F3F37
:1040F000FFEF5F07FFEF6F07FFEF7F0751F4AC8122
:10410000BD8114968C911497806814968C93B1E0BD
:1041100087C0423051056105710508F4AACFAC8112
:10412000BD81ED91FC91828D938DA48DB58D481745
:1041300059076A077B0708F09CCFAC81BD81529676
:104140004D935D936D937C935597FD018681978187
:10415000A085B1858A0D9B1DAC1DBD1D86839783EF
:10416000A087B1876A187B088C089D08A614B7043D
:10417000C804D90408F4A2CFEC81FD81868197811F
:10418000A085B185860D971DA81DB91D86839783CF
:10419000A087B187D401C3019170A070B07000975F
:1041A000A105B10509F44CC0C080D1809EEFE92E75
:1041B0009FEFF92E9FEF092F9FEF192FE40EF51EA9
:1041C000061F171FF601828D938DA48DB58D029762
:1041D000A109B109E816F9060A071B07C0F42281F4
:1041E00030E040E050E0C801B7010E94CF359B01AC
:1041F000AC01F60182A593A5A4A5B5A5280F391F8A
:104200004A1F5B1F211531054105510559F4AC8149
:10421000BD8114968C911497806814968C93B2E0AB
:10422000BB8341C08401730189E016950795F7941B
:10423000E7948A95D1F7E20EF31E041F151F03C001
:10424000EE24FF248701EC81FD8186819781A08582
:10425000B1859170A070B0700097A105B10569F0AB
:1042600086899789A08DB18DE816F9060A071B0784
:1042700021F0E68AF78A008F118FEC81FD8126817B
:1042800037814085518582859385A485B5858217C0
:104290009307A407B50738F42287338744875587E7
:1042A0008481806284838B810F900F900F900F9098
:1042B0000F90CF91DF911F910F91FF90EF90DF90C2
:1042C000CF90BF90AF909F908F907F906F905F90B6
:1042D0004F903F902F900895CF93DF93EC016C8126
:1042E0007D810E949D1C982F882399F44E855F85BF
:1042F00068897989888199810E948F19982F8823EC
:1043000041F4EA89FB8985EE8083E881F98181E0C7
:104310008483892FDF91CF9108954F925F926F929E
:104320007F928F929F92AF92BF92CF92DF92EF9245
:10433000FF920F931F93CF93DF93EC016B016C807F
:104340007D800894611C711C6114710409F44CC1D6
:104350008E859F85A889B9890097A105B10509F4C3
:1043600043C11FE0412E512C4620572041145104D7
:1043700009F027C10196A11DB11D8E879F87A88BCB
:10438000B98B4A855B856C857D85E881F98141150E
:1043900051056105710539F48085918568167906A6
:1043A00008F40FC121C1828190E001979301A4E03C
:1043B00036952795AA95E1F782239323892B09F057
:1043C00000C1CF010E94CA1B7B018C0162307105C4
:1043D0008105910508F40AC18FEFE8168FEFF80602
:1043E0008FEF08078FEF180709F402C1E881F98100
:1043F000828D938DA48DB58DE816F9060A071B07EB
:1044000008F4A6C0CD2809F4EFC04A855B856C8509
:104410007D85CF010E94991D7B018C01611571057D
:104420008105910511F487E0E4C091E0E916F104FB
:104430000105110509F4DAC0AFEFEA16AFEFFA068D
:10444000AFEF0A07AFEF1A0709F4D2C0888199814C
:1044500040E050E060E070E00E948F19882309F08E
:10446000C7C0E881F981F29680E092E001C0119224
:104470000197BFEF8F3F9B07D1F7888099804EEF60
:10448000A42E4FEFB42E4FEFC42E4FEFD42EAE0C10
:10449000BF1CC01ED11EF401828D938DA48DB58DDD
:1044A0000297A109B109A816B906CA06DB0628F0C9
:1044B00020E030E040E050E015C0D40112962C918D
:1044C00030E040E050E0C601B5010E94CF359B01CD
:1044D000AC01F40182A593A5A4A5B5A5280F391FA9
:1044E0004A1F5B1FD4019E962D933D934D935C9381
:1044F000D197DD24CC24C3941AC0C48288819981C9
:1045000040E050E060E070E00E948F19882309F0DD
:104510006FC0E881F98186A597A5A0A9B1A90196E8
:10452000A11DB11D86A797A7A0ABB1ABD394E8811D
:10453000F9818281D81608F386A597A5A0A9B1A90B
:104540008D199109A109B10986A797A7A0ABB1ABB5
:10455000EA86FB860C871D87C880D9808EEF9FEF87
:10456000AFEFBFEFE80EF91E0A1F1B1FF601828D89
:10457000938DA48DB58D0297A109B109E816F906AE
:104580000A071B0728F020E030E040E050E015C0AB
:10459000D60112962C9130E040E050E0C801B701FE
:1045A0000E94CF359B01AC01F60182A593A5A4A57D
:1045B000B5A5280F391F4A1F5B1F2E873F87488BE1
:1045C000598B7D826C8235E0440C551C3A95E1F79D
:1045D00082E390E0480E591E88819981840D951DD3
:1045E0009B8B8A8B80E005C084E003C082E001C021
:1045F00081E0DF91CF911F910F91FF90EF90DF90BD
:10460000CF90BF90AF909F908F907F906F905F9072
:104610004F9008959F92AF92BF92CF92DF92EF9208
:10462000FF920F931F93CF93DF93EC016B01FB017C
:1046300080818F3211F08C3541F40894C11CD11C5B
:104640001E821F82188619860AC0E881F981868930
:104650009789A08DB18D8E839F83A887B987F60136
:104660008081803248F4CE0160E070E00E949D1CA1
:10467000482F1B8A1A8A38C130E2932E25E0E22E99
:104680000C891D89F8018BE090E001C0919201979F
:104690002FEF8F3F9207D1F7F60180818E3249F0DC
:1046A00040E050E0A0E0B0E098E0A92EB12CFF245B
:1046B00021C0D80180E090E0F601E80FF91FE08109
:1046C0000196EE3231F48330910509F40AC1ED937D
:1046D000F3CFEF3229F0EC3539F0E13208F001C1C7
:1046E000E13210F424E201C020E2C80ED91EF80124
:1046F000238707C1F601EA0FFB1F208111962132A3
:1047000008F468C02F3209F406C12C3509F403C13E
:104710002E3219F04A155B0580F0F8E0AF16B104AF
:1047200009F0DFC02E3209F0DCC0FF0CFF0C48E0BE
:1047300050E08BE0A82EB12CDDCF27FF02C083E034
:10474000F82A822F81588F3118F08F558D31F8F467
:10475000F601EA0FFB1F3081832F80548F3320F046
:1047600080548D3708F0BDC0C5010197481759071F
:1047700008F0B7C01196F801E40FF51F2083CA01B5
:104780000196F801E80FF91F3083AC0120C0622FB9
:1047900070E0ECE9F0E001C031968081882329F0D7
:1047A00090E086179707C1F79CC0822F81548A3109
:1047B00018F4E2E0FE2A07C0822F81568A3118F4ED
:1047C000F1E0FF2A2052F801E40FF51F20834F5F2C
:1047D0005F4F90CF64E0452B09F483C0F8018081DE
:1047E000853E09F4E082F8E0AF16B10411F4FF0C45
:1047F000FF0C2F2D30E0C90183709070019709F4F0
:1048000060612C7030702430310509F46860CA0E84
:10481000DB1EF801638775C04E855F8568897989DD
:10482000888199810E948F19482F882321F5EA8970
:10483000FB898081882311F444E01DC0838583FDBA
:1048400014C0DF018C899D899C01F9012BE030E0C7
:10485000215030408FEF2F3F380769F09C918081C5
:10486000981719F411963196F3CFCE0160E070E0FD
:104870000E948D214BC0EC89FD8983854423B1F0D2
:10488000443091F590E09C012470307085FF0BC09E
:104890001E821F82188619861B8A1A8A232B09F406
:1048A000EFCE40E021C0232BF1F01EC082FD1CC0E2
:1048B000EA89FB89838584FF16C084899589A0E0F5
:1048C000B0E0DC0199278827228D338D40E050E04D
:1048D000822B932BA42BB52B8E839F83A887B9871C
:1048E000CFCE46E001C045E0842FDF91CF911F91EC
:1048F0000F91FF90EF90DF90CF90BF90AF909F907F
:104900000895CE0160E070E00E949D1C482F88232E
:1049100009F482CFB0CF60E05ECFEF92FF920F93A9
:104920001F93DF93CF93CDB7DEB7A4970FB6F8945C
:10493000DEBF0FBECDBF9CA38BA37B018E01035FA7
:104940001F4FCE018396B80141E00E94E7168823ED
:1049500051F5CE0101969AA389A36BA17CA1C80150
:104960000E940A238823F9F4E9A1FAA1838585FD31
:1049700019C0EF8DF8A13097A9F0D70116968D9147
:104980009C911797978B868B14968D919C91159778
:10499000918F808FED85FE8581E08483CF010E9419
:1049A000081A01C086E0A4960FB6F894DEBF0FBEC9
:1049B000CDBFCF91DF911F910F91FF90EF900895A0
:1049C000EF92FF920F931F93DF93CF93CDB7DEB794
:1049D000A4970FB6F894DEBF0FBECDBF9CA38BA3E8
:1049E000E62EF42E8E01035F1F4FCE018396B80191
:1049F00041E00E94E716882331F5CE0101969AA383
:104A000089A36BA17CA1C8010E940A238823D9F441
:104A1000E9A1FAA1838585FD15C0EF8DF8A1309736
:104A200089F09F2D9772892F8095238582239E215F
:104A3000892B8387ED85FE8581E08483CF010E94E9
:104A4000081A01C086E0A4960FB6F894DEBF0FBE28
:104A5000CDBFCF91DF911F910F91FF90EF900895FF
:104A6000CF92DF92EF92FF921F93DF93CF93CDB758
:104A7000DEB7A4970FB6F894DEBF0FBECDBF9CA3E0
:104A80008BA36B014DE0E42EF12CEC0EFD1ECE014C
:104A90008396B70140E00E94E716182F8823B1F4EF
:104AA000CE0101969AA389A36BA17CA1C7010E94A4
:104AB0000A23182F882351F48F8D98A1892B11F484
:104AC00016E004C0C701B6010E945811812FA496B8
:104AD0000FB6F894DEBF0FBECDBFCF91DF911F910F
:104AE000FF90EF90DF90CF9008950F931F93DF9387
:104AF000CF93CDB7DEB72E970FB6F894DEBF0FBEBB
:104B0000CDBF8C017E876D87CE010D96B80140E048
:104B10000E94E7168823F1F5CE010196D80155963B
:104B20009C938E9354976D857E85C8010E940A23BD
:104B3000882369F5D8015296ED91FC9153973097EF
:104B4000B9F0838584FF25C084899589A0E0B0E011
:104B5000DC0199278827228D338D40E050E0822B9D
:104B6000932BA42BB52BF80186839783A087B1875D
:104B7000D801ED91FC9111978681978113969C93B2
:104B80008E931297C80160E070E00E949D1C8430F3
:104B900009F485E02E960FB6F894DEBF0FBECDBFA8
:104BA000CF91DF911F910F9108950F931F93DF9382
:104BB000CF93CDB7DEB7A4970FB6F894DEBF0FBE84
:104BC000CDBF9CA38BA38E01035F1F4FCE018396A5
:104BD000B80140E00E94E716682F8823D9F5CE017E
:104BE00001969AA389A36BA17CA1C8010E940A2304
:104BF000682F882361F52F8D38A12115310539F4EF
:104C0000ED85FE858B899C89AD89BE891BC0D90144
:104C10001B968C911B9784FF1CC00D851E85549696
:104C20008D919C915597A0E0B0E0DC0199278827F1
:104C3000F901228D338D40E050E0822B932BA42B81
:104C4000B52BF801868B978BA08FB18F03C0843072
:104C500009F465E0862FA4960FB6F894DEBF0FBE68
:104C6000CDBFCF91DF911F910F9108951F93CF93E7
:104C7000DF93EC0160E070E00E949D1C182F8823F8
:104C800081F54E855F8568897989888199810E943F
:104C90008F19182F882329F5EA89FB89E081E53EE1
:104CA00029F1EE2319F1CE0161E070E00E948D211F
:104CB000E5CF4A895B89CA01FC0180E290E001C02E
:104CC000119201972FEF8F3F9207D1F76C897D8961
:104CD000CA014BE050E00E94EF10E881F98181E0C9
:104CE0008483812FDF91CF911F9108954E855F8539
:104CF00068897989888199810E948F19182F882362
:104D0000C1F2EFCFAF92BF92CF92DF92EF92FF92BC
:104D10000F931F93DF93CF93CDB7DEB7CF54D0401F
:104D20000FB6F894DEBF0FBECDBF8E01025B1F4FE2
:104D3000D8018D939C936B0142E2E42EF12CEC0E92
:104D4000FD1EC801B70141E00E94E716882309F063
:104D5000F3C08AA19BA199AF88AFCE0101969FAB0A
:104D60008EABF80160817181C7010E940A238823FC
:104D700009F0E2C0EEA9FFA9838585FF02C086E0A5
:104D8000DBC06CA97DA96115710511F484E0D4C064
:104D9000655F7F4FCE010D9645E150E00E94EF1018
:104DA0008E01085C1F4FC801B70146E150E00E9428
:104DB000EF10C801B6010E940A23882311F488E08D
:104DC000BBC0843009F0B8C0C8010E9436268823D1
:104DD00009F0B2C0FE01E65BFF4FC080D180C60182
:104DE0000D96BE01615F7F4F43E150E00E94EF10DE
:104DF0008D858062D6011B968C93EAA1FBA181E090
:104E0000848328A539A54AA55BA5FE01FE9680816D
:104E10009181A281B381281739074A075B0709F4FA
:104E20007FC0F601838584FF7BC0A8ACB9AC8489C0
:104E30009589A0E0B0E08C01FF24EE24828D938D53
:104E4000A0E0B0E0E82AF92A0A2B1B2B8EEF9FEF97
:104E5000AFEFBFEFE80EF91E0A1F1B1FF501828D91
:104E6000938DA48DB58D0297A109B109E816F906B5
:104E70000A071B0708F05FC0228130E040E050E0E5
:104E8000C801B7010E94CF35AB01BC01F50182A575
:104E900093A5A4A5B5A5480F591F6A1F7B1F4115EF
:104EA00051056105710509F446C0C5010E948F19BD
:104EB00008AD19AD882309F03FC0B8016E5A7F4F85
:104EC000DB0111968C918E3259F5F8018081833087
:104ED000A9F4FE01FE962081318142815381F801BF
:104EE00086A197A1A0A5B1A5281739074A075B0796
:104EF00029F480E090E0A0E0B0E006C0FE01FE965C
:104F000080819181A281B381FB01938F828FCD013A
:104F1000AA27BB27958B848B81E0D80114968C93AC
:104F2000CE0182960E946C21882331F48AA19BA134
:104F30000E94081A01C082E0C15BDF4F0FB6F894EF
:104F4000DEBF0FBECDBFCF91DF911F910F91FF90BC
:104F5000EF90DF90CF90BF90AF900895CF93DF9305
:104F6000EC0194E019C0888199810E948F19982FD3
:104F70008823E9F4EA89FB898081882301F1853E51
:104F800019F0838583FF17C0CE0160E070E00E94B6
:104F90008D21982F882359F44E855F8568897989FA
:104FA0004115510561057105F1F6992321F01E8621
:104FB0001F86188A198A892FDF91CF91089594E06E
:104FC000F6CFEF92FF920F931F93DF93CF93CDB75E
:104FD000DEB72C970FB6F894DEBF0FBECDBF8C01A5
:104FE0007B01FC0162817381808191810E94921614
:104FF000882361F5E114F10431F4C80160E070E048
:105000000E949D1C23C0CE010196F801958B848BD4
:10501000C8010E94AE27843031F4F8011686178645
:10502000108A118A02C0882389F4C801B7010E943E
:105030005811C80160E070E00E948D21843031F485
:10504000F80116861786108A118A80E02C960FB612
:10505000F894DEBF0FBECDBFCF91DF911F910F91AE
:10506000FF90EF9008953F924F925F926F927F92E0
:105070008F929F92AF92BF92CF92DF92EF92FF9268
:105080000F931F93DF93CF93CDB7DEB7EA970FB699
:10509000F894DEBF0FBECDBFFC019AAF89AF4B01C4
:1050A0001082ADE0EA2EF12CEC0EFD1ECE01C99669
:1050B000B70140E00E94E716882311F0982FC6C080
:1050C000CE0101969AA389A3ED85FE8586899789ED
:1050D000A08DB18D8B8B9C8BAD8BBE8B84015701CA
:1050E000F3E26F2E712C6C0E7D1EECE24E2E512CD5
:1050F0004C0E5D1E7FE2372E7DC0C50161E070E081
:105100000E949D1C982F882309F07FC0C5010E9432
:10511000AE27982F882309F078C0EF8DF8A18489F5
:105120009589A0E0B0E0DC0199278827228D338D96
:1051300040E050E0822B932BA42BB52B8B8B9C8BC8
:10514000AD8BBE8BC50160E070E00E949D1C982F66
:10515000882309F05AC0C5010E94AE27982F8823E2
:10516000F9F4EF8DF8A184899589A0E0B0E0DC0125
:1051700099278827228D338D40E050E0822B932B96
:10518000A42BB52BC816D906EA06FB0609F477C08E
:10519000C50160E070E00E948D21982F8823D9F22C
:1051A000943099F592E031C02F5F3F4F8191882371
:1051B000D9F7B901C90103960817190710F491E14D
:1051C00024C0A8010BC04150504021503040A40FD2
:1051D000B51FF901E60DF71D81858C93A9ADBAAD18
:1051E0002115310581F760957095060F171FA00FE7
:1051F000B11F3C92CB88DC88ED88FE88C114D104B5
:10520000E104F10409F079CF90E0A9ADBAAD99239A
:10521000E1F480916401805DFD0181938AE3119640
:105220008C93DF0111960815190521F48FE2818313
:1052300011960BC0E9ADFAADE00FF11F80818D939F
:105240000F5F1F4F08151905A8F31C92892FEA96C6
:105250000FB6F894DEBF0FBECDBFCF91DF911F9187
:105260000F91FF90EF90DF90CF90BF90AF909F9005
:105270008F907F906F905F904F903F900895C50101
:10528000B3010E945811F20120E030E08FCFCF929D
:10529000DF92EF92FF920F931F93DF93CF93CDB7DF
:1052A000DEB7EA970FB6F894DEBF0FBECDBF9AAF58
:1052B00089AF8E01035F1F4FCE01C996B80141E04F
:1052C0000E94E716282F882309F07BC0CE010196A3
:1052D0009AA389A369AD7AADC8010E940A23282F39
:1052E000882309F06EC0E9A1FAA1838585FF02C079
:1052F00026E067C0EF8DF8A1309711F426E003C0D7
:10530000838580FD27E084899589428D538D2223F2
:1053100009F057C0A0E0B0E08C01FF24EE24CA01E0
:10532000A0E0B0E0E82AF92A0A2B1B2B838584FF32
:105330005AC082E0E816F1040105110510F422E0DC
:1053400040C0B3E2CB2ED12CCC0EDD1EC601BE0177
:10535000635F7F4F46E150E00E94EF10E9A6FAA696
:105360000BA71CA7C60162E070E00E949D1C282FBD
:10537000882339F5C6010E94AE27282F882389F19A
:10538000EBA1FCA186899789A08DB18DE816F9065D
:105390000A071B0731F1243031F113C0E114F10485
:1053A0000105110549F08D859E85B801A7010E9470
:1053B000791E282F882329F48D859E850E94081A3E
:1053C000282F822FEA960FB6F894DEBF0FBECDBF0E
:1053D000CF91DF911F910F91FF90EF90DF90CF90D1
:1053E000089527E0EECFCE010D960E946C21282F64
:1053F0008823A1F2E6CF2F923F924F925F926F9255
:105400007F928F929F92AF92BF92CF92DF92EF9254
:10541000FF920F931F93DF93CF9300D000D0CDB7AF
:10542000DEB79C838B83162F072F3A013A8329839B
:10543000D9011D921C92FC0162817381808191814E
:105440000E949216882E882309F0F3C1AB81BC819B
:1054500014968C9187FD7FC081FD03C077E0872E75
:10546000E8C1EB81FC812285338544855585C301E4
:10547000A0E0B0E0820F931FA41FB51F821793070F
:10548000A407B50710F466247724812F902F9C0180
:10549000190144244394A8C1AB81BC8116962D9177
:1054A0003D914D915C911997DA01C9019170A070FD
:1054B000B0700097A105B10509F03CC1AB81BC817A
:1054C000ED91FC91DA01C90169E0B695A795979530
:1054D00087956A95D1F792809A94982209F04DC0E9
:1054E0002115310541055105D9F4AB81BC811E96CA
:1054F0006D917D918D919C915197611571058105FB
:105500009105F9F4CF0140E050E060E070E00E94C6
:10551000991DEB81FC8166877787808B918B0BC00F
:10552000AB81BC8152964D915D916D917C91559767
:10553000CF010E94991D611571058105910509F43E
:1055400057C1613071058105910541F4EB81FC8102
:1055500084818068848332E0832E6BC16F3FFFEFCC
:105560007F07FFEF8F07FFEF9F0709F4CCC0EB81A8
:10557000FC81628B738B848B958BAB81BC81ED91AD
:10558000FC91119726A537A540A951A95696ED90F3
:10559000FD900D911C9159972E153F05400751071D
:1055A00051F4CF0140E050E060E070E00E948F19BC
:1055B000882309F0D3C0AB81BC810D911C91119758
:1055C00052962D913D914D915C91559722503040CE
:1055D00040405040F801828D938DA48DB58D029787
:1055E000A109B109281739074A075B07B8F45280A7
:1055F000652D70E080E090E00E94CF359B01AC010A
:10560000F80182A593A5A4A5B5A5280F391F4A1FA7
:105610005B1F211531054105510549F4AB81BC8162
:1056200014968C911497806814968C9394CF69018A
:105630007A01C90CD11CE11CF11C5301AB2CBB2419
:10564000A694A114B10409F446C0292D30E0C50187
:10565000820F931F652D70E06817790718F45B01BE
:10566000A21AB30AF8018181B101A70196010A2D9E
:105670000E94A133882309F046C0AB81BC81ED9123
:10568000FC9126A537A540A951A92C193D094E0921
:105690005F09C501A0E0B0E0281739074A075B079A
:1056A000A8F499E0220F331F441F551F9A95D1F794
:1056B000B101620F731FCF01C29640E052E00E9419
:1056C000EF10AB81BC81ED91FC9114828501102F0C
:1056D0000027110F6CC0EB81FC812681378140854A
:1056E000518582859385A485B585281739074A0792
:1056F0005B07D0F0C80140E050E060E070E00E943D
:105700008F19882349F0AB81BC8114968C91149732
:10571000806814968C9327C0AB81BC81ED91FC917D
:10572000C6A6D7A6E0AAF1AAEB81FC81C68AD78AD1
:10573000E08EF18EAB81BC811696ED90FD900D91BF
:105740001C91199756964D915D916D917C91599749
:105750008D919C910E948F19882341F0EB81FC81EF
:105760008481806884838824839463C0C701917096
:1057700020E032E0281B390B83012615370508F499
:105780008901AB81BC8116962D913C9117973170A0
:105790002E5C3F4F8D919C91820F931FB101A80108
:1057A0000E94EF10AB81BC81ED91FC914482200EF0
:1057B000311EC801A0E0B0E0EB81FC812681378179
:1057C00040855185280F391F4A1F5B1F2683378369
:1057D00040875187E981FA8180819181800F911FF3
:1057E00091838083601A710A6114710409F054CEA8
:1057F000AB81BC8116962D913D914D915C9119978D
:105800001A968D919D910D90BC91A02D82179307B2
:10581000A407B50730F4EB81FC81228733874487E6
:105820005587AB81BC8114968C9114978062149635
:105830008C93882D0F900F900F900F90CF91DF9148
:105840001F910F91FF90EF90DF90CF90BF90AF909E
:105850009F908F907F906F905F904F903F902F9090
:1058600008952F923F924F925F926F927F928F9204
:105870009F92AF92BF92CF92DF92EF92FF920F93DF
:105880001F93DF93CF93CDB7DEB7AA970FB6F894E7
:10589000DEBF0FBECDBF9CA38BA30E948B026DA366
:1058A0007EA38FA398A72DE0E22EF12CEC0EFD1E17
:1058B000CE018396B70141E00E94E716182F882396
:1058C00009F026C1CE0101969AA389A36BA17CA100
:1058D000C7010E940A23182F882351F0843009F051
:1058E00017C1E9A1FAA1838585FF04C016E010C1A4
:1058F00018E00EC18D859E8540E050E060E070E0CC
:105900000E94991D4B015C0161157105810591058E
:1059100011F417E0DCC0613071058105910511F4C7
:1059200012E0D5C06F3F3FEF73073FEF83073FEFB4
:10593000930709F407C18D859E8540E050E060E043
:1059400070E00E948F19182F882309F0C0C0CD8401
:10595000DE849EEFE92E9FEFF92E9FEF092F9FEF38
:10596000192FE80CF91C0A1D1B1DF601828D938D61
:10597000A48DB58D0297A109B109E816F9060A07A9
:105980001B0720F044245524320115C0D60112967D
:105990002C9130E040E050E0C801B7010E94CF35C3
:1059A0002B013C01F60182A593A5A4A5B5A5480E3F
:1059B000591E6A1E7B1E82E3E82EF12CEC0CFD1CA6
:1059C000F70180E092E001C0119201972FEF8F3F25
:1059D0009207D1F7F7018BE090E020E201C021931C
:1059E00001973FEF8F3F9307D1F71EE2D601D29682
:1059F0001C93D29780E1DD968C938DA19EA1AFA1DF
:105A0000B8A5F701868B978BA08FB18F9AA689A630
:105A1000938E828EC501AA27BB271C01958B848B90
:105A2000C7018096B70140E250E00E94EF1023E5E5
:105A300030E0C20ED31ED6011C932B893C894D89C0
:105A40005E89ED85FE858081833069F486A197A10A
:105A5000A0A5B1A5281739074A075B0721F420E064
:105A600030E040E050E0D701DB963C932E93DA978C
:105A70009A0144275527D5963C932E93D4970281BB
:105A8000DD24D39421C0ED85FE8546A657A660AAE5
:105A900071AAD482CF0140E050E060E070E00E9443
:105AA0008F19182F882399F4F70180E092E001C044
:105AB00011920197BFEF8F3F9B07D1F70894411CCC
:105AC000511C611C711C01500023E9F63DC08D85FD
:105AD0009E85B501A4010E94791E1AC0EF8DF8A120
