:100000000C9439000C9456000C9456000C94560035
:100010000C9456000C9456000C9456000C94560008
:100020000C9456000C9456000C9456000C945600F8
:100030000C9456000C9456000C9456000C945600E8
:100040000C9456000C9456000C9456000C945600D8
:100050000C945600464C415348000E111B111115CB
:10006000110E040A0A0A111F1F0E4C696E696131D4
:10007000000011241FBECFE5D8E0DEBFCDBF10E0E9
:10008000A0E6B0E0EEE9F4E002C005900D92A637DC
:10009000B107D9F710E0A6E7B0E001C01D92A9377B
:1000A000B107E1F70E9458000C944D020C94000037
:1000B000889A909A0E94760184E590E00E941C0143
:1000C00080E06AE00E946A018AE690E00E941C01DA
:1000D00081E060E00E946A0180E090E00E94CE0131
:1000E00081E06AE00E946A0180E690E00E940A01D5
:1000F00080E86EE670E00E94320181E867E070E01F
:100100000E94AE0182E86AE570E00E944A0183E83D
:1001100062E670E00E944A0180E067E00E946A01A6
:1001200087E690E00E940A0181E068E00E946A018F
:100130008AE690E00E940A0181E067E00E946A017D
:100140008CE690E00E940A01FFCF80FF02C0C49AB3
:1001500001C0C49881FF02C0C59A01C0C59882FF42
:1001600002C0C69A01C0C69883FF02C0C79A08950C
:10017000C798089586B390E024E0969587952A95D0
:10018000E1F78170B5998260B6998460B79988600B
:1001900008951F93BF98BE98BD98BC98C19AC29A03
:1001A0000E94BA00182F1295107FC298C29A0E941E
:1001B000BA00C298812B1F910895C0980E94C9006F
:1001C00008951F93182FBF9ABE9ABD9ABC9AC198E2
:1001D000C29A82958F700E94A500C298C29A812F00
:1001E0000E94A500C2980E94DD0087FDFCCF1F91F0
:1001F0000895C0980E94E1000895C09A0E94E1000D
:100200000895982F8058883008F49770892F0E949D
:10021000FD000895CF93DF93EC0108C0892F80582B
:10022000883008F49770892F0E94FD0099919923D6
:10023000A9F7DF91CF910895CF93DF93EC010AC026
:10024000892F8058883010F0892F02C0892F87703D
:100250000E94FD00FE0121969491992389F7DF9178
:10026000CF9108951F93CF93DF93EB0190E08770B8
:1002700090700896880F880F880F0E94F90010E090
:1002800089910E94FD001F5F1830D1F7DF91CF9157
:100290001F9108950F931F93CF93DF938B0190E0ED
:1002A000877090700896880F880F880F0E94F90059
:1002B000C0E0D0E0F801EC0FFD1FE4918E2F0E940A
:1002C000FD002196C830D105A9F7DF91CF911F918C
:1002D0000F910895813009F480E46058860F0E94E0
:1002E000F900089581E00E94F90008950F931F938B
:1002F000BF9ABE9ABD9ABC9AB89ABA9AB99AC0984F
:10030000C298C19880E092EA0197F1F7C098C1982D
:1003100080E30E94A50087E49CE20197F1F780E367
:100320000E94A50004E111E0C8010197F1F780E205
:100330000E94A500C8010197F1F788E20E94F90028
:1003400088E00E94F9008CE00E94F90086E00E949B
:10035000F9000E9472011F910F9108950F931F934E
:10036000CF93DF938B0190E0877090700896880F91
:10037000880F880F0E94F900C0E0D0E0C8018C0F00
:100380009D1F0E9421020E94FD002196C830D105C8
:10039000A9F7DF91CF911F910F910895CF93DF932C
:1003A000EC0121960E942102982F81508E3F48F443
:1003B0008F57883008F49770892F0E94FD00CE0176
:1003C000EFCFDF91CF910895DF93CF93CDB7DEB715
:1003D00061970FB6F894DEBF0FBECDBFBE016F5F51
:1003E0007F4F4AE050E00E9400020E940A0161969D
:1003F0000FB6F894DEBF0FBECDBFCF91DF91089549
:10040000FB019F01E8944230C4F04532B4F44A3015
:1004100029F497FB1EF4909581959F4F642F7727C1
:100420000E943902805D8A330CF0895D8193CB0193
:100430000097A1F716F45DE251931082C9010C9464
:100440002902E199FECF9FBB8EBBE09A99278DB31D
:100450000895DC01FC01672F71917723E1F7329752
:1004600004C07C916D9370836291AE17BF07C8F38F
:100470000895AA1BBB1B51E107C0AA1FBB1FA617EB
:10048000B70710F0A61BB70B881F991F5A95A9F73D
:0E04900080959095BC01CD010895F894FFCFA2
:10049E004C696E6961320080810082008300101009
:0604AE00121418101F00DB
:00000001FF
