:100000000C942A000C9434000C9434000C943400AA
:100010000C9434000C9434000C9434000C94340090
:100020000C9434000C9434000C9434000C94340080
:100030000C9434000C9434000C9434000C94340070
:100040000C9434000C9434000C9434000C94340060
:100050000C94340011241FBECFE5D8E0DEBFCDBF25
:100060000E944B000C9462000C9400009E9B02C006
:1000700080E0089580E293E028EC30E0F9013197C8
:10008000F1F70197D9F783B38295869586958370AA
:10009000809581700895CF93DF93A79AAF9AA69821
:1000A000AE9AC8ECD0E00E9436008823E1F385B315
:1000B000805885BB80ED97E0FE013197F1F70197FD
:0800C000D9F7F1CFF894FFCF4E
:00000001FF
