:100000000C942A000C9434000C9434000C943400AA
:100010000C9434000C9434000C9434000C94340090
:100020000C9434000C9434000C9434000C94340080
:100030000C9434000C9434000C9434000C94340070
:100040000C9434000C9434000C9434000C94340060
:100050000C94340011241FBECFE5D8E0DEBFCDBF25
:100060000E9436000C9449000C940000A79AA698B0
:1000700028EC30E09E99FECF80E293E0F9013197C1
:10008000F1F70197D9F79E99F5CF85B3805885BBD5
:06009000F1CFF894FFCF50
:00000001FF
