:1000000012C0B3C01EC01DC01CC01BC01AC019C086
:1000100018C017C016C015C014C013C012C011C03C
:1000200010C00FC00EC011241FBECFEDCDBF10E019
:10003000A0E6B0E001C01D92A336B107E1F702D0FF
:1000400029C1DECFBA9AC29A87B38A6787BB88B3C1
:10005000857888BBC29886EF99E028EC30E0F901FA
:100060003197F1F70197D9F7C29A8EE686BF80B72C
:10007000826080BF83B7816083BF8EB588608EBD8C
:10008000479A11BC85B7806585BF8A98929A8BB7CD
:1000900080648BBF8AB780648ABF789485B780629A
:1000A00085BF889585B78F7D85BFF8CF9BBD8ABDFD
:1000B00088B7806488BF8EB582608EBD08B606FEA4
:1000C000FDCF8EB58D7F8EBD089589E793E0EEDF7D
:1000D00080B7806480BF89E793E0E8DF80B78F7BDB
:1000E00080BF089580B7806480BF89E793E0DEDF3A
:1000F00080B78F7B80BF89E793E0D8DF0895EF92C8
:10010000FF920F931F93CF93DF93382F20E0890145
:10011000106C70E0660F771F660F771F062B172B8A
:10012000942F9295990F907E80E0082B192BCFE0A9
:10013000D0E081E0E82EF12CC7010C2E02C0880F20
:10014000991F0A94E2F780239123892B11F4CADFC7
:1001500001C0BBDF2197C130D10571F7DF91CF918D
:100160001F910F91FF90EF9008951F920F920FB67D
:100170000F921124CF92DF92EF92FF920F931F9371
:100180002F933F934F935F936F937F938F939F939F
:10019000AF93BF93CF93DF93EF93FF9386B397B360
:1001A000957897BB98B39A6798BB8A9A92988A7702
:1001B0008A3709F44BC084EF91E028EC30E0F90174
:1001C0003197F1F70197D9F796B3892F8A778A3754
:1001D00009F43CC01091600081E018271093600082
:1001E00055E0C52E44E0D42E33E0E32E22E0F22E7B
:1001F00001E0C8ECD0E091FD03C00093620013C0A1
:1002000093FD03C0F09262000EC094FD03C0E09223
:10021000620009C095FD03C0D092620004C096FD43
:1002200002C0C09262001092610080E060916200A2
:10023000412F65DF8EE794E0FE013197F1F70197DA
:10024000D9F796B3892F8A778A37A9F68A98929A2E
:1002500087B38A6787BB88B3857888BB8AB7806491
:100260008ABFFF91EF91DF91CF91BF91AF919F91A5
:100270008F917F916F915F914F913F912F911F913E
:100280000F91FF90EF90DF90CF900F900FBE0F90E7
:080290001F901895F894FFCFB0
:00000001FF
