:100000000C942A000C9447000C9447000C94470071
:100010000C9447000C9447000C9447000C94470044
:100020000C9447000C9447000C9447000C94470034
:100030000C9447000C9447000C9447000C94470024
:100040000C9447000C9447000C9447000C94470014
:100050000C94470011241FBECFE5D8E0DEBFCDBF12
:1000600010E0A0E6B0E0E2E7FCE102C005900D92EE
:10007000AA3FB107D9F711E0AAEFB0E001C01D9285
:10008000AF37B107E1F70E9449000C94370E0C948A
:1000900000001F93DF93CF93CDB7DEB7AE970FB6B7
:1000A000F894DEBF0FBECDBFD79ADF9A87B3806BBF
:1000B00087BBC49A8DB180658DB90E94560D80E6CC
:1000C00090E00E94220D81E060E00E944A0D88EEDF
:1000D00093E024E131E0F9013197F1F70197D9F785
:1000E0000E942602882309F078C0CE0103960E9460
:1000F000980B882309F06CC080EF90E00E949A086A
:10010000882309F060C08FEF90E060E870E0AE01F6
:100110004F5F5F4F0E940109882309F04FC0E981BA
:10012000FA81E150FF4F11828FEF90E00E94220D83
:1001300080E395E724E131E0F9013197F1F7019788
:10014000D9F780E060E00E944A0D81E790E00E94CC
:10015000220D8091FF00843729F48FEF90E062E850
:1001600070E004C08FEF90E06CE870E00E94EB0D4F
:1001700084E090E09A8389838FEF90E060E870E0FC
:10018000AE014F5F5F4F0E94610A182F0E94E90283
:10019000112339F080E060E00E944A0D86E990E08A
:1001A00006C081E060E00E944A0D87EA90E00E946C
:1001B000220D80E090E00E94980B13C088EB90E045
:1001C0000E94220D0EC083EC90E00E94220D09C017
:1001D00084ED90E00E94220D04C080EE90E00E9429
:1001E000220DFFCFDF92EF92FF920F931F93D82E35
:1001F0007A018B0187FF0CC087E740E050E060E0A8
:1002000070E00E94F200823008F040C08FE7D822F0
:10021000C49A8FEF8FB9779BFECF8FB1C4988FEFC1
:100220008FB9779BFECF8FB1DFB8779BFECF812F41
:100230009927AA27BB278FB9779BFECFC801AA278A
:10024000BB278FB9779BFECFBB27A12F902F8F2D78
:100250008FB9779BFECFEFB8779BFECF80E4D8169F
:1002600011F485E906C088E4D81611F487E801C0C6
:1002700081E08FB9779BFECF9AE02FEF2FB9779B64
:10028000FECF8FB187FF02C09150C1F71F910F9130
:10029000FF90EF90DF900895EF92FF920F931F93DE
:1002A000CF93DF937C01E9018091FC0083FD07C0BF
:1002B00039E0440F551F661F771F3A95D1F781E546
:1002C0000E94F200882309F03AC080E395E73FEFEF
:1002D0003FB9779BFECF2FB12F3F19F40197C1F79C
:1002E0002EC02E3F61F5222733272C1B3D0B2E5F9E
:1002F0003D4F201B310B209739F08FEF8FB9779B43
:10030000FECF9FB12197D1F7E114F10471F09FEF77
:100310009FB9779BFECF8FB1F701808301501040CA
:1003200021F00894E11CF11CF3CF8FEF8FB9779B7C
:10033000FECF9FB121503040C9F790E001C091E05D
:10034000C49A8FEF8FB9779BFECF8FB1892FDF9142
:10035000CF911F910F91FF90EF900895FC010097AE
:10036000F9F02091FA003091FB0009C080818FB92B
:10037000779BFECF3196415050402150304041157F
:10038000510529F43093FB002093FA0007C0211592
:10039000310561F71092FB001092FA0090E054C012
:1003A000411551056105710509F18091FC0083FD3E
:1003B00007C0E9E0440F551F661F771FEA95D1F784
:1003C00088E50E94F200882311F091E03DC08FEF94
:1003D0008FB9779BFECF8EEF8FB9779BFECF80E0F2
:1003E00092E09093FB008093FA00D8CF8091FA00BE
:1003F0009091FB00029602C01FB801970097E1F7A9
:10040000779BFECF8FEF8FB9779BFECF8FB18F7128
:10041000853099F428EE3DEF9FEF02C02150304027
:100420009FB9779BFECF8FB18F3F21F0211531050A
:10043000A9F703C090E0232B09F491E0C49A8FEF51
:100440008FB9779BFECF8FB1892F0895CF92DF921E
:10045000EF92FF920F931F93DF93CF9300D000D0C2
:10046000CDB7DEB7C49908C080E090E040E050E02E
:1004700060E070E00E94AE0184E69FEF9FB9779B39
:10048000FECF2FB18150D1F780E440E050E060E032
:1004900070E00E94F200813009F06CC088E44AEA02
:1004A00051E060E070E00E94F200813009F040C04D
:1004B0006E010894C11CD11C76019FEF9E012B5F39
:1004C0003F4F9FB9779BFECF8FB1F70181937F019B
:1004D000E217F307B1F78B81813009F04BC08C81B3
:1004E0008A3A09F047C000EE1EE204C001501040F5
:1004F00009F440C089EE40E050E060E070E40E9402
:10050000F200882399F750C09FEF9FB9779BFECFE9
:100510008FB1F60181936F01EE15FF05B1F7898167
:1005200086FD03C004E0F02E26C01CE0F12E23C09F
:1005300089EE40E050E060E070E00E94F20082301E
:1005400028F0B1E4EB2EFF24F39404C0A9EEEA2EC8
:10055000F2E0FF2E08EA11E603C00150104051F00E
:100560008E2D40E050E060E070E00E94F2008823B1
:10057000A1F725C0FF24F092FC00C49A8FEF8FB939
:10058000779BFECF8FB180E0FF2009F481E00F90D0
:100590000F900F900F90CF91DF911F910F91FF90CF
:1005A000EF90DF90CF9008958AE740E050E060E060
:1005B00070E00E94F200882309F4A6CFDBCF80E52B
:1005C00040E052E060E070E00E94F200882391F683
:1005D000D2CF1F9380E090E040E050E060E070E018
:1005E0000E94AE0110E00BC080E090E040E050E0DF
:1005F00060E070E00E94AE011F5F143611F08823A6
:1006000099F71F910895CF92DF92EF92FF920F9387
:100610001F93CF93DF936C01C091FD00D091FE003A
:10062000FC0111821082248135814681578121305D
:1006300031054105510509F45BC088859985AA8576
:10064000BB85281739074A075B0708F051C02115F9
:1006500031054105510539F48881833021F4288919
:1006600039894A895B89F601208731874287538718
:10067000211531054105510581F18EEFE82E8FEFEF
:10068000F82E8FEF082F8FEF182FE20EF31E041FA6
:10069000151F88859985AA85BB850297A109B1098F
:1006A000E816F9060A071B0728F020E030E040E0D2
:1006B00050E017C0298130E040E050E0C801B701A8
:1006C0000E94AA0D9B01AC018C899D89AE89BF89CE
:1006D000280F391F4A1F5B1F04C0288939894A899E
:1006E0005B89F601248735874687578780E001C0FC
:1006F00081E0DF91CF911F910F91FF90EF90DF90FC
:10070000CF9008956F927F928F929F92AF92BF92F7
:10071000CF92DF92EF92FF920F931F93DF93CF93CD
:1007200000D000D0CDB7DEB74B015C016090FD007A
:100730007090FE0082E088169104A104B10408F4D0
:10074000B4C0F30180859185A285B385881699068A
:10075000AA06BB0608F0A9C08081823009F45FC0F8
:10076000833009F47BC0813009F09FC0C4019695A5
:100770008795880D991D9C013170892F9927869541
:100780006C01EE24FF24F301448555856685778549
:10079000CE010196F1E02F3F3F0749F0C40ED51E70
:1007A000E61EF71EB701A60102E010E01EC04C0DC8
:1007B0005D1D6E1D7F1D2FEF31E001E010E00E94F6
:1007C0004C01882309F071C0F30144855585668585
:1007D00077854F5F5F4F6F4F7F4F4C0D5D1D6E1DD7
:1007E0007F1DCE01029620E030E00E944C0188235C
:1007F00009F05BC069817A81C40181709070892B96
:1008000039F0A4E076956795AA95E1F79B0123C09E
:100810009B0140E050E03F70407050704AC0772725
:100820006B2D5A2D492DF30184859585A685B785B5
:10083000480F591F6A1F7B1F94013070220F331F0E
:10084000CE01019602E010E00E944C01882369F578
:1008500089819A819C0140E050E02BC0B501A40140
:1008600027E076956795579547952A95D1F7F30137
:1008700084859585A685B785480F591F6A1F7B1FFC
:1008800094012F773070220F331F220F331FCE01B8
:10089000019604E010E00E944C01882331F4298184
:1008A0003A814B815C815F7004C021E030E040E020
:1008B00050E0B901CA010F900F900F900F90CF91A7
:1008C000DF911F910F91FF90EF90DF90CF90BF903D
:1008D000AF909F908F907F906F900895AF92BF924E
:1008E000CF92DF92EF92FF920F931F93CF93DF93FC
:1008F0005C01C091FD00D091FE00FC01C080D18060
:100900000894C11CD11CC114D10409F48FC02485E2
:10091000358546855785211531054105510509F471
:1009200085C0C6018F709070892B09F07AC02F5F47
:100930003F4F4F4F5F4F2487358746875787408506
:10094000518562857385411551056105710539F43D
:100950008C819D81C816D90608F463C067C089815F
:1009600090E001979601E4E036952795EA95E1F746
:1009700082239323892B09F054C0CB01BA010E9432
:1009800082039B01AC01623071058105910510F471
:1009900081E04DC088859985AA85BB8528173907D0
:1009A0004A075B0708F042C0F5012087318742877C
:1009B0005387C091FD00D091FE008EEFE82E8FEF9F
:1009C000F82E8FEF082F8FEF182FE20EF31E041F63
:1009D000151F88859985AA85BB850297A109B1094C
:1009E000E816F9060A071B0728F020E030E040E08F
:1009F00050E012C0298130E040E050E0C801B7016A
:100A00000E94AA0D9B01AC018C899D89AE89BF898A
:100A1000280F391F4A1F5B1FF5012487358746873A
:100A20005787F501D182C08280E001C083E0DF9169
:100A3000CF911F910F91FF90EF90DF90CF90BF90DB
:100A4000AF9008952F923F924F925F926F927F9254
:100A50008F929F92AF92BF92CF92DF92EF92FF92CE
:100A60000F931F93CF93DF93E82FC091FD00D09198
:100A7000FE00209711F486E00DC18A8180FD02C03E
:100A800085E008C1AC8CBD8CCE8CDF8C4E2F592FED
:100A9000CB01DA013C014D01A614B704C804D90406
:100AA00010F435014601288D398D4A8D5B8D188EE5
:100AB000198E1A8E1B8E611471048104910409F43D
:100AC000E8C08981A82EBB24CC24DD2499E0AA0C9F
:100AD000BB1CCC1CDD1C9A95D1F7211531054105B5
:100AE0005105B1F119012A01089421083108410882
:100AF0005108C401B3016150704080409040A6018C
:100B000095010E94C90D79018A01C201B101A601B6
:100B100095010E94C90DE216F30604071507C0F0FF
:100B200088279927DC018A199B09AC09BD09822114
:100B30009321A421B521888F998FAA8FBB8F681A22
:100B4000790A8A0A9B0A2CA13DA14EA15FA133C05C
:100B500028A139A14AA15BA12CA33DA34EA35FA369
:100B60002AC0CA01B9010E9482039B01AC01623014
:100B700071058105910508F489C088859985AA8544
:100B8000BB85281739074A075B0708F07FC02CA3ED
:100B90003DA34EA35FA3888D998DAA8DBB8D8A0D31
:100BA0009B1DAC1DBD1D888F998FAA8FBB8F6A18A6
:100BB0007B088C089D08A614B704C804D90488F2E1
:100BC000888D998DAA8DBB8D860D971DA81DB91D89
:100BD000888F998FAA8FBB8F0091FD001091FE0026
:100BE0008EEFA82E8FEFB82E8FEFC82E8FEFD82E56
:100BF000A20EB31EC41ED51EF80180859185A28564
:100C0000B3850297A109B109A816B906CA06DB0681
:100C1000E8F5218130E040E050E0C601B5010E94D6
:100C2000AA0D9B01AC01F80184899589A689B78931
:100C3000280F391F4A1F5B1F21153105410551053A
:100C400029F1D401C30119E0B695A7959795879529
:100C50001A95D1F7982F8B83FFEFEF2EF1E0FF2E3F
:100C6000012D112D6E207F208022912261147104AC
:100C70008104910471F0280F311D411D511D28A7D9
:100C800039A74AA75BA79F5F9B8303C01A8281E0B5
:100C900001C080E0DF91CF911F910F91FF90EF9005
:100CA000DF90CF90BF90AF909F908F907F906F908C
:100CB0005F904F903F902F900895AF92BF92CF9248
:100CC000DF92EF92FF920F931F93DF93CF93CDB7F5
:100CD000DEB7AC970FB6F894DEBF0FBECDBF7C0178
:100CE0005B01E091FD00F091FE00309711F486E089
:100CF000C6C0CE010D9697838683CE010196D7019B
:100D000013969C938E9312976115710521F4C70178
:100D10000E940303B4C0C680D78083E026C0F701D9
:100D2000208131812F703070E5E0220F331FEA956A
:100D3000E1F7C60100E210E00E944C01882311F0A7
:100D400081E01FC0D6019C91992309F4A9C01B968C
:100D50008C91953E29F09E3219F08F7383FF1DC050
:100D6000C7010E946E04882361F4F701448555850C
:100D700066857785411551056105710581F68823E2
:100D800061F0D7011C961D921D921D921C921F9717
:100D9000833019F0882309F072C09501275F3F4F17
:100DA000F70184859585A685B7850097A105B105CE
:100DB00009F456C0E091FD00F091FE004681578194
:100DC00080E090E0FA01E80FF91FE081E03251F095
:100DD000E53009F4E5EED901ED939D0101968830E7
:100DE000910581F7FA018085803211F4F90110C074
:100DF000F9018EE28193DA012C5F3F4F18968C91B6
:100E00001897803229F081931196E217F307B1F712
:100E1000DA011B968C91D50118968C93DA015C96B9
:100E20000D911D912D913C915F97D5010D931D93CF
:100E30002D933C931397DA0158968D919C91599775
:100E4000D50115969C938E931497DA0156968D9141
:100E50009C915797D50117969C938E9316979F0157
:100E6000F9011082C7010E946E04833041F4D7015A
:100E70001C961D921D921D921C921F9780E0AC96AD
:100E80000FB6F894DEBF0FBECDBFCF91DF911F919B
:100E90000F91FF90EF90DF90CF90BF90AF900895AB
:100EA00083E06FCF8F929F92AF92BF92CF92DF92EB
:100EB000EF92FF920F931F93CF93DF93EC017B018F
:100EC00003C00894E11CF11CF70180818032C9F352
:100ED0008F3219F40894E11CF11C1C821D821E82C1
:100EE0001F82F7018081813268F4CE010E940303E2
:100EF000B82EE091FD00F091FE000680F781E02D14
:100F00001082ABC080E2882E99249394AA81BB8181
:100F1000FD018BE090E001C0819201972FEF8F3FA0
:100F20009207D1F720E0AA2438E002C028E03BE095
:100F3000F701EA0DF11D9081A3949132B0F09F3238
:100F4000A1F09E3211F0231728F0383071F49E3250
:100F500069F30BC0892F81568A3108F49052FD0144
:100F6000E20FF11D90832F5FE3CF1B961C921B971E
:100F7000913210F41B969C92CE010E940303B82E6E
:100F8000882309F03FC0E091FD00F091FE00C6808B
:100F9000D7804C855D856E857F85288139812F704E
:100FA000307005E0220F331F0A95E1F7C60100E219
:100FB00010E00E944C01882311F081E022C0F6016C
:100FC0008081882309F457C0838583FD15C0D6012D
:100FD0008A819B819C01F9012BE030E02150304057
:100FE0008FEF2F3F380709F449C09C9180819817F3
:100FF00019F411963196F2CFCE010E946E04882327
:1010000041F2B82EE3E0BE1641F5EA81FB8183850B
:10101000882309F122C0E091FD00F091FE000680D6
:10102000F781E02D838584FF16C0EA0CF11C8489CA
:101030009589A0E0B0E0DC0199278827228D338DC7
:1010400040E050E0822B932BA42BB52B8C839D8307
:10105000AE83BF835BCFA4E0BA2E8B2DDF91CF91FF
:101060001F910F91FF90EF90DF90CF90BF90AF90C6
:101070009F908F900895F3E0BF2EC7CFEA81FB8148
:101080008385882341F2E9CFEF92FF920F931F935C
:10109000DF93CF93CDB7DEB7AC970FB6F894DEBF32
:1010A0000FBECDBF8C01E091FD00F091FE003097A6
:1010B00011F486E032C03DE0E32EF12CEC0EFD1E73
:1010C000F782E682CE010196F80193838283C801FC
:1010D0000E9452078823F1F48D858823C1F0888D02
:1010E00084FF1AC0F70184899589A0E0B0E0DC0193
:1010F00099278827228D338D40E050E0822B932B57
:10110000A42BB52BF80184839583A683B783C801EC
:101110000E940303833009F484E0AC960FB6F89480
:10112000DEBF0FBECDBFCF91DF911F910F91FF901A
:10113000EF900895EF92FF920F931F93DF93CF9359
:10114000CDB7DEB7EC970FB6F894DEBF0FBECDBFBC
:10115000BC010091FD001091FE000115110511F474
:1011600066E041C0F80112825DE1E52EF12CEC0E43
:10117000FD1EF782E682CE010196988B8F87CE0105
:101180000D960E945207682F882369F58D8D88235C
:1011900049F188A584FD26C0F70184899589A0E0DE
:1011A000B0E0DC0199278827228D338D40E050E0A4
:1011B000822B932BA42BB52BF80180A391A3A2A380
:1011C000B3A3F701848D958DA68DB78DF801848F1B
:1011D000958FA68FB78F108E118E128E138E81E091
:1011E000828301C063E0862FEC960FB6F894DEBFD1
:1011F0000FBECDBFCF91DF911F910F91FF90EF9068
:1012000008954F925F926F927F928F929F92AF92CA
:10121000BF92CF92DF92EF92FF920F931F93CF93E3
:10122000DF933C016B014A01C091FD00D091FE00AB
:10123000FA0111821082209711F486E0DAC08A81C7
:1012400080FD02C085E0D5C02C8D3D8D4E8D5F8D1B
:10125000888D998DAA8DBB8D281B390B4A0B5B0B92
:10126000CB01A0E0B0E0281739074A075B0708F474
:1012700069015301412CF2E05F2EB3C0E88CF98C78
:101280000A8D1B8DD801C7019170A070B0700097B6
:10129000A105B10509F06BC0C801B701E9E0969559
:1012A000879577956795EA95D1F7298130E040E0F9
:1012B00050E00E94C90D6115710581059105D9F4B1
:1012C000E114F1040105110529F468A179A18AA1AD
:1012D0009BA106C06CA17DA18EA19FA10E9482034B
:1012E000623071058105910508F481C06CA37DA36E
:1012F0008EA39FA31B820091FD001091FE002CA1E4
:101300003DA14EA15FA12250304040405040F80125
:1013100080859185A285B3850297A109B109281717
:1013200039074A075B0708F062C0618170E080E01E
:1013300090E00E94AA0D9B01AC01F8018489958977
:10134000A689B789280F391F4A1F5B1F2115310550
:101350004105510509F44BC08B81280F311D411DFA
:10136000511D28A739A74AA75BA78F5F8B83088DDC
:10137000198D2A8D3B8DC8019170A201481B590B14
:1013800076014C155D0508F47A016114710419F4B5
:1013900080E090E001C0C50148A559A56AA57BA5DC
:1013A0009801317087010E944C01882301F5C70123
:1013B000A0E0B0E0288D398D4A8D5B8D280F391F54
:1013C0004A1F5B1F288F398F4A8F5B8FAE0CBF1C63
:1013D000CE18DF08F401808191818E0D9F1D9183CD
:1013E0008083C114D10409F049CF80E002C01A8281
:1013F00081E0DF91CF911F910F91FF90EF90DF90EF
:10140000CF90BF90AF909F908F907F906F905F90A4
:101410004F900895AF92BF92CF92DF92EF92FF92DA
:101420000F931F93CF93DF93B82EA92E6A017B01F0
:101430002EEF31E002E010E00E944C01882311F011
:1014400023E033C0CB2DDA2D8881998185559A4AC6
:1014500011F022E02AC08B2D9A2DB701A60126E3B8
:1014600030E002E010E00E944C01882339F48881CA
:1014700099818654914411F420E017C08B2D9A2D48
:10148000B701A60122E530E002E010E00E944C0125
:10149000882311F021E009C020E0888199818654D9
:1014A000914409F421E081E02827822FDF91CF9138
:1014B0001F910F91FF90EF90DF90CF90BF90AF9072
:1014C00008954F925F926F927F928F929F92AF9208
:1014D000BF92CF92DF92EF92FF920F931F93CF9321
:1014E000DF93FC015B013A01C091FD00D091FE0049
:1014F000DA011D921C92209711F486E008C18A81BE
:1015000090E080FD02C085E002C18074907061159A
:10151000710589F4892B59F080E090E040E050E0BB
:1015200060E070E00E94AE01882309F0EEC08A817D
:101530008F7B8A83E8C0892B51F4888D998DAA8D81
:10154000BB8D80709E7F888F998FAA8FBB8F2C8DCB
:101550003D8D4E8D5F8D888D998DAA8DBB8D281BFD
:10156000390B4A0B5B0BC501A0E0B0E02817390727
:101570004A075B0708F459014F01412CB2E05B2E8A
:10158000BEC0E88CF98C0A8D1B8DC7019170892B28
:1015900009F077C0C801B701A9E0969587957795BE
:1015A0006795AA95D1F7298130E040E050E00E948C
:1015B000C90D6115710581059105D9F4E114F10496
:1015C0000105110529F468A179A18AA19BA106C092
:1015D0006CA17DA18EA19FA10E9482036230710542
:1015E0008105910508F491C06CA37DA38EA39FA3F0
:1015F0001B820091FD001091FE002CA13DA14EA187
:101600005FA12250304040405040F80180859185D4
:10161000A285B3850297A109B109281739074A079E
:101620005B0708F072C0618170E080E090E00E948A
:10163000AA0D9B01AC01F80184899589A689B78917
:10164000280F391F4A1F5B1F211531054105510520
:1016500009F45BC08B81BA01A901480F511D611DBE
:10166000711D48A759A76AA77BA78F5F8B8380E06E
:1016700090E00E94AE01882309F047C08A8180640F
:101680008A83888D998D91709201281B390B650191
:101690002A153B0508F46901760100E010E0C40159
:1016A000B801A7010E94AE01882379F5888D998D34
:1016B000AA8DBB8D8E0D9F1DA01FB11F9C01888F11
:1016C000998FAA8FBB8FD3018D919C9111978C0D0F
:1016D0009D1D8D939C933170232B69F480E090E0E5
:1016E00040E050E060E070E00E94AE01882369F4C1
:1016F0008A818F7B8A838C0C9D1CAC18BD08A11439
:10170000B10409F03ECF80E002C01A8281E0DF918F
:10171000CF911F910F91FF90EF90DF90CF90BF90EE
:10172000AF909F908F907F906F905F904F900895B3
:101730006F927F928F929F92AF92BF92CF92DF92E1
:10174000EF92FF920F931F93DF93CF93CDB7DEB746
:10175000A4970FB6F894DEBF0FBECDBF5C01109208
:10176000FE001092FD00009709F4EDC00E942602D1
:1017700080FF02C082E0ECC04E010894811C911CE5
:10178000C40140E050E060E070E00E940A0A81304D
:1017900021F0CC24DD2476011BC0C40140E050E0E0
:1017A00060E070E02EEB31E000E110E00E944C01BF
:1017B000882309F0CAC08D81882309F4C8C0C98470
:1017C000DA84EB84FC84C401B701A6010E940A0AF2
:1017D000833009F4BAC0882309F0B9C0CE0101965C
:1017E000B701A6012DE030E004E210E00E944C01B8
:1017F000882309F0AAC08A859B85BC0180E090E01F
:10180000611571058105910521F4688D798D8A8DA9
:101810009B8D2C8130E040E050E00E94AA0D3B01FE
:101820004C018A819B81A0E0B0E0C80ED91EEA1E5F
:10183000FB1EF501C486D586E686F78689818183FD
:101840002D813E81358324838F8198857C0100E042
:1018500010E0E114F1040105110521F4EC88FD8884
:101860000E891F898A819B81A0E0B0E0E81AF90AFD
:101870000A0B1B0BE618F7080809190984E03695CE
:1018800027958A95E1F7C901A0E0B0E0E81AF90AC6
:101890000A0B1B0BF501218130E040E050E0C8014C
:1018A000B7010E94C90D2E5F3F4F4F4F5F4FF501AB
:1018B0002087318742875387273FFFE03F07F0E0CB
:1018C0004F07F0E05F0710F481E008C0275F3F4F4B
:1018D0004040504010F083E001C082E0F501808379
:1018E000833029F488A199A1AAA1BBA109C0F5015F
:1018F00084859585A685B785860D971DA81DB91D7C
:10190000808B918BA28BB38BF5018481958114E040
:10191000969587951A95E1F7A0E0B0E02485358586
:1019200046855785820F931FA41FB51F860D971DEF
:10193000A81DB91D848B958BA68BB78B1282B09294
:10194000FE00A092FD0080E003C081E001C087E0BE
:10195000A4960FB6F894DEBF0FBECDBFCF91DF9136
:101960001F910F91FF90EF90DF90CF90BF90AF90BD
:101970009F908F907F906F90089580FF02C0DB9AB8
:1019800001C0DB9881FF02C0DC9A01C0DC9882FFB5
:1019900002C0DD9A01C0DD9883FF02C0DE9A08957F
:1019A000DE98089589B390E023E0969587952A956F
:1019B000E1F78170CC998260CD998460CE9988607E
:1019C00008951F93D698D598D498D398D99ADA9A2F
:1019D0000E94D20C182F1295107FDA98DA9A0E9482
:1019E000D20CDA98812B1F910895D8980E94E10CAF
:1019F00008951F93182FD69AD59AD49AD39AD99826
:101A0000DA9A82958F700E94BD0CDA98DA9A812F4B
:101A10000E94BD0CDA980E94F50C87FDFCCF1F9147
:101A20000895D8980E94F90C0895D89A0E94F90C4C
:101A30000895982F8058883008F49770892F0E9455
:101A4000150D0895CF93DF93EC0108C0892F8058BE
:101A5000883008F49770892F0E94150D9991992369
:101A6000A9F7DF91CF910895CF93DF93EC010AC0DE
:101A7000892F8058883010F0892F02C0892F8770F5
:101A80000E94150DFE0121969491992389F7DF910B
:101A9000CF910895813009F480E46058860F0E9448
:101AA000110D089581E00E94110D08950F931F9369
:101AB000D69AD59AD49AD39AD09AD29AD19AD898BB
:101AC000DA98D99880E092EA0197F1F7D898D998F6
:101AD00080E30E94BD0C87E49CE20197F1F780E36C
:101AE0000E94BD0C04E111E0C8010197F1F780E20A
:101AF0000E94BD0CC8010197F1F788E20E94110D08
:101B000088E00E94110D8CE00E94110D86E00E9479
:101B1000110D0E94520D1F910F910895DF93CF93E5
:101B2000CDB7DEB761970FB6F894DEBF0FBECDBF5D
:101B3000BE016F5F7F4F4AE050E00E94F20D0E94AD
:101B4000220D61960FB6F894DEBF0FBECDBFCF91C8
:101B5000DF910895629FD001739FF001829FE00D95
:101B6000F11D649FE00DF11D929FF00D839FF00D1C
:101B7000749FF00D659FF00D9927729FB00DE11DC8
:101B8000F91F639FB00DE11DF91FBD01CF011124A5
:101B90000895A1E21A2EAA1BBB1BFD010DC0AA1FAE
:101BA000BB1FEE1FFF1FA217B307E407F50720F0C6
:101BB000A21BB30BE40BF50B661F771F881F991F41
:101BC0001A9469F760957095809590959B01AC018A
:101BD000BD01CF010895FB01DC0101900D920020B1
:101BE000E1F70895FB019F01E8944230C4F04532CB
:101BF000B4F44A3029F497FB1EF4909581959F4FD9
:101C0000642F77270E94230E805D8A330CF0895D54
:101C10008193CB010097A1F716F45DE251931082F6
:101C2000C9010C94130EDC01FC01672F719177231D
:101C3000E1F7329704C07C916D9370836291AE1787
:101C4000BF07C8F30895AA1BBB1B51E107C0AA1F19
:101C5000BB1FA617B70710F0A61BB70B881F991F4D
:101C60005A95A9F780959095BC01CD010895F894F7
:021C7000FFCFA4
:101C72006F64637A79743A20746573742E7478741D
:101C8200007A617069732D3E20746573742E7478C6
:101C9200740054455354202A2A2A2A007465737406
:101CA200202D2D2D2D0077726974652066696C6573
:101CB200206572726F72004F4B2C2020207A726561
:101CC200736574756A2020007265616420657272A2
:101CD2006F72006F7065726E2066696C6520657246
:101CE200726F72006D6F756E74206572726F720022
:101CF2006469736B20696E6974206572726F720019
:0A1D0200746573742E747874000089
:00000001FF
