:100000000C9432000C944F000C944F000C944F0051
:100010000C944F000C944F000C944F000C944F0024
:100020000C944F000C944F000C9466000C944F00FD
:100030000C944F000C944F000C944F000C944F0004
:100040000C944F000C944F000C944F000C944F00F4
:100050000C944F00C0F9A4B0999282D88090FF0010
:100060000000000011241FBECFE5D8E0DEBFCDBFE9
:1000700010E0A0E6B0E0EAEAF2E002C005900D92DE
:10008000A236B107D9F710E0A2E6B0E001C01D9298
:10009000A636B107E1F70E94B3000C9453010C940B
:1000A00000008FEF84BB85BB81B38F6081BB82B3BF
:1000B0008F6082BB83B7886083BF83B7856083BF4F
:1000C00087E28CBF89B7826089BF08951F920F9223
:1000D0000FB60F9211242F938F939F93EF93FF935B
:1000E00082B3807F82BB20916000213039F4E0919F
:1000F0006300F0E0EC5AFF4FE4911AC0223039F46B
:10010000E0916400F0E0EC5AFF4FE49111C024301C
:1001100039F4E0916500F0E0EC5AFF4FE49108C03B
:10012000283039F4E0916200F0E0EC5AFF4FE4919E
:10013000E5BB82B3922F90959F70807F982B92BBE6
:10014000822F880F80936000893018F081E08093BF
:100150006000FF91EF919F918F912F910F900FBEB3
:100160000F901F9018957F928F929F92AF92BF929F
:10017000CF92DF92EF92FF920F931F93CF93DF9373
:100180000E9451008AE08093630094E090936400A1
:1001900091E09093650080936200789420E737E1C6
:1001A0006AE0762E58E1852E5CEF952E4CE9A42E60
:1001B0004FEFB42E96EFC92E9FEFD92EE12C8CE68F
:1001C000F82E02C020E737E121503040C90168EE27
:1001D00073E00E943F01662319F06093630002C040
:1001E00070926300862F90E0889D8001899D100D9C
:1001F000989D100D1124E801C20FD31FCE0164E6B3
:1002000070E00E943F01662319F06093640009C00A
:1002100083E0283E380710F44AE001C040E04093F4
:100220006400862F90E08A9DF0018B9DF00D9A9DD1
:10023000F00D1124CE018E0F9F1F6AE070E00E9426
:100240003F01662319F06093650008C0243631052C
:1002500010F49AE001C090E090936500902F920F07
:100260009E0F6C9D802D1124890F80936200C70121
:100270000197F1F72115310509F0A6CFA3CFAA1BED
:10028000BB1B51E107C0AA1FBB1FA617B70710F081
:10029000A61BB70B881F991F5A95A9F780959095B3
:0A02A000BC01CD010895F894FFCFD2
:0202AA00010051
:00000001FF
