:100000000C942A000C943C000C943C000C943C0092
:100010000C943C000C943C000C943C000C943C0070
:100020000C943C000C943C000C943C000C943C0060
:100030000C943C000C943C000C943C000C943C0050
:100040000C943C000C943C000C943C000C943C0040
:100050000C943C0011241FBECFE5D8E0DEBFCDBF1D
:1000600010E0A0E6B0E001C01D92A136B107E1F7B3
:100070000E944E000C948A000C94000087B3806BA1
:1000800087BB8DB182658DB908958FB9779BFECFFF
:10009000C49A83E08A95F1F7C49808950F931F934B
:1000A000CF93DF9387B3806B87BB8DB182658DB9AA
:1000B00080E00E94450001E0C4E1D1E010E8009337
:1000C00060000EC00E94450088EE93E0FE0131976B
:1000D000F1F70197D9F780916000880F8093600055
:1000E00080916000882371F7109360000EC00E9419
:1000F000450088EE93E0FE013197F1F70197D9F7BB
:1001000080916000869580936000809160008823D4
:08011000B1F2EDCFF894FFCF2E
:00000001FF
