:100000001CC035C034C033C032C031C030C02FC076
:100010002EC02DC02CC02BC02843293230313020B7
:100020006D6972656B6B33360020204D6965726EA9
:10003000696B2020552C4920200011241FBECFEDD4
:10004000CDBF10E0A0E6B0E0E8E9F6E003C0C89557
:1000500031960D92A037B107D1F710E0A0E7B0E0DC
:1000600001C01D92AB38B107E1F75AD013C3C8CF16
:100070009F92AF92BF92CF92DF92EF92FF920F9337
:100080001F93CF93DF93C82FD92FC62ED72EB42E10
:10009000922E97FD02C0AA2406C0D095C195DF4FCD
:1000A000BA94AA24A394EC2CFD2C0894E11CF11C16
:1000B0000C2D1D2D8C2F9D2F6AE070E089D2CD2B49
:1000C00039F4C016D10621F0E02FF12F908204C040
:1000D000805DE02FF12F8083EE2DFF2DBA940894E0
:1000E000E11CF11C0F5F1F4F262F372FC22FD32F7C
:1000F0001B1404F3AA2011F08DE2819310828C2D41
:100100009D2DB6D28C2D9D2DDF91CF911F910F91FA
:10011000FF90EF90DF90CF90BF90AF909F900895A9
:100120001ABA1BBA88EE93E028EC30E0E22FF32FE6
:100130003197F1F70197D1F7FED1FAD189E290E03A
:10014000D8D181E060E0EDD188E190E0D2D180EDBE
:1001500097E028EC30E0E22FF32F3197F1F7019789
:10016000D1F7E6D187E886B9C2E0D0E088249924A7
:1001700066EC362E54E8652E53E0752E4BEC242E9B
:1001800030ED432E37E0532E37B8862D972D01974B
:10019000F1F7369A349BFECFA4B0B5B0CC24DD2461
:1001A0009D2D8C2D7B2D6A2D28EB38E840E050E00A
:1001B000F4D1E62EF72E082F192F60917900709157
:1001C0007A0080917B0090917C002AE530E040E04D
:1001D00050E0E3D1E60EF71E081F191F912F802F64
:1001E0007F2D6E2D2BE530E040E050E004D22093CF
:1001F000790030937A0040937B0050937C002093E9
:100200007500309376004093770050937800A114E6
:10021000B104C104D10429F081E3881578F08394F6
:100220000DC0882011F08A9449F410927500109244
:1002300076001092770010927800882427B8862DD7
:10024000972D0197F1F7369A3699FECF84B195B183
:10025000A82EB92ECC24DD2494E0A916B104C10443
:10026000D10440F08DEF9FEFAFEFBFEFA80EB91EA6
:10027000CA1EDB1E9D2D8C2D7B2D6A2D20E034E6C1
:1002800040E050E08AD12BE0969587957795679569
:100290002A95D1F722EC31E040E050E07ED1E62E05
:1002A000F72E082F192F60917D0070917E008091AC
:1002B0007F00909180002AE530E040E050E06DD171
:1002C000E60EF71E081F191F912F802F7F2D6E2D10
:1002D0002BE530E040E050E08ED120937D0030935C
:1002E0007E0040937F0050938000209371003093F4
:1002F0007200409373005093740095E0A916B10406
:10030000C104D10428F0A4E0A91578F093940DC09D
:10031000992011F09A9449F4109271001092720091
:1003200010927300109274009924209709F06DC008
:1003300080E062E0F6D080E690E0C9D06091750080
:1003400070917600809177009091780020E432E4FB
:100350004FE050E050D1B52FA42F932F822F61E8AA
:1003600070E042E020E384DEB2D08EE2A8D08A2D95
:100370009B2D61E870E043E020E37ADEA8D085E6BB
:1003800090E0A5D081E062E0CCD088E690E09FD0FC
:10039000E0907100F0907200009173001091740071
:1003A000912F802F7F2D6E2D28EE33E040E050E01E
:1003B00022D1B52FA42F932F822F68EE73E008D19E
:1003C000D82EC92E912F802F7F2D6E2D20E432E460
:1003D0004FE050E010D1B52FA42F932F822F61E86A
:1003E00070E041E020E244DE72D08EE268D08D2DD4
:1003F0009C2D61E870E043E020E33ADE68D08DE6B2
:1004000090E065D0C0E4D1E001C02197842D952D06
:100410000197F1F7B9CE80FF02C0C39A01C0C3981B
:1004200081FF02C0C49A01C0C49882FF02C0C59A6D
:1004300001C0C59883FF02C0C69A0895C698089562
:1004400086B390E023E0969587952A95E1F7817031
:10045000B4998260B5998460B699886008951F93B5
:10046000BE98BD98BC98BB98C19AC29AE9DF182F74
:100470001295107FC298C29AE3DFC298812B1F9118
:100480000895C098ECDF08951F93182FBE9ABD9A67
:10049000BC9ABB9AC198C29A82958F70BCDFC298F1
:1004A000C29A812FB8DFC298ECDF87FDFDCF1F9184
:1004B0000895C098E9DF0895C09AE6DF0895982F5F
:1004C0008058883008F49770892FF6DF0895CF930D
:1004D000DF93C82FD92F07C0892F8058883008F4A0
:1004E0009770892FE9DF99919923B1F7DF91CF9127
:1004F0000895CF93DF93C82FD92F09C0892F805833
:10050000883010F0892F02C0892F8770D5DFEC2F3B
:10051000FD2F2196C895902D992381F7DF91CF91DA
:100520000895813009F480E46058860FC2DF089591
:1005300081E0BFDF08950F931F93BE9ABD9ABC9AC6
:10054000BB9AB89ABA9AB99AC098C298C19880E3EF
:1005500095E70197F1F7C098C19880E35CDF88E0E8
:1005600090E20197F1F780E356DF08EC10E0802F6E
:10057000912F0197F1F780E24EDF802F912F0197A5
:10058000F1F788E296DF88E094DF8CE092DF86E086
:1005900090DFCEDF1F910F910895FF27EE27BB2735
:1005A000AA2760FF04C0A20FB31FE41FF51F220F8C
:1005B000331F441F551F969587957795679589F743
:1005C0000097760771F79F2F8E2F7B2F6A2F089544
:1005D00097FB092E07260AD077FD04D033D006D02A
:1005E00000201AF4709561957F4F0895F6F7909565
:1005F00081959F4F0895A1E21A2EAA1BBB1BEA2FDB
:10060000FB2F0DC0AA1FBB1FEE1FFF1FA217B307B2
:10061000E407F50720F0A21BB30BE40BF50B661FF4
:10062000771F881F991F1A9469F7609570958095B8
:100630009095262F372F482F592F6A2F7B2F8E2FDB
:100640009F2F0895AA1BBB1B51E107C0AA1FBB1F08
:10065000A617B70710F0A61BB70B881F991F5A954E
:10066000A9F780959095682F792F8A2F9B2F089551
:10067000A82FB92FE82FF92F672F71917723E1F772
:10068000329704C07C916D9370836291AE17BF075F
:08069000C8F30895F894FFCFB0
:1006980055203D200020560049203D2000204100E3
:00000001FF
