:100000000C943A000C94BC000C9457000C945700CC
:100010000C94CB000C9457000C9496050C9457004C
:100020000C9457000C9457000C946E000C945700DD
:100030000C9457000C94E9030C94AD030C945700F6
:100040000C9457000C9457000C9457000C945700D4
:100050000C945700C0F9A4B0999282D88090FF0008
:10006000000000202000636E7420002020007263D6
:10007000353A200011241FBECFE5D8E0DEBFCDBF4A
:1000800010E0A0E6B0E0E4ECF3E102C005900D92D0
:10009000A23CB107D9F711E0A2ECB0E001C01D927B
:1000A000AD33B107E1F70E94EC010C94E0090C9428
:1000B00000008FEF87BB88BB84B3806F84BB85B3A0
:1000C000806F85BB83B7886083BF83B7856083BF3C
:1000D00087E28CBF89B7826089BF08951F920F9213
:1000E0000FB60F9211242F938F939F93EF93FF934B
:1000F00085B3806F85BB2091C200222339F4E09143
:10010000CC00F0E0EC5AFF4FE4911AC0213039F4F2
:10011000E091CD00F0E0EC5AFF4FE49111C02230A5
:1001200039F4E091CE00F0E0EC5AFF4FE49108C0C2
:10013000233039F4E091CB00F0E0EC5AFF4FE4912A
:10014000E8BB95B3E22FF0E0E05AFF4F8081809545
:10015000892385BB822F8F5F8093C200843010F08B
:100160001092C200FF91EF919F918F912F910F906C
:100170000FBE0F901F9018951F920F920FB60F92FF
:1001800011248F9381E08093A8008F910F900FBE70
:100190000F901F9018951F920F920FB60F92112477
:1001A0008F939F938091E1009091E200009729F056
:1001B00001979093E2008093E1008091DD0090919F
:1001C000DE00009729F001979093DE008093DD0018
:1001D0008091CF009091D000009729F001979093E3
:1001E000D0008093CF008091D4009091D5000097EB
:1001F00029F001979093D5008093D4009F918F911F
:100200000F900FBE0F901F901895EF92FF920F93D3
:100210001F93FC01D80187018091C300882319F046
:10022000861709F078C08081FF24862379F4FF24A3
:10023000F3948091C400882349F4F092C40085E0CF
:1002400090E09093E2008093E1005BC08091C40055
:10025000882309F456C0FF20A9F0813001F5809170
:10026000E1009091E200892B09F04BC082E080937D
:10027000C40083E090E09093E2008093E1006093FB
:10028000C3003FC08230E8F18430D8F5109711F0F8
:10029000FD0109951092C4001092C30032C0823053
:1002A00099F48091E1009091E200892B51F521159C
:1002B000310511F426E930E083E08093C4003093E7
:1002C000E2002093E1001DC0833051F48091E100F1
:1002D0009091E200892BA9F484E08093C40011C0BE
:1002E000843079F48091E1009091E200892B49F407
:1002F0005093E2004093E1000115110511F0F8015F
:1003000009958091C400833030F0FF2021F41092D1
:10031000C4001092C3001F910F91FF90EF900895B9
:10032000AB98089585B398E0892785BB0895AB9A6B
:100330000895482F6AE00E948709282F30E084E062
:10034000220F331F8A95E1F7842F0E948709892F96
:10035000822B0895282F22952F709AE0299F9001D3
:1003600011248F70820F0895682F81E00E94F0049D
:100370008091D700882319F084E690E002C086E6D9
:1003800090E00E9490048091DC0090E00E946A0559
:1003900088E690E00E9490048091D60090E00E9450
:1003A0006A058AE690E00E949004089580E060E08B
:1003B0000E94F00486E690E00E94A2048091D3009F
:1003C0008F5F8093D300815090E00E946A0583E69E
:1003D00090E00E94A2040895AF92BF92CF92DF9264
:1003E000EF92FF920F931F93CF93DF9381B38774A4
:1003F00081BB82B3886B82BBA39AD79AAB9ADF9AF0
:1004000085B7826085BF8BB780648BBF929A85B5B4
:10041000886085BD85B5876085BD8CE683BD80E835
:1004200089BF0E9459001092CC001092CD0010920A
:10043000CE001092CB000E94FC048EE690E00E9459
:10044000900480E869EA70E00E94B8040E94860582
:1004500087E490E00E948503789487E790E00E940B
:10046000A1030E9479088093E00081E060E070E0E1
:100470000E94300888E99AE324E131E0F9013197DC
:10048000F1F70197D9F70E94F8048DE191E067ED4B
:1004900070E04CED50E026ED30E00E94D507882357
:1004A00011F40E94B401DD24C9E1D0E0AA24A39490
:1004B000FAE0CF2EBB24BA9480E390E068E044E1F8
:1004C00050E024EF31E000E911E0E2E9EE2EE1E056
:1004D000FE2E0E94050180E390E060E140E550E0DF
:1004E00020E931E007E911E076EDE72E71E0F72E23
:1004F0000E9405018091DD009091DE00892B59F466
:10050000D093DE00C093DD008091DF00882319F0D6
:100510008BB380588BBB0E94D403813311F4DF9AD4
:100520000BC0823311F4DF9807C0833329F4809124
:10053000DF008A258093DF008091A800882309F4DA
:1005400079C082EA61E044E028ED30E00E94920642
:100550004091D900642F62956F706C9DC001112489
:100560004F70840F8093D2003091DA00532F529550
:100570005F705C9DC00111243F70830F8093E30086
:100580002091DB00822F82958F708C9DC0011124F9
:100590002F70280F2093D1005093CC003093CD00C2
:1005A0006093CE004093CB0080E068E00E94F004AE
:1005B0008091D1008A3020F480E990E00E9490047C
:1005C0008091D10090E00E946A0582E990E00E944B
:1005D00090048091E3008A3020F480E990E00E944A
:1005E00090048091E30090E00E946A0582E990E027
:1005F0000E9490048091D2008A3020F480E990E03B
:100600000E9490048091D20090E00E946A05DD2053
:1006100009F06DC081E060E070E00E94300803C026
:1006200080E00E94B401D39481E08D1508F4DD24AC
:100630001092A80080911C01882309F43DCF80917D
:100640001901882331F480911A01813011F48093CB
:10065000DF0080911901882331F480911A018230E2
:1006600011F41092DF0080911901882329F4809100
:100670001A01843009F4DF9A80911901882329F442
:1006800080911A01853009F4DF9881E068E00E94CA
:10069000F0048EE690E00E94A20480911A0190E09E
:1006A0000E946A058BE690E00E94A20484E990E033
:1006B0000E94A1038091190190E06AE070E00E941D
:1006C0000A048EE990E00E94A10380911A0190E053
:1006D0006AE070E00E940A0485EA90E00E94A103AB
:1006E00010921C01B0921A01B0921901E5CE8DE171
:1006F00091E067ED70E04CED50E026ED30E00E94B7
:10070000D507882309F08FCF8BCF90BD89B988E1B9
:100710008AB986E880BD8AB188698AB90895282F88
:100720009091E4009F5F9F708091E5009817E1F33E
:10073000E92FF0E0EA51FF4F20839093E400559AAF
:100740000895CF93DF93EC0102C00E948F0389913B
:100750008823D9F7DF91CF9108951F920F920FB69A
:100760000F9211248F939F93EF93FF939091E40046
:100770008091E500981771F08091E5008F5F8F7090
:100780008093E500E091E500F0E0EA51FF4F8081C1
:100790008CB901C05598FF91EF919F918F910F9067
:1007A0000FBE0F901F9018959091F6008091F70062
:1007B000981711F480E008958091F7008F5F8F7192
:1007C0008093F700E091F700F0E0E850FF4F808160
:1007D00008951F920F920FB60F9211248F939F933B
:1007E000EF93FF939CB1E091F600EF5FEF71809182
:1007F000F700E81731F0E093F600F0E0E850FF4F23
:100800009083FF91EF919F918F910F900FBE0F906A
:100810001F9018950F931F93DF93CF93CDB7DEB73B
:1008200061970FB6F894DEBF0FBECDBFAB018E014E
:100830000F5F1F4FB8010E949309C8010E94A103D6
:1008400061960FB6F894DEBF0FBECDBFCF91DF919A
:100850001F910F91089580FF02C0DB9A01C0DB98C1
:1008600081FF02C0DC9A01C0DC9882FF02C0DD9AE1
:1008700001C0DD9883FF02C0DE9A0895DE980895D6
:1008800089B390E023E0969587952A95E1F78170EA
:10089000CC998260CD998460CE99886008951F9329
:1008A000D698D598D498D398D99ADA9A0E944004C9
:1008B000182F1295107FDA98DA9A0E944004DA987D
:1008C000812B1F910895D8980E944F0408951F937B
:1008D000182FD69AD59AD49AD39AD998DA9A82951B
:1008E0008F700E942B04DA98DA9A812F0E942B04D1
:1008F000DA980E94630487FDFCCF1F910895D89871
:100900000E9467040895D89A0E9467040895982F5A
:100910008058883008F49770892F0E9483040895C6
:10092000CF93DF93EC0108C0892F8058883008F4FA
:100930009770892F0E94830499919923A9F7DF91D9
:10094000CF910895CF93DF93EC010AC0892F80588F
:10095000883010F0892F02C0892F87700E9483048D
:10096000FE0121969491992389F7DF91CF91089503
:100970001F93CF93DF93EB0190E087709070089600
:10098000880F880F880F0E947F0410E089910E94D1
:1009900083041F5F1830D1F7DF91CF911F91089525
:1009A0000F931F93CF93DF938B0190E0877090702C
:1009B0000896880F880F880F0E947F04C0E0D0E05F
:1009C000F801EC0FFD1FE4918E2F0E948304219605
:1009D000C830D105A9F7DF91CF911F910F910895EC
:1009E000813009F480E46058860F0E947F040895E6
:1009F00081E00E947F0408950F931F93D69AD59AA1
:100A0000D49AD39AD09AD29AD19AD898DA98D99877
:100A100080E092EA0197F1F7D898D99880E30E9494
:100A20002B0487E49CE20197F1F780E30E942B04FA
:100A300004E111E0C8010197F1F780E20E942B0464
:100A4000C8010197F1F788E20E947F0488E00E94C4
:100A50007F048CE00E947F0486E00E947F040E9455
:100A6000F8041F910F9108950F931F93CF93DF9375
:100A70008B0190E0877090700896880F880F880F20
:100A80000E947F04C0E0D0E0C8018C0F9D1F0E942F
:100A9000B4090E9483042196C830D105A9F7DF91DB
:100AA000CF911F910F910895CF93DF93EC01219681
:100AB0000E94B409982F81508E3F48F48F57883098
:100AC00008F49770892F0E948304CE01EFCFDF9145
:100AD000CF910895DF93CF93CDB7DEB761970FB66F
:100AE000F894DEBF0FBECDBFBE016F5F7F4F4AE0FF
:100AF00050E00E9493090E94900461960FB6F8940A
:100B0000DEBF0FBECDBFCF91DF9108958E98969A2C
:100B10008EB582608EBD8EB58F7B8EBD10921B010F
:100B200089B7806289BF10921C0108951F920F92AD
:100B30000FB60F9211242F933F938F939F9326B557
:100B400037B58091C9009091CA00281B390B86B532
:100B500097B59093CA008093C9008EB590E4892719
:100B60008EBD8AE0203A380710F010921B01809168
:100B70001B01882319F081E08093C50080911B013F
:100B8000882389F41092C7001092C6001092C80002
:100B90008EB580648EBD80911B018F5F80931B0199
:100BA00082E08093C5008091C500813009F064C067
:100BB00083E0233B380710F41092C5008AE0203A06
:100BC000380710F01092C5008091C500813009F0FF
:100BD00053C02A5D354028F080911B018F5F8093C0
:100BE0001B0180911B01823008F441C080911B01E0
:100BF00080FD3DC08091C6009091C700880F991F6D
:100C00009093C7008093C6000EB406FE05C08160B5
:100C10009093C7008093C6008091C8008F5F809337
:100C2000C8008D3020F180911C018823D9F42091D7
:100C3000C6003091C700822F8F7380931A01C901BB
:100C4000807C9770689415F8969587951694E1F7CF
:100C50008093190120703870832F8695869586952C
:100C6000809318011092C50081E080931C0180914F
:100C70001B018F5F80931B018091C500882329F49D
:100C800010921B018EB58F7B8EBD9F918F913F91EE
:100C90002F910F900FBE0F901F90189584EA86BF7A
:100CA00006B607FEFDCF089584E986BF06B604FEAA
:100CB000FDCF089583B984E886BF06B607FEFDCF51
:100CC00008958295880F880F807C846886BF06B659
:100CD00007FEFDCF83B10895982FF90184EA86BFFE
:100CE00006B607FEFDCF93B984E886BF06B607FEB9
:100CF000FDCF63B984E886BF06B607FEFDCF09C005
:100D0000808183B996BF06B607FEFDCF319641506C
:100D100001C094E84423A1F784E986BF06B604FE27
:100D2000FDCF0895982FF90184EA86BF06B607FE25
:100D3000FDCF93B984E886BF06B607FEFDCF63B941
:100D400084E886BF06B607FEFDCF84EA86BF06B6F6
:100D500007FEFDCF9F5F93B984E886BF06B607FE06
:100D6000FDCF12C0415080E090E011F081E090E0B2
:100D700026E0880F991F2A95E1F7846886BF06B69A
:100D800007FEFDCF83B18193442361F784E986BFD9
:100D900006B604FEFDCF0895DC0120E040E050E0FF
:100DA00098E115C0FD01E40FF51FE08138E08E2FBA
:100DB0008227F82FF17080FD29272695F13009F45C
:100DC0002068315011F0E695F2CF4F5F5F4F461724
:100DD000570741F7822F0895AF92BF92DF92EF92AB
:100DE000FF920F931F93DF93CF93CDB7DEB760973A
:100DF0000FB6F894DEBF0FBECDBFD82E7A015901D1
:100E0000DE011196E1EBF0E080E101900D9281505E
:100E1000E1F7FB018081482F50E0918180E0482B71
:100E2000592BF0E1DF1679F4CA018E7F33E0880F89
:100E3000991F3A95E1F7FB0126814CE050E0421BF7
:100E40005109480F591F57FF07C081E0F701808300
:100E5000509541955F4F02C0F7011082F8E2DF160E
:100E600099F4FB018481682F70E0CB01807690704B
:100E70008036910549F066FF02C04E7F05C065FFD0
:100E800002C04C7F01C0487FCA0124E09695879537
:100E90002A95E1F7F5018083842F8F70FE01E80F1A
:100EA000F11D8181F801808380E060960FB6F8948F
:100EB000DEBF0FBECDBFCF91DF911F910F91FF908D
:100EC000EF90DF90BF90AF900895882319F0709550
:100ED00061957F4F442319F0309521953F4F62175C
:100EE00073071CF44FEF5FEF07C040E050E0261798
:100EF000370714F441E050E0CA0108957F928F92C1
:100F00009F92AF92BF92CF92DF92EF92FF920F9398
:100F10001F93DF93CF93CDB7DEB729970FB6F89421
:100F2000DEBF0FBECDBF782E6B015A0149018EEB9B
:100F300060E070E00E9468098E010F5F1F4F4AE079
:100F4000E42EF12CEC0EFD1E0E941809F80181938D
:100F50008F01EE15FF05C1F77E010894E11CF11C1D
:100F6000C70169E070E00E94CC06882311F083E09D
:100F700008C0872DB701A601950184010E94EC06E7
:100F800080E029960FB6F894DEBF0FBECDBFCF919B
:100F9000DF911F910F91FF90EF90DF90CF90BF9066
:100FA000AF909F908F907F9008956F927F928F92D5
:100FB0009F92AF92BF92CF92DF92EF92FF920F93E8
:100FC0001F93DF93CF93CDB7DEB729970FB6F89471
:100FD000DEBF0FBECDBF6C015B014A0139010E942B
:100FE000DB088EEBB6010E9468098E010F5F1F4F70
:100FF0005AE0E52EF12CEC0EFD1E0E941809F801B6
:1010000081938F01EE15FF05C1F77E010894E11C65
:10101000F11CC70169E070E00E94CC06882311F042
:1010200083E009C0F6018081B701A5019401830125
:101030000E94EC0680E029960FB6F894DEBF0FBE42
:10104000CDBFCF91DF911F910F91FF90EF90DF9077
:10105000CF90BF90AF909F908F907F906F900895AA
:101060001F93CF93DF93182FEB010E94DB080E94A0
:10107000D208882311F482E009C084E4BE010E94F2
:101080006809113011F00E94D50880E0DF91CF91FE
:101090001F9108950F931F938C010E94DB0884EB2E
:1010A000B8010E94680981E00E94F408182F0E948C
:1010B000DB08111111E0812F1F910F9108950F93FB
:1010C0001F93CF93DF938C01EB01F8018081BE0168
:1010D0000E941C09F801808381508D3F28F488818B
:1010E000883211F0803189F7DF91CF911F910F91F4
:1010F00008958F929F92AF92BF92CF92DF92FF920C
:101100000F931F93DF93CF93CDB7DEB729970FB619
:10111000F894DEBF0FBECDBF8FEF898300E010E0F3
:10112000E2E0CE2ED12CCC0EDD1E4E010894811CA7
:10113000911C7AE0A72EB12CAC0EBD1E19C0C401C3
:10114000B6010E945F0889818F3FC9F08E3FB9F0D8
:10115000D601F80163E0EE0FFF1F6A95E1F7E35E49
:10116000FE4F8D918193AA15BB05D9F70F5F1F4FD5
:10117000F02E8981882319F00430110501F78F2D95
:1011800029960FB6F894DEBF0FBECDBFCF91DF9189
:101190001F910F91FF90DF90CF90BF90AF909F90E5
:1011A0008F90089583B384700895AA9AA29A08959F
:1011B000AA98A2980895AA98A29A8FE295E001971A
:1011C000F1F78FB7F894A29893EF9A95F1F723B3BC
:1011D0008FBF88E794E00197F1F79A9902C081E008
:1011E0000895822F847008952FB7F894A29A93E0FF
:1011F0009A95F1F78111A29897E39A95F1F79A9B46
:1012000080E095EA9A95F1F7A2982FBF08950F9381
:101210001F93182F08E0812F81700E94F408169503
:10122000811110680150B9F7812F1F910F91089516
:101230008FEF0E9407090895DF92EF92FF920F93BC
:101240001F93CF93DF93E82EEB010E94DB088823E6
:10125000A1F580EF0E94070980E4FF24182F98EF82
:10126000D92ED80E81E00E94F408082F81E00E9458
:10127000F408882329F0002371F08EEFF82E1FC0A8
:10128000002349F41E1528F0888180FF04C0E11670
:1012900011F0F12E01E0802F0E94F40888818695DC
:1012A0008883002311F08068888311501D15D1F6C2
:1012B000112329F02196812FD1CFFF24FA948F2D6D
:1012C000DF91CF911F910F91FF90EF90DF900895E4
:1012D0000F931F93CF93DF93082FEB010E94DB083E
:1012E000209751F085E50E94070918E089910E9436
:1012F00007091150D9F703C08CEC0E940709802F11
:101300000E940709DF91CF911F910F910895991BBA
:1013100079E004C0991F961708F0961B881F7A95EC
:10132000C9F780950895FB019F01E8944230C4F00D
:101330004532B4F44A3029F497FB1EF49095819518
:101340009F4F642F77270E94CC09805D8A330CF071
:10135000895D8193CB010097A1F716F45DE251936B
:101360001082C9010C94BC09E199FECF9FBB8EBBD2
:10137000E09A99278DB30895DC01FC01672F7191E4
:101380007723E1F7329704C07C916D93708362916B
:10139000AE17BF07C8F30895AA1BBB1B51E107C0D6
:1013A000AA1FBB1FA617B70710F0A61BB70B881FF5
:1013B000991F5A95A9F780959095BC01CD01089584
:0413C000F894FFCFCF
:1013C400102040802D0020002E0080432000537404
:1013D4006172742E2E2E0050726F6A656B742077C2
:1013E40069656C6F7A6164616E696F77790D0A0063
:1013F40030003A007263353A206164723D00202067
:10140400636D643D000D0A00010C12120C202020B3
:101414002000010102020304040506060707080967
:021424000900BD
:00000001FF
