:100000000C9432000C944F000C944F000C944F0051
:100010000C944F000C944F000C9404020C944F006D
:100020000C944F000C944F000C944F000C944F0014
:100030000C944F000C944F000C944F000C944F0004
:100040000C944F000C944F000C944F000C944F00F4
:100050000C944F004B6F64792070696C6F74612051
:100060005243350011241FBECFE5D8E0DEBFCDBF1F
:1000700010E0A0E6B0E0E6E1F6E002C005900D92E7
:10008000A837B107D9F710E0A8E7B0E001C01D928A
:10009000A338B107E1F70E9451000C9409030C94B6
:1000A00000001F93D79ADF9A0E946A010E94F40110
:1000B000789480E060E00E945E0184E590E00E9418
:1000C00010011FEF809182008823E1F380917F006F
:1000D000882389F481E060E00E945E0180E690E080
:1000E0000E94FE008091800090E00E94D80186E688
:1000F00090E00E94FE0080917F00882359F4809157
:100100008000803139F481E06AE00E945E018AE675
:1001100090E006C081E06AE00E945E0181E790E025
:100120000E94FE00109282001093800010937F00C6
:10013000C9CF80FF02C0DB9A01C0DB9881FF02C0FB
:10014000DC9A01C0DC9882FF02C0DD9A01C0DD9814
:1001500083FF02C0DE9A0895DE98089589B390E087
:1001600023E0969587952A95E1F78170CC99826076
:10017000CD998460CE99886008951F93D698D598BC
:10018000D498D398D99ADA9A0E94AE00182F129573
:10019000107FDA98DA9A0E94AE00DA98812B1F91CC
:1001A0000895D8980E94BD0008951F93182FD69ADD
:1001B000D59AD49AD39AD998DA9A82958F700E9458
:1001C0009900DA98DA9A812F0E949900DA980E94B1
:1001D000D10087FDFCCF1F910895D8980E94D500CB
:1001E0000895D89A0E94D5000895982F8058883095
:1001F00008F49770892F0E94F1000895CF93DF9340
:10020000EC0108C0892F8058883008F49770892F36
:100210000E94F10099919923A9F7DF91CF91089558
:10022000CF93DF93EC010AC0892F8058883010F0FB
:10023000892F02C0892F87700E94F100FE0121964C
:100240009491992389F7DF91CF9108951F93CF93CC
:10025000DF93EB0190E0877090700896880F880F0D
:10026000880F0E94ED0010E089910E94F1001F5F4D
:100270001830D1F7DF91CF911F9108950F931F93FD
:10028000CF93DF938B0190E0877090700896880F72
:10029000880F880F0E94ED00C0E0D0E0F801EC0F5D
:1002A000FD1FE4918E2F0E94F1002196C830D105E8
:1002B000A9F7DF91CF911F910F910895813009F433
:1002C00080E46058860F0E94ED00089581E00E944E
:1002D000ED0008950F931F93D69AD59AD49AD39A86
:1002E000D09AD29AD19AD898DA98D99880E092EA9E
:1002F0000197F1F7D898D99880E30E94990087E494
:100300009CE20197F1F780E30E94990004E111E07B
:10031000C8010197F1F780E20E949900C801019796
:10032000F1F788E20E94ED0088E00E94ED008CE089
:100330000E94ED0086E00E94ED000E9466011F9180
:100340000F9108950F931F93CF93DF938B0190E04C
:10035000877090700896880F880F880F0E94ED00B4
:10036000C0E0D0E0C8018C0F9D1F0E94DD020E94FA
:10037000F1002196C830D105A9F7DF91CF911F91E7
:100380000F910895CF93DF93EC0121960E94DD0237
:10039000982F81508E3F48F48F57883008F497701B
:1003A000892F0E94F100CE01EFCFDF91CF91089508
:1003B000DF93CF93CDB7DEB761970FB6F894DEBF6A
:1003C0000FBECDBFBE016F5F7F4F4AE050E00E947D
:1003D000BC020E94FE0061960FB6F894DEBF0FBE0D
:1003E000CDBFCF91DF9108958E98969A8EB5826099
:1003F0008EBD8EB58F7B8EBD1092810089B78062D5
:1004000089BF1092820008951F920F920FB60F922B
:1004100011242F933F938F939F9326B537B58091E7
:100420007C0090917D00281B390B86B597B5909381
:100430007D0080937C008EB590E489278EBD8AE094
:10044000203A380710F010928100809181008823B3
:1004500019F081E08093780080918100882389F4ED
:1004600010927A001092790010927B008EB5806411
:100470008EBD809181008F5F8093810082E08093A8
:10048000780080917800813009F064C083E0233BDC
:10049000380710F4109278008AE0203A380710F0FC
:1004A0001092780080917800813009F053C02A5D65
:1004B000354028F0809181008F5F8093810080918A
:1004C0008100823008F441C08091810080FD3DC0F0
:1004D0008091790090917A00880F991F90937A000B
:1004E000809379000EB406FE05C0816090937A0077
:1004F0008093790080917B008F5F80937B008D30AB
:1005000020F1809182008823D9F4209179003091E4
:100510007A00822F8F7380938000C901807C97704E
:10052000689415F8969587951694E1F780937F0067
:1005300020703870832F86958695869580937E00EF
:100540001092780081E080938200809181008F5F1B
:100550008093810080917800882329F41092810093
:100560008EB58F7B8EBD9F918F913F912F910F9074
:100570000FBE0F901F901895FB019F01E894423029
:10058000C4F04532B4F44A3029F497FB1EF4909538
:1005900081959F4F642F77270E94F502805D8A33F3
:1005A0000CF0895D8193CB010097A1F716F45DE211
:1005B00051931082C9010C94E502E199FECF9FBBD3
:1005C0008EBBE09A99278DB30895DC01FC01672F5B
:1005D00071917723E1F7329704C07C916D9370831A
:1005E0006291AE17BF07C8F30895AA1BBB1B51E168
:1005F00007C0AA1FBB1FA617B70710F0A61BB70B93
:10060000881F991F5A95A9F780959095BC01CD0137
:060610000895F894FFCFED
:100616006B65793A200020202000766F6C5F75703C
:0806260000202020202020000C
:00000001FF
