:100000000C942F000C944E000C944C000C944C005B
:100010000C944C000C944C000C944C000C944C0030
:100020000C944C000C944C000C944C000C944C0020
:100030000C944C000C944C000C944C000C944C0010
:100040000C944C000C944C000C944C000C944C0000
:100050000C944C0073746172742E2E2E00001124C7
:100060001FBECFE5D8E0DEBFCDBF10E0A0E6B0E018
:10007000ECE8F7E002C005900D92AC36B107D9F775
:1000800010E0ACE6B0E001C01D92A437B107E1F783
:100090000E94EC000C94C4030C9400001F920F9279
:1000A0000FB60F9211248F9381E080936B008F9194
:1000B0000F900FBE0F901F901895482F6AE00E9476
:1000C0006B03282F30E084E0220F331F8A95E1F77D
:1000D000842F0E946B03892F822B0895282F22954D
:1000E0002F709AE0299F900111248F70820F08953C
:1000F0008F929F92BF92CF92DF92EF92FF920F93D7
:100100001F93CF93DF93B82EEB018A017901C12CA5
:1001100096E3D92E18C00E94ED024E01892D880F5A
:100120008B290E94F9028C2F0E94F902F70181911C
:100130007F010E94F9020E94F302C6010197F1F7C4
:100140002196015010400115110529F7DF91CF913B
:100150001F910F91FF90EF90DF90CF90BF909F90F5
:100160008F900895AF92BF92CF92DF92EF92FF925D
:100170000F931F93CF93DF93D82EEB018A01790160
:10018000C82EC3941BC00E94ED025E018B2D880F08
:100190008D290E94F9028C2F0E94F9020E94ED0223
:1001A0008C2D0E94F90280E00E940003F7018193E8
:1001B0007F010E94F30221960150104001151105A4
:1001C00011F7DF91CF911F910F91FF90EF90DF908A
:1001D000CF90BF90AF900895CF92DF92EF92FF92B1
:1001E0000F931F93DF93CF9300D000D0CDB7DEB72E
:1001F000D79ADF9A85B7826085BF8BB780648BBF43
:10020000929A0E94540284E690E00E94DE02789462
:1002100084E590E00E94FA0188EA6DEF70E047E023
:1002200050E024E630E00E9478006E010894C11C82
:10023000D11C4AE0E42E80916B008823E1F382EA2E
:1002400061E044E096010E9431032A81822F829569
:100250008F708E9DC00111243FE0F32EF222F80E24
:100260002B81822F82958F708E9DC0011124022FC9
:100270000F70080F2C81822F82958F708E9DC00188
:100280001124122F1F70180F81E060E00E944802B5
:100290001A3020F480E690E00E94E801812F90E07F
:1002A0000E94C20282E690E00E94E8010A3020F437
:1002B00080E690E00E94E801802F90E00E94C20258
:1002C00082E690E00E94E80189E08F1520F080E648
:1002D00090E00E94E8018F2D90E00E94C20288EA1F
:1002E0006DEF70E047E050E02CE630E00E94B20095
:1002F00080E069E00E9448028CE690E00E94E801FC
:1003000010926B0098CF80FF02C0DB9A01C0DB988F
:1003100081FF02C0DC9A01C0DC9882FF02C0DD9A36
:1003200001C0DD9883FF02C0DE9A0895DE9808952B
:1003300089B390E023E0969587952A95E1F781703F
:10034000CC998260CD998460CE99886008951F937E
:10035000D698D598D498D398D99ADA9A0E949801C9
:10036000182F1295107FDA98DA9A0E949801DA987D
:10037000812B1F910895D8980E94A70108951F937B
:10038000182FD69AD59AD49AD39AD998DA9A829570
:100390008F700E948301DA98DA9A812F0E9483017C
:1003A000DA980E94BB0187FDFCCF1F910895D89871
:1003B0000E94BF010895D89A0E94BF010895982F06
:1003C0008058883008F49770892F0E94DB010895C7
:1003D000CF93DF93EC0108C0892F8058883008F450
:1003E0009770892F0E94DB0199919923A9F7DF91DA
:1003F000CF910895CF93DF93EC010AC0892F8058E5
:10040000883010F0892F02C0892F87700E94DB018D
:10041000FE0121969491992389F7DF91CF91089558
:100420001F93CF93DF93EB0190E087709070089655
:10043000880F880F880F0E94D70110E089910E94D1
:10044000DB011F5F1830D1F7DF91CF911F91089525
:100450000F931F93CF93DF938B0190E08770907081
:100460000896880F880F880F0E94D701C0E0D0E05F
:10047000F801EC0FFD1FE4918E2F0E94DB01219605
:10048000C830D105A9F7DF91CF911F910F91089541
:10049000813009F480E46058860F0E94D7010895E6
:1004A00081E00E94D70108950F931F93D69AD59AA1
:1004B000D49AD39AD09AD29AD19AD898DA98D998CD
:1004C00080E092EA0197F1F7D898D99880E30E94EA
:1004D000830187E49CE20197F1F780E30E948301A6
:1004E00004E111E0C8010197F1F780E20E94830165
:1004F000C8010197F1F788E20E94D70188E00E94C5
:10050000D7018CE00E94D70186E00E94D7010E94AB
:1005100050021F910F9108950F931F93CF93DF9374
:100520008B0190E0877090700896880F880F880F75
:100530000E94D701C0E0D0E0C8018C0F9D1F0E942F
:10054000AC030E94DB012196C830D105A9F7DF91E9
:10055000CF911F910F910895CF93DF93EC012196D6
:100560000E94AC03982F81508E3F48F48F578830FB
:1005700008F49770892F0E94DB01CE01EFCFDF9145
:10058000CF910895DF93CF93CDB7DEB761970FB6C4
:10059000F894DEBF0FBECDBFBE016F5F7F4F4AE054
:1005A00050E00E948B030E94E80161960FB6F89418
:1005B000DEBF0FBECDBFCF91DF910895BC0183E3B5
:1005C0009BE20E947703603130F0862F90E04097E5
:1005D00095958795682F60B9089584EA86BF06B619
:1005E00007FEFDCF089584E986BF06B604FEFDCF61
:1005F000089583B984E886BF06B607FEFDCF089547
:100600008295880F880F807C846886BF06B607FEB7
:10061000FDCF83B10895982FF90184EA86BF06B60D
:1006200007FEFDCF93B984E886BF06B607FEFDCF6F
:1006300063B984E886BF06B607FEFDCF09C0808196
:1006400083B996BF06B607FEFDCF3196415001C073
:1006500094E84423A1F784E986BF06B604FEFDCFE3
:100660000895982FF90184EA86BF06B607FEFDCFEC
:1006700093B984E886BF06B607FEFDCF63B984E868
:1006800086BF06B607FEFDCF84EA86BF06B607FE24
:10069000FDCF9F5F93B984E886BF06B607FEFDCF06
:1006A00012C0415080E090E011F081E090E036E02F
:1006B000880F991F3A95E1F7846886BF06B607FE52
:1006C000FDCF83B18193442361F784E986BF06B6E9
:1006D00004FEFDCF0895991B79E004C0991F961779
:1006E00008F0961B881F7A95C9F780950895AA1B74
:1006F000BB1B51E107C0AA1FBB1FA617B70710F00D
:10070000A61BB70B881F991F5A95A9F7809590953E
:10071000BC01CD010895FB019F01E8944230C4F073
:100720004532B4F44A3029F497FB1EF49095819534
:100730009F4F642F77270E947703805D8A330CF0E8
:10074000895D8193CB010097A1F716F45DE2519387
:100750001082C9010C94B403E199FECF9FBB8EBBFC
:10076000E09A99278DB30895DC01FC01672F719100
:100770007723E1F7329704C07C916D937083629187
:0C078000AE17BF07C8F30895F894FFCF30
:0C078C0030003A00454550524F4D00012E
:00000001FF
