:100000000C942F000C944E000C944C000C944C005B
:100010000C944C000C944C000C944C000C944C0030
:100020000C944C000C944C000C944C000C944C0020
:100030000C944C000C944C000C944C000C944C0010
:100040000C944C000C944C000C944C000C944C0000
:100050000C944C0073746172742E2E2E00001124C7
:100060001FBECFE5D8E0DEBFCDBF10E0A0E6B0E018
:10007000E8EEF7E002C005900D92AC36B107D9F773
:1000800010E0ACE6B0E001C01D92A437B107E1F783
:100090000E94EC000C94F2030C9400001F920F924B
:1000A0000FB60F9211248F9381E080936B008F9194
:1000B0000F900FBE0F901F901895482F6AE00E9476
:1000C0009903282F30E084E0220F331F8A95E1F74F
:1000D000842F0E949903892F822B0895282F22951F
:1000E0002F709AE0299F900111248F70820F08953C
:1000F0008F929F92BF92CF92DF92EF92FF920F93D7
:100100001F93CF93DF93B82EEB018A017901C12CA5
:1001100096E3D92E18C00E94DC024E01892D880F6B
:100120008B290E94F9028C2F0E94F902F70181911C
:100130007F010E94F9020E94EC02C6010197F1F7CB
:100140002196015010400115110529F7DF91CF913B
:100150001F910F91FF90EF90DF90CF90BF909F90F5
:100160008F900895AF92BF92CF92DF92EF92FF925D
:100170000F931F93CF93DF93D82EEB018A01790160
:10018000C82EC3941BC00E94DC025E018B2D880F19
:100190008D290E94F9028C2F0E94F9020E94E2022E
:1001A0008C2D0E94F90280E00E942603F7018193C2
:1001B0007F010E94EC0221960150104001151105AB
:1001C00011F7DF91CF911F910F91FF90EF90DF908A
:1001D000CF90BF90AF900895CF92DF92EF92FF92B1
:1001E0000F931F93DF93CF9300D000D0CDB7DEB72E
:1001F000D79ADF9A85B7826085BF8BB780648BBF43
:10020000929A0E9449030E945202789484E590E0F9
:100210000E94F80188EA6DEF70E047E050E024E6C4
:1002200030E00E9478006E010894C11CD11C4AE0A5
:10023000E42E80916B008823E1F382EA61E044E0E0
:1002400096010E946D032A81822F82958F708E9D68
:10025000C00111243FE0F32EF222F80E2B81822FF1
:1002600082958F708E9DC0011124022F0F70080F90
:100270002C81822F82958F708E9DC0011124122FA8
:100280001F70180F81E060E00E9446021A3020F4CF
:1002900080E690E00E94E601812F90E00E94C0027B
:1002A00082E690E00E94E6010A3020F480E690E0C9
:1002B0000E94E601802F90E00E94C00282E690E05A
:1002C0000E94E60189E08F1520F080E690E00E9410
:1002D000E6018F2D90E00E94C00288EA6DEF70E089
:1002E00047E050E02CE630E00E94B20080E069E098
:1002F0000E9446028CE690E00E94E60110926B009C
:1003000098CF80FF02C0DB9A01C0DB9881FF02C05A
:10031000DC9A01C0DC9882FF02C0DD9A01C0DD9842
:1003200083FF02C0DE9A0895DE98089589B390E0B5
:1003300023E0969587952A95E1F78170CC998260A4
:10034000CD998460CE99886008951F93D698D598EA
:10035000D498D398D99ADA9A0E949601182F1295B8
:10036000107FDA98DA9A0E949601DA98812B1F9111
:100370000895D8980E94A50108951F93182FD69A22
:10038000D59AD49AD39AD998DA9A82958F700E9486
:100390008101DA98DA9A812F0E948101DA980E940D
:1003A000B90187FDFCCF1F910895D8980E94BD0127
:1003B0000895D89A0E94BD010895982F80588830DA
:1003C00008F49770892F0E94D9010895CF93DF9385
:1003D000EC0108C0892F8058883008F49770892F65
:1003E0000E94D90199919923A9F7DF91CF9108959E
:1003F000CF93DF93EC010AC0892F8058883010F02A
:10040000892F02C0892F87700E94D901FE01219691
:100410009491992389F7DF91CF9108951F93CF93FA
:10042000DF93EB0190E0877090700896880F880F3B
:10043000880F0E94D50110E089910E94D9011F5FA9
:100440001830D1F7DF91CF911F9108950F931F932B
:10045000CF93DF938B0190E0877090700896880FA0
:10046000880F880F0E94D501C0E0D0E0F801EC0FA2
:10047000FD1FE4918E2F0E94D9012196C830D1052D
:10048000A9F7DF91CF911F910F910895813009F461
:1004900080E46058860F0E94D501089581E00E9493
:1004A000D50108950F931F93D69AD59AD49AD39ACB
:1004B000D09AD29AD19AD898DA98D99880E092EACC
:1004C0000197F1F7D898D99880E30E94810187E4D9
:1004D0009CE20197F1F780E30E94810104E111E0C1
:1004E000C8010197F1F780E20E948101C8010197DC
:1004F000F1F788E20E94D50188E00E94D5018CE0E6
:100500000E94D50186E00E94D5010E944E021F91F3
:100510000F9108950F931F93CF93DF938B0190E07A
:10052000877090700896880F880F880F0E94D501F9
:10053000C0E0D0E0C8018C0F9D1F0E94C6030E943E
:10054000D9012196C830D105A9F7DF91CF911F912C
:100550000F910895CF93DF93EC0121960E94C6037B
:10056000982F81508E3F48F48F57883008F4977049
:10057000892F0E94D901CE01EFCFDF91CF9108954D
:10058000DF93CF93CDB7DEB761970FB6F894DEBF98
:100590000FBECDBFBE016F5F7F4F4AE050E00E94AB
:1005A000A5030E94E60161960FB6F894DEBF0FBE68
:1005B000CDBFCF91DF910895A99881E08A95F1F799
:1005C000A898089582E08A95F1F7A89AA99881E001
:1005D0008A95F1F7A8980895A99882E0982F9A959E
:1005E000F1F7A89A91E09A95F1F7A99A8A95F1F70F
:1005F0000895582F90E820E030E062E0892F8523AD
:1006000011F0A99A01C0A99842E0862F8A95F1F7C6
:10061000A89A862F8A95F1F7A89896952F5F3F4F55
:100620002830310559F7A99AA198842F8A95F1F7B6
:10063000A89A83B3942F9A95F1F7A898A19A942F2A
:100640009A95F1F78695809581700895A99AA19859
:1006500028E030E042E0942F9A95F1F7A89A330F02
:1006600099993160942F9A95F1F7A898215099F7AC
:10067000A19A882311F0A99801C0A99A82E0982F25
:100680009A95F1F7A89A8A95F1F7A898A99A832FD5
:100690000895A19AA09AA99AA89A08950F931F93D2
:1006A000CF93DF93162F042FE901A99891E09A9533
:1006B000F1F7A8980E94F902812F0E94F90204C064
:1006C00089910E94F90201500023D1F70E94EC02A7
:1006D000DF91CF911F910F910895FF920F931F9378
:1006E000CF93DF93182F062FF42EE901A99881E00C
:1006F0008A95F1F7A898812F0E94F902802F0E9415
:10070000F9020E94E202812F81600E94F90207C073
:10071000FA9480E009F081E00E9426038993FF208B
:10072000B9F70E94EC02DF91CF911F910F91FF90DA
:100730000895991B79E004C0991F961708F0961B3D
:10074000881F7A95C9F780950895FB019F01E89469
:100750004230C4F04532B4F44A3029F497FB1EF419
:10076000909581959F4F642F77270E94DE03805DCF
:100770008A330CF0895D8193CB010097A1F716F4C1
:100780005DE251931082C9010C94CE03E199FECF32
:100790009FBB8EBBE09A99278DB30895DC01FC01C5
:1007A000672F71917723E1F7329704C07C916D93A5
:1007B00070836291AE17BF07C8F30895AA1BBB1BD5
:1007C00051E107C0AA1FBB1FA617B70710F0A61B51
:1007D000B70B881F991F5A95A9F780959095BC0172
:0807E000CD010895F894FFCF4C
:0C07E80030003A00454550524F4D0001D2
:00000001FF
