:100000000C942A000C9447000C9447000C94470071
:100010000C9447000C9447000C9447000C94470044
:100020000C9447000C9447000C9447000C94470034
:100030000C9447000C9447000C9447000C94470024
:100040000C9449000C9447000C9447000C94470012
:100050000C94470011241FBECFE5D8E0DEBFCDBF12
:1000600010E0A0E6B0E0EAEDF6E002C005900D92E7
:10007000A637B107D9F710E0A6E7B0E001C01D929E
:10008000A538B107E1F70E94A0000C946B030C9413
:1000900000001F920F920FB60F9211240F900FBE07
:1000A0000F901F9018959F92AF92BF92CF92DF92C0
:1000B000EF92FF920F931F93CF93DF93EC016B01AD
:1000C000B42E922E97FD02C0AA2406C0D095C195E9
:1000D000DF4FBA94AA24A39476010894E11CF11C82
:1000E0008601CE016AE070E00E94E902CD2B31F476
:1000F000C016D10619F0F801908203C0805DF801A6
:100100008083F701BA940894E11CF11C0F5F1F4F24
:10011000EB011B1434F3AA2011F08DE281931082BD
:10012000C6010E943203C601DF91CF911F910F914A
:10013000FF90EF90DF90CF90BF90AF909F90089589
:100140002F923F924F925F926F927F929F92AF92C7
:10015000BF92CF92DF92EF92FF920F931F93CF93B4
:10016000DF930E94400281B3886181BB939A949887
:1001700087E087B987B1806C87B987E886B97894BA
:100180000E943C0280E690E00E94D40180E197E268
:1001900024E131E0F9013197F1F70197D9F7EE2425
:1001A000FF24870145E0942E34E1232E31E0332EE5
:1001B0002CEC422E2AE0522E369A369BFECF84B18A
:1001C00095B1A0E0B0E08093810090938200A0936D
:1001D0008300B093840092E0EE0CFF1C001F111FFF
:1001E0009A95D1F76091810070918200809183008F
:1001F000909184002AE934E740E050E00E94CA026E
:10020000E60EF71E081F191FC801B70125E030E0F0
:1002100040E050E00E94FC02D22EC32EB42EA52E48
:10022000822F932FA42FB52F7C018D01992009F0E7
:1002300048C080E060E00E943402672811F4CD2BB2
:1002400019F089E690E002C08BE690E00E94D401AC
:100250006D2D7C2D8B2D9A2D20E432E44FE050E063
:100260000E94FC02DA01C90139010E94AE028DE64A
:1002700090E00E94D4016D2D7C2D8B2D9A2D28EEBF
:1002800033E040E050E00E94FC02DA01C90168EE70
:1002900073E00E94E902282F392FE90167E770E037
:1002A00043E020E30E9453000E94D4018FE690E0D7
:1002B0000E94D40181E060E00E94340287E0982E21
:1002C00001C09A9488EE93E0F1013197F1F701971C
:1002D000D9F7949AC2010197F1F794986DCF80FFF6
:1002E00002C0C49A01C0C49881FF02C0C59A01C06F
:1002F000C59882FF02C0C69A01C0C69883FF02C09B
:10030000C79A0895C798089586B390E024E096951B
:1003100087952A95E1F78170B5998260B6998460D6
:10032000B799886008951F93BF98BE98BD98BC98F0
:10033000C19AC29A0E948401182F1295107FC29808
:10034000C29A0E948401C298812B1F910895C0987F
:100350000E94930108951F93182FBF9ABE9ABD9AC9
:10036000BC9AC198C29A82958F700E946F01C29800
:10037000C29A812F0E946F01C2980E94A70187FD37
:10038000FCCF1F910895C0980E94AB010895C09AB8
:100390000E94AB010895982F8058883008F4977018
:1003A000892F0E94C7010895CF93DF93EC0108C005
:1003B000892F8058883008F49770892F0E94C701D0
:1003C00099919923A9F7DF91CF910895CF93DF9366
:1003D000EC010AC0892F8058883010F0892F02C0A4
:1003E000892F87700E94C701FE012196949199235D
:1003F00089F7DF91CF9108951F93CF93DF93EB019E
:1004000090E0877090700896880F880F880F0E9480
:10041000C30110E089910E94C7011F5F1830D1F716
:10042000DF91CF911F9108950F931F93CF93DF9387
:100430008B0190E0877090700896880F880F880F66
:100440000E94C301C0E0D0E0F801EC0FFD1FE49171
:100450008E2F0E94C7012196C830D105A9F7DF91E0
:10046000CF911F910F910895813009F480E4605875
:10047000860F0E94C301089581E00E94C301089580
:100480000F931F93BF9ABE9ABD9ABC9AB89ABA9A14
:10049000B99AC098C298C19880E092EA0197F1F7A2
:1004A000C098C19880E30E946F0187E49CE20197A5
:1004B000F1F780E30E946F0104E111E0C8010197A8
:1004C000F1F780E20E946F01C8010197F1F788E21D
:1004D0000E94C30188E00E94C3018CE00E94C30116
:1004E00086E00E94C3010E943C021F910F91089573
:1004F0000F931F93CF93DF938B0190E087709070E1
:100500000896880F880F880F0E94C301C0E0D0E0D2
:10051000C8018C0F9D1F0E9463030E94C701219692
:10052000C830D105A9F7DF91CF911F910F910895A0
:10053000CF93DF93EC0121960E946303982F8150A3
:100540008E3F48F48F57883008F49770892F0E94A7
:10055000C701CE01EFCFDF91CF910895DF93CF9305
:10056000CDB7DEB761970FB6F894DEBF0FBECDBF33
:10057000BE016F5F7F4F4AE050E00E9442030E943D
:10058000D40161960FB6F894DEBF0FBECDBFCF91F8
:10059000DF910895629FD001739FF001829FE00D6B
:1005A000F11D649FE00DF11D929FF00D839FF00DF2
:1005B000749FF00D659FF00D9927729FB00DE11D9E
:1005C000F91F639FB00DE11DF91FBD01CF0111247B
:1005D000089597FB092E07260AD077FD04D02ED068
:1005E00006D000201AF4709561957F4F0895F6F7B4
:1005F000909581959F4F0895A1E21A2EAA1BBB1BCF
:10060000FD010DC0AA1FBB1FEE1FFF1FA217B307DE
:10061000E407F50720F0A21BB30BE40BF50B661FF4
:10062000771F881F991F1A9469F7609570958095B8
:1006300090959B01AC01BD01CF010895AA1BBB1B86
:1006400051E107C0AA1FBB1FA617B70710F0A61BD2
:10065000B70B881F991F5A95A9F780959095BC01F3
:10066000CD010895DC01FC01672F71917723E1F73B
:10067000329704C07C916D9370836291AE17BF076F
:10068000C8F30895FB019F01E8944230C4F045325D
:10069000B4F44A3029F497FB1EF4909581959F4F4E
:1006A000642F77270E941E03805D8A330CF0895DDA
:1006B0008193CB010097A1F716F45DE2519310826C
:1006C000C9010C943203E199FECF9FBB8EBBE09A27
:0A06D00099278DB30895F894FFCF29
:1006DA0073746172742E2E2E002B0020002E0020BF
:0606EA0056202020000054
:00000001FF
