:1000000012C09AC020C0BDC01EC01DC01CC01BC0F5
:100010001AC019C018C017C016C015C014C013C02C
:1000200012C011C010C011241FBECFE5D4E0DEBF46
:10003000CDBF10E0A0E6B0E001C01D92A736B10729
:10004000E1F70BD0F9C0DCCF97EC899FC0011124F8
:1000500064E670E0CAD0862F0895DF92EF92FF9297
:100060000F931F93CF93DF9384B3876084BBA898CB
:10007000A998AA9885B7836085BF8BB780648BBF2A
:1000800085B5886085BD89B7806889BF8EE383BDEB
:1000900078948AE0D9DF809360008CE3D5DF809389
:1000A00064008AE5D1DF8093610080E395E724E175
:1000B00031E0F9013197F1F70197D9F700E094E1C8
:1000C000E92E91E0F92E84E6D82EC0E0D2EA10C0E5
:1000D000802FBADF182F809360008D2D801BB4DF36
:1000E0008093640010936100CE010197F1F70F5FD8
:1000F000053670F380E29EE4F7013197F1F701973E
:10010000D9F704E6802FA0DF182F809360008D2D93
:10011000801B9ADF8093640010936100CE010197E9
:10012000F1F7015078F780E29EE4F7013197F1F79B
:100130000197D9F700E0CCCF1F920F920FB60F9224
:1001400011248F9385B58D7F85BDA898A998AA980D
:1001500088EC8093620080916000809365008091BC
:10016000640080936600809161008093630014BCFA
:1001700085B5826085BD8F910F900FBE0F901F9047
:1001800018951F920F920FB60F9211248F939F9381
:1001900080916500882339F090916200809165001C
:1001A000981709F4A89A80916600882339F09091F5
:1001B000620080916600981709F4A99A8091630003
:1001C000882339F09091620080916300981709F4B8
:1001D000AA9A809162008150809362009F918F91D2
:1001E0000F900FBE0F901F90189597FB092E0726B2
:1001F0000AD077FD04D00CD006D000201AF47095F8
:1002000061957F4F0895F6F7909581959F4F0895DA
:10021000AA1BBB1B51E107C0AA1FBB1FA617B7072C
:1002200010F0A61BB70B881F991F5A95A9F7809548
:0C0230009095BC01CD010895F894FFCF1B
:00000001FF
