:100000000C942A000C9434000C9434000C943400AA
:100010000C9434000C9434000C9434000C94340090
:100020000C9434000C9434000C9434000C94340080
:100030000C9434000C9434000C9434000C94340070
:100040000C9434000C9434000C9434000C94340060
:100050000C94340011241FBECFE5D8E0DEBFCDBF25
:100060000E9436000C9460000C94000081B3836001
:1000700081BB24E131E0919A909880E197E2F90107
:100080003197F1F70197D9F79198909880E197E22D
:10009000F9013197F1F70197D9F79198909A80E19A
:1000A00097E2F9013197F1F70197D9F79198909874
:1000B00080E197E2F9013197F1F70197D9F7DBCFAA
:0400C000F894FFCFE2
:00000001FF
