:100000000C9431000C944E000C944E000C944E0055
:100010000C944E000C944E000C944E000C944E0028
:100020000C944E000C944E000C9450000C944E0016
:100030000C944E000C944E000C944E000C944E0008
:100040000C944E000C944E000C944E000C944E00F8
:100050000C944E00202054312020202020202054B9
:10006000320011241FBECFE5D8E0DEBFCDBF10E0C7
:10007000A0E6B0E0E6E6FBE002C005900D92A238F3
:10008000B107D9F710E0A2E8B0E001C01D92A93A8B
:10009000B107E1F70E9495000C94B1050C940000A3
:1000A0001F920F920FB60F9211248F9380918200AE
:1000B0008F5F80938200843680F081E0809385009A
:1000C000809183008F5F80938300809183008C33C5
:1000D00010F010928300109282008F910F900FBE4B
:1000E0000F901F901895682F81E00E940702809161
:1000F0008600882319F080E690E002C082E690E056
:100100000E94A7018091870090E00E94810284E60E
:1001100090E00E94A7018091840090E00E948102FB
:1001200086E690E00E94A7010895D79ADF9A83B7E8
:10013000886083BF83B7856083BF8CE68CBF89B737
:10014000826089BF0E9413020E944A048093880043
:1001500081E060E070E00E9401048CE49DE124E114
:1001600031E0F9013197F1F70197D9F789E890E08B
:1001700066E870E047E850E024E830E00E94A6031B
:10018000882319F40E94730008C081E060E00E9497
:1001900007028AE690E00E94A70181E990E066E804
:1001A00070E047E850E024E830E00E94A60388238E
:1001B00021F489E00E94730008C081E069E00E9498
:1001C00007028AE690E00E94A701789480E060E050
:1001D0000E94070284E590E00E94B90180918500A9
:1001E0008823E1F38091830063E00E9458059923FE
:1001F00021F40E944A04809388008091830063E088
:100200000E945805913029F481E060E070E00E947E
:1002100001048091830063E00E945805923079F5D3
:1002200089E890E066E870E047E850E024E830E0D4
:100230000E94A603882319F40E94730008C081E07D
:1002400060E00E9407028AE690E00E94A70181E92F
:1002500090E066E870E047E850E024E830E00E9473
:10026000A603882321F489E00E94730008C081E07E
:1002700069E00E9407028AE690E00E94A7011092BE
:100280008500ACCF80FF02C0DB9A01C0DB9881FF04
:1002900002C0DC9A01C0DC9882FF02C0DD9A01C076
:1002A000DD9883FF02C0DE9A0895DE98089589B331
:1002B00090E023E0969587952A95E1F78170CC9997
:1002C0008260CD998460CE99886008951F93D698F6
:1002D000D598D498D398D99ADA9A0E945701182FB2
:1002E0001295107FDA98DA9A0E945701DA98812BDA
:1002F0001F910895D8980E94660108951F93182FA2
:10030000D69AD59AD49AD39AD998DA9A82958F7038
:100310000E944201DA98DA9A812F0E944201DA980B
:100320000E947A0187FDFCCF1F910895D8980E9402
:100330007E010895D89A0E947E010895982F8058D2
:10034000883008F49770892F0E949A010895CF93FE
:10035000DF93EC0108C0892F8058883008F497702B
:10036000892F0E949A0199919923A9F7DF91CF9142
:100370000895CF93DF93EC010AC0892F805888300D
:1003800010F0892F02C0892F87700E949A01FE0108
:1003900021969491992389F7DF91CF9108951F9326
:1003A000CF93DF93EB0190E0877090700896880FF1
:1003B000880F880F0E94960110E089910E949A018F
:1003C0001F5F1830D1F7DF91CF911F9108950F93E0
:1003D0001F93CF93DF938B0190E087709070089606
:1003E000880F880F880F0E949601C0E0D0E0F801C6
:1003F000EC0FFD1FE4918E2F0E949A012196C830C8
:10040000D105A9F7DF91CF911F910F910895813008
:1004100009F480E46058860F0E949601089581E0F7
:100420000E94960108950F931F93D69AD59AD49A55
:10043000D39AD09AD29AD19AD898DA98D99880E05B
:1004400092EA0197F1F7D898D99880E30E94420187
:1004500087E49CE20197F1F780E30E94420104E106
:1004600011E0C8010197F1F780E20E944201C80142
:100470000197F1F788E20E94960188E00E949601B8
:100480008CE00E94960186E00E9496010E940F0275
:100490001F910F9108950F931F93CF93DF938B01BB
:1004A00090E0877090700896880F880F880F0E94E0
:1004B0009601C0E0D0E0C8018C0F9D1F0E94850509
:1004C0000E949A012196C830D105A9F7DF91CF91FA
:1004D0001F910F910895CF93DF93EC0121960E9415
:1004E0008505982F81508E3F48F48F57883008F447
:1004F0009770892F0E949A01CE01EFCFDF91CF91A3
:100500000895DF93CF93CDB7DEB761970FB6F89418
:10051000DEBF0FBECDBFBE016F5F7F4F4AE050E030
:100520000E9464050E94A70161960FB6F894DEBF91
:100530000FBECDBFCF91DF910895DC0120E040E0F8
:1005400050E098E115C0FD01E40FF51FE08138E0AF
:100550008E2F8227F82FF17080FD29272695F13004
:1005600009F42068315011F0E695F2CF4F5F5F4FEC
:100570004617570741F7822F0895AF92BF92DF9237
:10058000EF92FF920F931F93DF93CF93CDB7DEB718
:1005900060970FB6F894DEBF0FBECDBFD82E7A019C
:1005A0005901DE011196E2E7F0E080E101900D9241
:1005B0008150E1F7FB018081482F50E0918180E07C
:1005C000482B592BF0E1DF1679F4CA018E7F33E016
:1005D000880F991F3A95E1F7FB0126814CE050E026
:1005E000421B5109480F591F57FF07C081E0F7010F
:1005F0008083509541955F4F02C0F7011082F8E269
:10060000DF1699F4FB018481682F70E0CB018076BE
:1006100090708036910549F066FF02C04E7F05C09C
:1006200065FF02C04C7F01C0487FCA0124E0969557
:1006300087952A95E1F7F5018083842F8F70FE015D
:10064000E80FF11D8181F801808380E060960FB68C
:10065000F894DEBF0FBECDBFCF91DF911F910F91F8
:10066000FF90EF90DF90BF90AF900895882319F02E
:10067000709561957F4F442319F0309521953F4F38
:10068000621773071CF44FEF5FEF07C040E050E0C4
:100690002617370714F441E050E0CA0108957F920D
:1006A0008F929F92AF92BF92CF92DF92EF92FF9282
:1006B0000F931F93DF93CF93CDB7DEB729970FB674
:1006C000F894DEBF0FBECDBF782E6B015A014901F1
:1006D0008EEB60E070E00E9439058E010F5F1F4FC6
:1006E0004AE0E42EF12CEC0EFD1E0E94E904F80114
:1006F00081938F01EE15FF05C1F77E010894E11C7F
:10070000F11CC70169E070E00E949D02882311F08E
:1007100083E008C0872DB701A601950184010E94DE
:10072000BD0280E029960FB6F894DEBF0FBECDBFA4
:10073000CF91DF911F910F91FF90EF90DF90CF90BD
:10074000BF90AF909F908F907F9008956F927F920F
:100750008F929F92AF92BF92CF92DF92EF92FF92D1
:100760000F931F93DF93CF93CDB7DEB729970FB6C3
:10077000F894DEBF0FBECDBF6C015B014A013901A9
:100780000E94AC048EEBB6010E9439058E010F5F0A
:100790001F4F5AE0E52EF12CEC0EFD1E0E94E904DD
:1007A000F80181938F01EE15FF05C1F77E010894D2
:1007B000E11CF11CC70169E070E00E949D028823E2
:1007C00011F083E009C0F6018081B701A501940111
:1007D00083010E94BD0280E029960FB6F894DEBF27
:1007E0000FBECDBFCF91DF911F910F91FF90EF9082
:1007F000DF90CF90BF90AF909F908F907F906F9041
:1008000008951F93CF93DF93182FEB010E94AC0440
:100810000E94A304882311F482E009C084E4BE018D
:100820000E943905113011F00E94A60480E0DF918A
:10083000CF911F9108950F931F938C010E94AC04D8
:1008400084EBB8010E94390581E00E94C504182F8D
:100850000E94AC04111111E0812F1F910F91089596
:100860000F931F93CF93DF938C01EB01F8018081ED
:10087000BE010E94ED04F801808381508D3F28F471
:100880008881883211F0803189F7DF91CF911F91F3
:100890000F9108958F929F92AF92BF92CF92DF9265
:1008A000FF920F931F93DF93CF93CDB7DEB72997B6
:1008B0000FB6F894DEBF0FBECDBF8FEF898300E087
:1008C00010E0E2E0CE2ED12CCC0EDD1E4E010894BD
:1008D000811C911C7AE0A72EB12CAC0EBD1E19C054
:1008E000C401B6010E94300489818F3FC9F08E3F58
:1008F000B9F0D601F80163E0EE0FFF1F6A95E1F74A
:10090000E757FF4F8D918193AA15BB05D9F70F5F6C
:100910001F4FF02E8981882319F00430110501F74B
:100920008F2D29960FB6F894DEBF0FBECDBFCF91A5
:10093000DF911F910F91FF90DF90CF90BF90AF900C
:100940009F908F90089586B382700895C19AB99A46
:100950000895C198B9980895C198B99A8FE295E021
:100960000197F1F78FB7F894B99893EF9A95F1F74B
:1009700026B38FBF88E794E00197F1F7B19902C0E1
:1009800081E00895822F827008952FB7F894B99A64
:1009900093E09A95F1F78111B99897E39A95F1F759
:1009A000B19B80E095EA9A95F1F7B9982FBF089529
:1009B0000F931F93182F08E0812F81700E94C504A8
:1009C0001695811110680150B9F7812F1F910F9171
:1009D00008958FEF0E94D8040895DF92EF92FF925E
:1009E0000F931F93CF93DF93E82EEB010E94AC048B
:1009F0008823A1F580EF0E94D80480E4FF24182FFB
:100A000098EFD92ED80E81E00E94C504082F81E00E
:100A10000E94C504882329F0002371F08EEFF82E80
:100A20001FC0002349F41E1528F0888180FF04C0F0
:100A3000E11611F0F12E01E0802F0E94C50488819B
:100A400086958883002311F08068888311501D15D6
:100A5000D1F6112329F02196812FD1CFFF24FA94CA
:100A60008F2DDF91CF911F910F91FF90EF90DF902D
:100A700008950F931F93CF93DF93082FEB010E94EC
:100A8000AC04209751F085E50E94D80418E08991C4
:100A90000E94D8041150D9F703C08CEC0E94D804EE
:100AA000802F0E94D804DF91CF911F910F9108955C
:100AB000991B79E004C0991F961708F0961B881FB0
:100AC0007A95C9F780950895FB019F01E89442301B
:100AD000C4F04532B4F44A3029F497FB1EF49095E3
:100AE00081959F4F642F77270E949D05805D8A33F3
:100AF0000CF0895D8193CB010097A1F716F45DE2BC
:100B000051931082C9010C948D05E199FECF9FBBD2
:100B10008EBBE09A99278DB30895DC01FC01672F05
:100B200071917723E1F7329704C07C916D937083C4
:100B30006291AE17BF07C8F30895AA1BBB1B51E112
:100B400007C0AA1FBB1FA617B70710F0A61BB70B3D
:100B5000881F991F5A95A9F780959095BC01CD01E2
:060B60000895F894FFCF98
:100B66002D0020002E0020432000206572726F7237
:100B76002000000101020203040405060607070817
:020B860009095B
:00000001FF
