:100000000C9436000C9453000C9453000C94530041
:100010000C941A080C9453000C9453000C94530045
:100020000C9453000C9453000C9453000C94530004
:100030000C9453000C9453000C9453000C945300F4
:100040000C9453000C9453000C9453000C945300E4
:100050000C945300000108000604000145000082D2
:100060000000400020040AC00822090011241FBE1D
:10007000CFE5D8E0DEBFCDBF10E0A0E6B0E0EEEE09
:10008000FEE102C005900D92A23EB107D9F713E040
:10009000A2EEB0E001C01D92AF38B107E1F70E94B7
:1000A000480A0C94750F0C940000C498962F9F7109
:1000B000982B9FB9779BFECF1FB8779BFECF67FF2A
:1000C00003C01FB8779BFECFC49A8FB10895C49820
:1000D0006F71682B6FB9779BFECF4FB9779BFECFBF
:1000E000C49A0895AC01FB01C4988AE38FB9779B49
:1000F000FECF9A01DF0107C01FB8779BFECF2150CA
:1001000030408FB18D9321153105B1F7E40FF51F04
:100110001082C49A08959C01FB01C4988AE78FB9A4
:10012000779BFECF07C080818FB9779BFECF215090
:100130003040319621153105B1F7C49A08951F93C7
:10014000CF93DF93182FC82FD0E0C076D070809166
:10015000E20090E0C817D90791F080EA6FE143E030
:100160000E94670085E0D595C7958A95E1F780E8FC
:100170006FE14C2F0E94670010761093E200DF9130
:10018000CF911F9108951F93182F0E949F0080E028
:10019000612F0E9455001F9108950F931F93182FF0
:1001A000062F0E949F0080E4612F402F0E9467006D
:1001B0001F910F910895682F84ED0E94CD0082ED6C
:1001C00061E00E94CD0088E28A95F1F78AEE0E94F4
:1001D000C30080FDFBCF82ED60E00E94CD0089ED81
:1001E0000E94C30090E008950F931F93982F162F3D
:1001F000072F84ED692F0E94CD0086ED612F0E94AC
:10020000CD0087ED602F0E94CD0018E203C0812F42
:100210008A95F1F78AEE0E94C30080FDF8CF1F9106
:100220000F9108950F931F938C01BC9AC49A87B3C2
:10023000806A87BBBE9AC59AC79A80E58DB9709AC5
:100240008FEF60E04FEF0E94670080E090E0019741
:10025000F1F71092E4001092E30088E060E00E9461
:10026000CD0089E060E00E94CD008CE060E00E945B
:10027000CD008DE060E00E94CD008AE06FEF0E942B
:10028000CD008BE069E10E94CD0084E060E00E9437
:10029000CD0085E06AE10E94CD0086E06FEF0E940C
:1002A000CD0087E06FE10E94CD0088E360EB0E9403
:1002B000CD0088E26FE30E94CD0089E260E30E94F6
:1002C000CD0080E369EF0E94CD0081E367EF0E94DB
:1002D000CD0080EC6DE00E94CD0081EC60E00E94DA
:1002E000CD0080E862EC42E30E94670086EC62E1A8
:1002F0000E94CD0087EC6CE00E94CD0084EC62E1AE
:100300000E94CD008AEC6CED0E94CD008BEC65E084
:100310000E94CD0084EEF80160810E94CD0085EE40
:10032000F80161810E94CD0082EEF80162810E9495
:10033000CD0083EEF80163810E94CD0080EEF801CC
:1003400064810E94CD0081EEF80165810E94CD009C
:1003500080E160E071E00E94F4008FE10E949F0064
:1003600080E86BE140EC0E94670080E86FE144E0C8
:100370000E9467001F910F91089582E70E94C300B9
:10038000863008F08F5F089581E10E94DB0020E055
:10039000892B09F021E0822F08950F931F93CF93AB
:1003A000DF93EC018B010FC08CE10E94C30081FF41
:1003B0000AC080E86FE140E80E94670080EA6FE1D0
:1003C00040E80E94670080E06FE10E94550083FDD5
:1003D000EBCF82E060E00E94CD0083E06AE10E9402
:1003E000CD0086E06C2F0E94CD009E012050364E3D
:1003F00087E0632F0E94CD008AE760E040E00E9422
:100400006700CE01B8010E948B0080E86FE148E0F0
:100410000E946700DF91CF911F910F91089589E3AA
:100420000E94C300811181E008958F929F92AF9244
:10043000BF92CF92DF92EF92FF920F931F93CF93D1
:10044000DF935C014B0189E30E94C300882319F408
:10045000C0E0D0E070C00091E3001091E40080E0C3
:10046000602F0E94CD00012F110F110B81E0602F32
:100470000E94CD008AE360E00E945500182F8AE3B5
:1004800060E00E945500382F20E0E12EFF24E22A90
:10049000F32AF092E400E092E3008AE360E00E9435
:1004A0005500C82E8AE360E00E945500D82E8AE3EA
:1004B00060E00E945500082F10E08AE360E00E948F
:1004C0005500382F20E0202B312B27FD03C0C0E042
:1004D000D0E011C0CC2DD0E09D2D80E0C82BD92BD1
:1004E000C501019724978C179D0708F4EC01CE01F4
:1004F000B4010E94720081E0E8168AE1F8063CF03F
:100500008CE06FEF0E94CD008DE069E10DC06E2D93
:1005100061508CE00E94CD000894E108F1086F2D35
:10052000772767FD7A958DE00E94CD0080E86EE127
:1005300040E40E946700CE01DF91CF911F910F919F
:10054000FF90EF90DF90CF90BF90AF909F908F90F3
:100550000895CF92DF92EF92FF920F931F93CF9364
:10056000DF936C01413081F4685070407B0100E002
:1005700010E0685F7F4F21E130E040E050E0E20EA4
:10058000F31E041F151F15C0423021F0EE24FF2476
:1005900087010FC0685070407B0100E010E0685F89
:1005A0007F4F86E090E0A0E0B0E0E80EF91E0A1F61
:1005B0001B1FF601EB0116C0808190E0A0E0B0E0C7
:1005C000BA2FA92F982F8827218130E040E050E0F2
:1005D000822B932BA42BB52BE80EF91E0A1F1B1F91
:1005E00032962297C230D10538F7FB01EE7FEC0D31
:1005F000FD1D60FF15C0808190E0A0E0B0E0BA2F43
:10060000A92F982F882708C02FEF3FEF40E050E038
:10061000E222F32204231523E80EF91E0A1F1B1FF2
:10062000C801AA27BB270097A105B10569F7970163
:1006300020953095C901DF91CF911F910F91FF90C7
:10064000EF90DF90CF900895CF93DF93EC0150931C
:10065000E6004093620020E030E0F901E550FF4FF2
:10066000DB01A20FB31F8C9180832F5F3F4F24309B
:10067000310599F720E030E0F901EB50FF4FDE0142
:10068000A20FB31F8C9180832F5F3F4F263031051F
:1006900099F7DF91CF910895DC0120E030E0FB0174
:1006A000E20FF31F5A969C915A978081981711F088
:1006B00080E008952F5F3F4F11962430310579F780
:1006C00081E00895FC0169327105B0F084858830BD
:1006D00099F48585863081F4DF019696EBEFF0E0A2
:1006E0009C918081981741F41196319680E0EF3FFC
:1006F000F807B1F781E0089580E00895FC016A32BF
:100700007105D0F084858830B9F485858823A1F4FB
:100710008685853489F4DF01EBEFF0E05E969C91ED
:100720005E978081981741F41196319680E0EF3FF3
:10073000F807A1F781E0089580E00895FC01A5EF96
:10074000B0E0868180838D918683319680E0AB3FD7
:10075000B807B9F708950F931F938C01FC01108E11
:10076000118E80E4848B158A868BC8010E9664E115
:1007700070E040E00E94A902F801908F818F1F91E4
:100780000F910895AC01FC01ABEFB0E0828D868F34
:100790008D91828F319680E0AF3FB807B9F7CA01DB
:1007A0000E94AB030895FC01B99694E08081680F24
:1007B000711D84816483442311F0808301C0108201
:1007C00091503197992319F0672F7727EFCF08952C
:1007D0000F931F938C01FC0194A182A184A392A387
:1007E00095A183A185A393A3C8010E94D303F80117
:1007F00012AA13AA80E586A71F910F910895FC0104
:10080000908980E02189422F50E0482B592B26A562
:10081000822F82958F7090E0880F991F880F991F03
:10082000481B590B4451504057FF02C040E050E074
:10083000CA0108956A5C7F4FDC01A60FB71F66539B
:10084000704003C08D936F5F7F4FFA014F5F5F4F22
:1008500084918823B9F7CB010895DA016A5C7F4F50
:10086000FC01E60FF71F66537040922F03C08D9175
:10087000819391509923D9F7CB01820F911D08954F
:10088000DC01FA0105C084918D933196615070406E
:1008900061157105C1F70895FF920F931F93CF93D0
:1008A000DF93EC01F62E072FBA01122F932FAE0122
:1008B0009E01A0E0B0E0FD01E151FF4F8081F90110
:1008C0008083FD01EB50FF4F8081F90186831196F3
:1008D0002F5F3F4FA630B10571F788E08C871D86EA
:1008E000DE01ECE5F0E084911E968C931E97319624
:1008F000119680E0E536F807B1F7188A81E18F8B11
:10090000A0E0B0E0FB01EA0FFB1F8081FA01868FB7
:10091000FD01E550FF4F8081FA01828F11964F5FF4
:100920005F4FA430B10571F79CA31DA30AA3FBA2DE
:100930001EA218A619A6DF91CF911F910F91FF90CB
:1009400008958091E5008695809581700895CF93F4
:10095000DF93EC01EBEEF0E0DC015C969C915C97A0
:100960008081981711F080E010C01196319680E0D8
:10097000EF3EF80791F7EFEEF0E08E898193219634
:1009800080E0E53FF807C9F781E0DF91CF91089556
:100990008091E50081FF03C084608093E5000895A5
:1009A000AC0181E08093E50020E030E0F901E55101
:1009B000FF4FDA01A20FB31F8C9180832F5F3F4F4F
:1009C0002430310599F708959093EA008093E90067
:1009D0000895CF93DF93EC01AC0125EF30E0FC01EB
:1009E000D9019FEF90838D918683319680E0AB3F54
:1009F000B807C1F788E08C8786E08D87DE01E4E5E3
:100A0000F0E084911E968C931E973196119680E0AB
:100A1000EC35F807B1F7F90181919F01FA01868B56
:100A200010A24F5F5F4FF0E02B3F3F07A1F7DE01C1
:100A30005C9620E030E0FB01E20FF31F80811A9604
:100A40008C931A97F901E550FF4F80818D932F5FAA
:100A50003F4F2430310579F78091E500886080931D
:100A6000E5008AE290E0BE010E94CD01DF91CF91C6
:100A70000895EF92FF920F931F937C01062F045E5F
:100A8000FC01018B0E94AB030451F70107A308503E
:100A900010E0005F1F4FC7014A96B80141E00E9475
:100AA000A902F70190A781A7C8014A96B7010E9441
:100AB000CD011F910F91FF90EF900895AF92BF92DB
:100AC000DF92EF92FF920F931F93CF93DF93EC018E
:100AD0005B01D42EA801B90197010E944C046D2D31
:100AE0006D3D08F06CEDDE019A9620E030E007C025
:100AF000F501E20FF31F80818D932F5F3F4F261783
:100B0000B8F3CE010E943905DF91CF911F910F916B
:100B1000FF90EF90DF90BF90AF900895EF92FF921B
:100B20000F931F938C017B01CB018896F801908B6A
:100B3000818BC8010E94AB03F80112AA13AA8CE1B1
:100B400090E0E80EF91EC8014A96B70142E00E9403
:100B5000A902F80192AB83ABC7014A96B8010E9483
:100B6000CD011F910F91FF90EF900895EF92FF92AA
:100B70001F93CF93DF93EC017B01142F0E949E0300
:100B8000812F80618FA7143031F0E114F10419F442
:100B900071E0E72EF12CCE01B70141E00E94E8039D
:100BA000188A88E2898BCE010E94C20384E088AB58
:100BB00019AACE014A966CE170E042E00E94A902B7
:100BC0009AAB8BAB86E390E0BE010E94CD01DF9132
:100BD000CF911F91FF90EF900895EF92FF920F93A6
:100BE0001F938C017B016091E7007091E80040E069
:100BF0000E94B60589E1F80187A7C801B7010E94E4
:100C00008E051F910F91FF90EF9008950F931F9302
:100C10008C010E949E03F801108A8CE2818BC8012E
:100C20000E94C20382E1F80187A7C80161E070E079
:100C300040E00E94E803F80116A217A28091630029
:100C400080A711A68D5F8093630082E086AB84E06D
:100C500087AB95E090AF11AE80E686A790AB88E7B2
:100C600081ABC8014A9660E270E042E00E94A902AE
:100C7000F80192AB83AB8AE390E0B8010E94CD010A
:100C80001F910F910895DF92EF92FF920F931F93A0
:100C9000CF93DF93EC017B01142FD22E032F0E9400
:100CA0009E031D3D08F01CED188A145E198BCE01C1
:100CB0000E94C2038AA18CA38BA18DA30AA3DBA2ED
:100CC0001EA214511FA3185018A619A6DE019A9649
:100CD00020E030E007C0F701E20FF31F80818D9321
:100CE0002F5F3F4F2117B8F3012F10E0005F1F4F18
:100CF000CE014A96B80141E00E94A90298A789A7AF
:100D0000C8014A96BE010E94CD01DF91CF911F918B
:100D10000F91FF90EF90DF9008950F931F93CF9363
:100D2000DF93EC018B010E949E03CE010E94C2035F
:100D30001AA28CA1883F18F08DA18F5F8DA38CA182
:100D4000885F8CA3C801BE010E94CD01DF91CF91C5
:100D50001F910F910895CF93DF93EC010E949E03A2
:100D60001C8A82E08D8BFE01A5EFB0E0868980A30E
:100D70008D91868B319680E0AB3FB807B9F7FE01C5
:100D80007C96ABEFB0E0808182878D91819380E08B
:100D9000AF3FB807C1F78AE290E0BE010E94CD01E3
:100DA000DF91CF910895FF920F931F93CF93DF931D
:100DB000EC018B0161157105E9F48091E500857006
:100DC00079F08091600090916100892B49F40E9434
:100DD000C401882329F0CE016BEE70E00E94E90483
:100DE00080916000909161000196909361008093E2
:100DF000600071C00E9462038823B9F08D89813040
:100E000019F4CE010E94AB068091E50083FF63C018
:100E10001D89123009F05FC0CE010E94A70488230B
:100E200009F459C01093E50056C0CE01B8010E94E4
:100E30007E03882309F44FC09F89913089F48AA1E9
:100E4000883071F4E091E900F091EA00309719F0F0
:100E5000CE014A960995CE01B8010E948D063BC08D
:100E60000633110510F49630B1F59CA18091E6008F
:100E7000981789F59DA180916200981761F58FA55B
:100E8000F82E81FF04C0CE010E94060624C084FF14
:100E900022C0CE010E94FF039093E8008093E700F8
:100EA000892B49F4F0FE17C0CE0160E070E040E00D
:100EB0000E94B60510C08EA582958F70282F30E055
:100EC000220F331F220F331F2E5D3F4F085010405B
:100ED0000217130710F420E030E0C901DF91CF9131
:100EE0001F910F91FF900895CF93DF93DA010D903A
:100EF0000020E9F71197A41B6A5C7F4FEC01C60F35
:100F0000D71F66537040FA01B0E09A012A0F3B1FC9
:100F100002C081918993E217F307D9F79B012A0F49
:100F20003B1FC901DF91CF91089590938D0380936A
:100F30008C03089588B392E0892788BB0895EF92C7
:100F4000FF920F931F93FC01D80187018091FF004E
:100F5000882319F0861709F068C08081FF24862352
:100F600061F4FF24F39480910001882331F4F0921E
:100F7000000185E080938E034EC08091000188239C
:100F800009F449C0FF2081F08130E1F480918E03A3
:100F9000882309F040C082E08093000183E08093C1
:100FA0008E036093FF0037C08230A8F1843098F53B
:100FB000109719F0862FFD010995109200011092EB
:100FC000FF0029C0823079F480918E03882319F5BF
:100FD0002115310511F426E930E083E0809300010A
:100FE00020938E0318C0833041F480918E038823B0
:100FF00091F484E0809300010EC0843061F480910C
:101000008E03882341F440938E030115110519F0D6
:10101000862FF801099580910001833030F0FF2080
:1010200021F4109200011092FF001F910F91FF9088
:10103000EF9008951F920F920FB60F9211248F9385
:1010400080918E03882319F0815080938E038F91B5
:101050000F900FBE0F901F901895EF92FF920F9375
:101060001F93DF93CF93CDB7DEB76E970FB6F8948B
:10107000DEBF0FBECDBF00D000D000D0EDB7FEB7B1
:1010800031968E010F5F1F4FADB7BEB712961C93FE
:101090000E93119724E630E03383228384831582F4
:1010A0000E94710CF80101900020E9F73197E01BD4
:1010B000F10B8DB79EB706960FB6F8949EBF0FBE84
:1010C0008DBF81E091E0B8014E2F2CE434E008ECB4
:1010D00010E058E0E52E52E5F52E0E945E056E9672
:1010E0000FB6F894DEBF0FBECDBFCF91DF911F9139
:1010F0000F91FF90EF9008950F931F93CF93DF937D
:10110000EC018AE892E061E071E00E9415028C0136
:1011100081E091E0B8010E94D306012B61F180913A
:101120001801813141F59091250180E0209126013F
:10113000622F70E0682B792B20E0E22FF0E0EE0FB9
:10114000FF1FEC0FFD1F808191818617970721F00B
:10115000222389F421E0F1CF20912801E0918C0332
:10116000F0918D03309739F028508BE191E04AE2FD
:1011700050E030E00995DF91CF911F910F910895D4
:101180000F931F93DF93CF93CDB7DEB764970FB65E
:10119000F894DEBF0FBECDBF26B340B359B38DB7B1
:1011A0009EB70C970FB6F8949EBF0FBE8DBFEDB7DC
:1011B000FEB731968E010F5F1F4FADB7BEB71296C7
:1011C0001C930E93119780E890E09383828381E0D3
:1011D00090E09583848330E02270307035952795B8
:1011E00037832683441F4427441F40871186551F99
:1011F0005527551F528713860E94710CF8010190E4
:101200000020E9F73197E01BF10B8DB79EB70C96E4
:101210000FB6F8949EBF0FBE8DBF2091D0003091C5
:10122000D10081E091E0B8014E2F0E944306649600
:101230000FB6F894DEBF0FBECDBFCF91DF911F91E7
:101240000F910895EF92FF920F931F93DF93CF9327
:1012500000D0CDB7DEB79A83898380E090E066EC5A
:1012600070E08E010F5F1F4FA8010E94210C7C01CE
:1012700080E090E066EC70E0A8010E94210C8C01F7
:10128000E114F10461F00E946E0BC7010E94060B8D
:1012900081E060E00E94660BC8010E94060B0F907F
:1012A0000F90CF91DF911F910F91FF90EF900895D4
:1012B000AF92BF92CF92DF92EF92FF920F931F9364
:1012C000DF93CF93CDB7DEB7AA970FB6F894DEBF02
:1012D0000FBECDBF6C017B015A010E946E0B8CE8E2
:1012E00090E00E94060BC7010E94E00B81E060E0E5
:1012F0000E94660B00E010E0F601E00FF11F808114
:1013000090E00E94E00B033049F087E990E00E94F2
:10131000060B0F5F1F4F0430110571F78091D2004B
:101320009091D300E816F90699F58E010D5F1F4FD5
:10133000C80169E970E00E941A0CF80101900020D0
:10134000E9F73197E01BF10B81E091E0B8014E2FF6
:1013500097010E944306C5018F5F9E4F6EEA70E0C1
:101360000E941A0C81E091E060EB74E048EC50E0E0
:101370002CEE39EA0E944C04F80101900020E9F7B4
:101380003197E01BF10B81E091E06E2F0E9439054F
:101390008091D0009091D100E816F90621F5C501A1
:1013A0008F5F9E4F66EC70E0AE014F5F5F4F0E9413
:1013B000210C0097C1F00E94FC0B8130910551F087
:1013C0008230910561F0892B71F489819A810E94A4
:1013D000040A09C089819A810E94C00804C08981D9
:1013E0009A810E942209AA960FB6F894DEBF0FBE1A
:1013F000CDBFCF91DF911F910F91FF90EF90DF90C4
:10140000CF90BF90AF900895EF92FF921F93DF931C
:10141000CF9300D0CDB7DEB79A83898380E090E088
:1014200066EC70E07E010894E11CF11CA7010E94AB
:10143000210C009729F10E94FC0B182F80E090E00E
:1014400066EC70E0A7010E94210C0097C9F00E9491
:10145000FC0B123051F0133071F0113089F48823F5
:1014600011F0C1980DC0C19A0BC0882311F0979854
:1014700007C0979A05C0882311F0DF9A01C0DF9852
:101480000F900F90CF91DF911F91FF90EF900895F3
:10149000EF92FF920F931F93D79ADF9A85B38C60D8
:1014A00085BBB99A8F9AC19A979A85B5886085BD90
:1014B00085B5876085BD8CE683BD80E889BF0E94C5
:1014C000720B8EEB90E00E94060B84ED90E00E9480
:1014D000120184E166E774E00E94F40084ED90E07C
:1014E0006AED70E040E550E00E9424038EED90E04C
:1014F0000E94D0048AE997E00E94E40488E599E01C
:1015000090938D0380938C03789480ED90E00E94FB
:101510007C0883E390E064E044E650E028EC30E0AF
:101520000DE218E078010E949F0783E390E068E0F5
:1015300044E150E028EC30E0EE24FF240E949F07B5
:10154000E4CF80FF02C0DB9A01C0DB9881FF02C0BC
:10155000DC9A01C0DC9882FF02C0DD9A01C0DD98F0
:1015600083FF02C0DE9A0895DE98089589B390E063
:1015700023E0969587952A95E1F78170CC99826052
:10158000CD998460CE99886008951F93D698D59898
:10159000D498D398D99ADA9A0E94B60A182F12953D
:1015A000107FDA98DA9A0E94B60ADA98812B1F9196
:1015B0000895D8980E94C50A08951F93182FD69AA7
:1015C000D59AD49AD39AD998DA9A82958F700E9434
:1015D000A10ADA98DA9A812F0E94A10ADA980E9469
:1015E000D90A87FDFCCF1F910895D8980E94DD0A83
:1015F0000895D89A0E94DD0A0895982F805888305F
:1016000008F49770892F0E94F90A0895CF93DF9309
:10161000EC0108C0892F8058883008F49770892F12
:101620000E94F90A99919923A9F7DF91CF91089522
:10163000CF93DF93EC010AC0892F8058883010F0D7
:10164000892F02C0892F87700E94F90AFE01219616
:101650009491992389F7DF91CF9108951F93CF93A8
:10166000DF93EB0190E0877090700896880F880FE9
:10167000880F0E94F50A10E089910E94F90A1F5F05
:101680001830D1F7DF91CF911F9108950F931F93D9
:10169000CF93DF938B0190E0877090700896880F4E
:1016A000880F880F0E94F50AC0E0D0E0F801EC0F27
:1016B000FD1FE4918E2F0E94F90A2196C830D105B2
:1016C000A9F7DF91CF911F910F910895813009F40F
:1016D00080E46058860F0E94F50A089581E00E9418
:1016E000F50A08950F931F93D69AD59AD49AD39A50
:1016F000D09AD29AD19AD898DA98D99880E092EA7A
:101700000197F1F7D898D99880E30E94A10A87E45D
:101710009CE20197F1F780E30E94A10A04E111E045
:10172000C8010197F1F780E20E94A10AC801019760
:10173000F1F788E20E94F50A88E00E94F50A8CE041
:101740000E94F50A86E00E94F50A0E946E0B1F9126
:101750000F9108950F931F93CF93DF938B0190E028
:10176000877090700896880F880F880F0E94F50A7E
:10177000C0E0D0E0C8018C0F9D1F0E94720E0E9435
:10178000F90A2196C830D105A9F7DF91CF911F91B1
:101790000F910895CF93DF93EC0121960E94720E72
:1017A000982F81508E3F48F48F57883008F49770F7
:1017B000892F0E94F90ACE01EFCFDF91CF910895D2
:1017C000DF93CF93CDB7DEB761970FB6F894DEBF46
:1017D0000FBECDBFBE016F5F7F4F4AE050E00E9459
:1017E000480C0E94060B61960FB6F894DEBF0FBE40
:1017F000CDBFCF91DF910895FC0188279927E89408
:1018000021912032E9F3293010F02E30C8F32B3229
:1018100041F02D3239F4689404C00E94690C820FA3
:10182000911D219120532A30C0F31EF4909581958B
:101830009F4F0895FB01DC0101900D920020E1F71C
:101840000895FA01A191B081009719F41097E1F081
:10185000CD01DC01CD010D90002011F4C00113C0B9
:10186000FB012191222319F02015D9F7F3CFFB01B9
:101870002191201519F41E92119606C02223C1F75A
:101880000D900020A1F7D001FA01A193B083089533
:10189000FB019F01E8944230C4F04532B4F44A3071
:1018A00029F497FB1EF4909581959F4F642F77271D
:1018B0000E942A0F805D8A330CF0895D8193CB01F1
:1018C0000097A1F716F45DE251931082C9010C94C0
:1018D000900E7AE0979F902D879F802D910D112477
:1018E0000895AEE0B0E0E7E7FCE00C944C0F0D8902
:1018F0001E8986E08C831A8309838FEF9FE79E837E
:101900008D839E01275E3F4FCE0101966F89788DB2
:10191000A9010E94950C2F813885020F131FF80131
:1019200010822E96E4E00C94680FABE0B0E0EBE997
:10193000FCE00C943E0F3C012B015A01FC01178284
:101940001682838181FD03C06FEF7FEFC6C19AE0ED
:10195000892E1E010894211C311CF3012381F20100
:1019600023FD859123FF81912F01882309F4B2C1C2
:10197000853239F423FD859123FF81912F01853232
:1019800029F490E0B3010E94A00EE7CF982FFF2426
:10199000EE249924FFE1FF15D0F09B3269F09C32D0
:1019A00028F4903259F0933291F40EC09D3249F0F0
:1019B000903369F441E024C052E0F52A84E0F82A2B
:1019C00028C098E0F92A25C0E0E1FE2A22C0F7FCF1
:1019D00029C0892F80538A3070F4F6FE05C0989C88
:1019E000902C1124980E15C0E89CE02C1124E80ED0
:1019F000F0E2FF2A0EC09E3229F4F6FC6BC140E4EF
:101A0000F42A07C09C3619F450E8F52A02C098362B
:101A100049F4F20123FD959123FF91912F01992320
:101A200009F0B8CF892F8554833018F08052833065
:101A300038F444E050E0A40EB51E5FE359830FC0B4
:101A4000933631F0933779F0933509F056C020C0C2
:101A5000F5018081898342E050E0A40EB51E61014A
:101A600001E010E012C0F501C080D180F6FC03C097
:101A70006FEF7FEF02C0692D70E042E050E0A40EEE
:101A8000B51EC6010E94850E8C015FE7F52214C0C9
:101A9000F501C080D180F6FC03C06FEF7FEF02C07C
:101AA000692D70E042E050E0A40EB51EC6010E9410
:101AB0007A0E8C0150E8F52AF3FE07C01AC080E2C6
:101AC00090E0B3010E94A00EEA948E2D90E00817DA
:101AD0001907A8F30EC0F601F7FC8591F7FE819176
:101AE0006F0190E0B3010E94A00EE110EA94015052
:101AF00010400115110579F7EAC0943611F09936B6
:101B000069F5F7FE08C0F5012081318142815381DA
:101B100084E090E00AC0F501808191819C01442716
:101B200037FD4095542F82E090E0A80EB91E9FE645
:101B3000F92257FF09C050954095309521953F4FA8
:101B40004F4F5F4FE0E8FE2ACA01B901A1012AE028
:101B500030E00E94CC0ED82ED21840C0953729F420
:101B60001F2D1F7E2AE030E01DC01F2D197F9F36DC
:101B700061F0903720F4983509F0ACC00FC0903771
:101B800039F0983709F0A6C004C028E030E00AC058
:101B9000106114FD146020E130E004C014FD1660F3
:101BA00020E132E017FF08C0F50160817181828178
:101BB000938144E050E008C0F50180819181BC012F
:101BC00080E090E042E050E0A40EB51EA1010E942A
:101BD000CC0ED82ED2188FE7F82EF122F6FE0BC0CD
:101BE0005EEFF522D91438F4F4FE07C0F2FC05C00C
:101BF0008FEEF82202C01D2D01C0192DF4FE0DC07C
:101C0000FE01ED0DF11D8081803319F499EEF9226A
:101C100008C01F5FF2FE05C003C08F2D867809F053
:101C20001F5F0F2DF3FC14C0F0FE0FC01E1510F047
:101C30009D2C0BC09D2C9E0C911A1E2D06C080E27F
:101C400090E0B3010E94A00E1F5F1E15C0F304C0F8
:101C50001E1510F4E11A01C0EE2404FF0FC080E34A
:101C600090E0B3010E94A00E02FF1DC001FD03C061
:101C700088E790E00EC088E590E00BC0802F867862
:101C800091F001FF02C08BE201C080E2F7FC8DE21F
:101C900090E0B3010E94A00E06C080E390E0B30183
:101CA0000E94A00E9A94D914C0F3DA94F101ED0DBC
:101CB000F11D808190E0B3010E94A00EDD20A9F704
:101CC00006C080E290E0B3010E94A00EEA94EE20EC
:101CD000C1F743CEF30166817781CB012B96E2E118
:101CE0000C945A0FE199FECF9FBB8EBBE09A9927C7
:101CF0008DB30895FC010590615070400110D8F734
:101D0000809590958E0F9F1F0895FC016150704043
:101D100001900110D8F7809590958E0F9F1F089520
:101D2000DC01FC01672F71917723E1F7329704C042
:101D30007C916D9370836291AE17BF07C8F30895CD
:101D40000F931F93CF93DF938C01EB018B8181FF66
:101D50001BC082FF0DC02E813F818C819D81281781
:101D6000390764F4E881F9810193F983E88306C0B7
:101D7000E885F985802F0995892B31F48E819F8123
:101D800001969F838E8302C00FEF1FEFC801DF9182
:101D9000CF911F910F910895FA01AA27283051F190
:101DA000203181F1E8946F936E7F6E5F7F4F8F4F8C
:101DB0009F4FAF4FB1E03ED0B4E03CD0670F781FEB
:101DC000891F9A1FA11D680F791F8A1F911DA11DD0
:101DD0006A0F711D811D911DA11D20D009F4689409
:101DE0003F912AE0269F11243019305D3193DEF6B1
:101DF000CF010895462F4770405D4193B3E00FD067
:101E0000C9F7F6CF462F4F70405D4A3318F0495D51
:101E100031FD4052419302D0A9F7EACFB4E0A69534
:101E20009795879577956795BA95C9F70097610556
:101E3000710508959B01AC010A2E069457954795AC
:101E400037952795BA95C9F7620F731F841F951FA1
:101E5000A01D0895AA1BBB1B51E107C0AA1FBB1FF1
:101E6000A617B70710F0A61BB70B881F991F5A9526
:101E7000A9F780959095BC01CD0108952F923F92CE
:101E80004F925F926F927F928F929F92AF92BF928A
:101E9000CF92DF92EF92FF920F931F93CF93DF9336
:101EA000CDB7DEB7CA1BDB0B0FB6F894DEBF0FBE93
:101EB000CDBF09942A88398848885F846E847D84E0
:101EC0008C849B84AA84B984C884DF80EE80FD80E2
:101ED0000C811B81AA81B981CE0FD11D0FB6F89458
:0E1EE000DEBF0FBECDBFED010895F894FFCF19
:101EEE000100500A53757065724465626F756E63BA
:101EFE0065206B6C6177737A206E723A20256900CB
:101F0E0025695E25695E25695E2569005544502068
:101F1E0066726F6D3A20002E0052616D6B61206FFC
:101F2E0064706F776965647A6920554450004E6F0E
:101F3E0077612072616D6B6120554450210053749E
:101F4E006172742E2E005E00C0A8000AC0A800B4F4
:101F5E00B004AC58004D4952454BC0A80078C0A8FB
:021F6E00000170
:00000001FF
